00007010783000076503095WIJEKOON MUDIYANSELA23000000000000000050000SLR7010671000007040598SRI JAYA' PURA EDUCA                  2017-2790947181205000000
00007010049000082691874KAPUKATINAGE SAUMYA 23000000000000000050000SLR7010671000007040598SRI JAYA' PURA EDUCA                  2011-5076781181205000000
00007010049000082948633SILUNI ANJALIKA WIJE23000000000000000050000SLR7010671000007040598SRI JAYA' PURA EDUCA                  2011-5138221181205000000
00007010049000072398078GANGODAVILAGE BUDDIN23000000000000000050000SLR7010671000007040598SRI JAYA' PURA EDUCA                  2011-5138388181205000000
00007010049000007739167GALHENGE HIMESHA MAL23000000000000000050000SLR7010671000007040598SRI JAYA' PURA EDUCA                  2011-5139112181205000000
00007010049000072874920HIRIMURE GAMAGE UDAN23000000000000000050000SLR7010671000007040598SRI JAYA' PURA EDUCA                  2011-5142865181205000000
00007010049000082942951NADEESHA SEWWANDI ME23000000000000000050000SLR7010671000007040598SRI JAYA' PURA EDUCA                  2011-5150477181205000000
00007010049000082695945HIRIPITIYAGE SANDUNI23000000000000000050000SLR7010671000007040598SRI JAYA' PURA EDUCA                  2011-5189152181205000000
00007010049000082815410JAYASUNDARA MUDIYANS23000000000000000050000SLR7010671000007040598SRI JAYA' PURA EDUCA                  2011-5204640181205000000
00007010049000082709229WIJEYRATNEGE ROSHANI23000000000000000050000SLR7010671000007040598SRI JAYA' PURA EDUCA                  2011-5219876181205000000
00007010049000082689774DEWUNDARA LIYANA WAD23000000000000000050000SLR7010671000007040598SRI JAYA' PURA EDUCA                  2011-5221579181205000000
00007010049000083511929THANAWEERA ARACHCHIG23000000000000000050000SLR7010671000007040598SRI JAYA' PURA EDUCA                  2011-5222419181205000000
00007010049000072904368KATUWAWALAGE DONA LA23000000000000000050000SLR7010671000007040598SRI JAYA' PURA EDUCA                  2011-5229979181205000000
00007010049000073102498NIPUNI KAVEESHA SATH23000000000000000050000SLR7010671000007040598SRI JAYA' PURA EDUCA                  2011-5282918181205000000
00007010049000082776567SAMARASINGHA ARACHCH23000000000000000050000SLR7010671000007040598SRI JAYA' PURA EDUCA                  2011-5288363181205000000
00007010049000073960793BADDE LIYANAGE DONA 23000000000000000050000SLR7010671000007040598SRI JAYA' PURA EDUCA                  2011-5748780181205000000
00007010049000072904117MUHUDUGAMUWE HEWAGE 23000000000000000050000SLR7010671000007040598SRI JAYA' PURA EDUCA                  2011-6018718181205000000
00007010049000082778387WARSHA MANAGE DULARA23000000000000000050000SLR7010671000007040598SRI JAYA' PURA EDUCA                  2011-6346022181205000000
00007010049000007884845PALAWA MADAGAMMADDEG23000000000000000050000SLR7010671000007040598SRI JAYA' PURA EDUCA                  2012-1154290181205000000
00007010049000074710060TOTAPITIYA ARACHCHIL23000000000000000050000SLR7010671000007040598SRI JAYA' PURA EDUCA                  2012-1177613181205000000
00007010049000074303762KARUNAHEWADILAGE TEE23000000000000000050000SLR7010671000007040598SRI JAYA' PURA EDUCA                  2012-1186949181205000000
00007010049000074280707DERANIYAGALAGE HAMES23000000000000000050000SLR7010671000007040598SRI JAYA' PURA EDUCA                  2012-1202570181205000000
00007010049000074269342SEMASINGHE MUDIYANSE23000000000000000050000SLR7010671000007040598SRI JAYA' PURA EDUCA                  2012-1229656181205000000
00007010049000075219216WEERATHUNGA ARACHCHI23000000000000000050000SLR7010671000007040598SRI JAYA' PURA EDUCA                  2012-1256700181205000000
00007010001000074292880VITHARAMALAGE SASHIN23000000000000000050000SLR7010671000007040598SRI JAYA' PURA EDUCA                  2012-1289527181205000000
00007010049000074288171WIJESIRI KANKANAMAGE23000000000000000050000SLR7010671000007040598SRI JAYA' PURA EDUCA                  2012-1289543181205000000
00007010001000074269295GALHENAGE SAKUNI KAV23000000000000000050000SLR7010671000007040598SRI JAYA' PURA EDUCA                  2012-1317857181205000000
00007010001000074304777KANDABADAGE DONA SUP23000000000000000050000SLR7010671000007040598SRI JAYA' PURA EDUCA                  2012-1723766181205000000
00007010049000074330777MAPALAGAMA MANAGE GI23000000000000000050000SLR7010671000007040598SRI JAYA' PURA EDUCA                  2012-1728237181205000000
00007010049000074336530GODAKAWELA KANKANAMA23000000000000000050000SLR7010671000007040598SRI JAYA' PURA EDUCA                  2012-2350688181205000000
00007010049000075634519NETHMINI THATHSARANI23000000000000000050000SLR7010671000007040598SRI JAYA' PURA EDUCA                  2013-4019563181205000000
00007010049000083314198KARIYAPPERUMAGE RASH23000000000000000050000SLR7010671000007040598SRI JAYA' PURA EDUCA                  2013-4138120181205000000
00007010049000075845256MIRIYAGALLA KANKANAM23000000000000000050000SLR7010671000007040598SRI JAYA' PURA EDUCA                  2013-4169417181205000000
00007010049000075654196WATHMI SANULYA PALIH23000000000000000050000SLR7010671000007040598SRI JAYA' PURA EDUCA                  2013-4195698181205000000
00007010049000075557474THEWAHETTIGE VIDUMIN23000000000000000050000SLR7010671000007040598SRI JAYA' PURA EDUCA                  2013-4221923181205000000
00007010049000075557427DONA AYATHMI UPENYA 23000000000000000050000SLR7010671000007040598SRI JAYA' PURA EDUCA                  2013-4226470181205000000
00007010049000075764035DONA SAHANMI NETHUMY23000000000000000050000SLR7010671000007040598SRI JAYA' PURA EDUCA                  2013-4226488181205000000
00007010049000075557516SANDALI MALITHYA KUR23000000000000000050000SLR7010671000007040598SRI JAYA' PURA EDUCA                  2013-4234693181205000000
00007010049000075653081KABAL PORAGE DON SAN23000000000000000050000SLR7010671000007040598SRI JAYA' PURA EDUCA                  2013-4283473181205000000
00007010049000075557692HABARAKADA LIYANAGE 23000000000000000050000SLR7010671000007040598SRI JAYA' PURA EDUCA                  2013-4286952181205000000
00007010049000075841754MALAVIGE CHETHANIKA 23000000000000000050000SLR7010671000007040598SRI JAYA' PURA EDUCA                  2013-4295757181205000000
00007010049000075557511WEERATHUNGA ARACHCHI23000000000000000050000SLR7010671000007040598SRI JAYA' PURA EDUCA                  2013-4302443181205000000
00007010049000075557685ELAPATHAGE DULAKSHA 23000000000000000050000SLR7010671000007040598SRI JAYA' PURA EDUCA                  2013-4308107181205000000
00007010049000075557693SUDASINGHALAGE DONA 23000000000000000050000SLR7010671000007040598SRI JAYA' PURA EDUCA                  2013-4309146181205000000
00007010049000075841840SENADHEERAGE HEWATH 23000000000000000050000SLR7010671000007040598SRI JAYA' PURA EDUCA                  2013-4323130181205000000
00007010049000075557736ERAWWALAGE SENAYA DE23000000000000000050000SLR7010671000007040598SRI JAYA' PURA EDUCA                  2013-4644085181205000000
00007010049000075557698MANIYAN GAMAGE ISITH23000000000000000050000SLR7010671000007040598SRI JAYA' PURA EDUCA                  2013-4660943181205000000
00007010049000075557696MAGALAGE DONA HIRUNI23000000000000000050000SLR7010671000007040598SRI JAYA' PURA EDUCA                  2013-4686381181205000000
00007010049000075557690RANAWEERA IRUMI DILT23000000000000000050000SLR7010671000007040598SRI JAYA' PURA EDUCA                  2013-5253420181205000000
00007010049000074880670DODAMGODAGE DONA THA23000000000000000050000SLR7010671000007040598SRI JAYA' PURA EDUCA                  2014-6641857181205000000
00007010049000077300719KANUWAN KANDE GAMARA23000000000000000050000SLR7010671000007040598SRI JAYA' PURA EDUCA                  2014-6642330181205000000
00007010049000075986893KAPUSEEKKUGE NEVINI 23000000000000000050000SLR7010671000007040598SRI JAYA' PURA EDUCA                  2014-6643302181205000000
00007010049000074239367HEWA WELAWATTAGE YAS23000000000000000050000SLR7010671000007040598SRI JAYA' PURA EDUCA                  2014-6644279181205000000
00007010049000083327832ARSHA MARAKKALAGE DI23000000000000000050000SLR7010671000007040598SRI JAYA' PURA EDUCA                  2014-6724701181205000000
00007010049000083318271KALUKAPUGE BINARI SA23000000000000000050000SLR7010671000007040598SRI JAYA' PURA EDUCA                  2014-6742335181205000000
00007010689000077115182HETTIARACHCHIGE CHAD23000000000000000050000SLR7010671000007040598SRI JAYA' PURA EDUCA                  2014-6763502181205000000
00007010757000077117788MUNAGAMAGE ALIAS HET23000000000000000050000SLR7010671000007040598SRI JAYA' PURA EDUCA                  2014-6787770181205000000
00007010049000077104316BIYANWALAGE DONA MIY23000000000000000050000SLR7010671000007040598SRI JAYA' PURA EDUCA                  2014-6813003181205000000
00007010678000004751220KARUNARATHNA MUDIYAN23000000000000000050000SLR7010671000007040598SRI JAYA' PURA EDUCA                  2014-6816207181205000000
00007010049000077112415WARNAKULASOORIYA MUD23000000000000000050000SLR7010671000007040598SRI JAYA' PURA EDUCA                  2014-6823688181205000000
00007010049000077100378MOHOPPU GAMAGE RASHM23000000000000000050000SLR7010671000007040598SRI JAYA' PURA EDUCA                  2014-7186576181205000000
00007010049000077133201BOLOGNGNAGE DILASHA 23000000000000000050000SLR7010671000007040598SRI JAYA' PURA EDUCA                  2014-7277342181205000000
00007010049000077112448KARIYAWASAM BOVITHAN23000000000000000050000SLR7010671000007040598SRI JAYA' PURA EDUCA                  2014-7483996181205000000
00007010049000077202169ALAGEWATHTHAGE SWETH23000000000000000050000SLR7010671000007040598SRI JAYA' PURA EDUCA                  2014-7740590181205000000
00007010049000078663252SANUDI CHATHUMINI KA23000000000000000050000SLR7010671000007040598SRI JAYA' PURA EDUCA                  2015-1143875181205000000
00007010049000078451836WETHTHANGA ARACHCHIG23000000000000000050000SLR7010671000007040598SRI JAYA' PURA EDUCA                  2015-1174509181205000000
00007010049000078472737DEGIRIGE ANJANA NETH23000000000000000050000SLR7010671000007040598SRI JAYA' PURA EDUCA                  2015-1177370181205000000
00007010049000078459627PEDURU ARACHCHIGE NE23000000000000000050000SLR7010671000007040598SRI JAYA' PURA EDUCA                  2015-1201930181205000000
00007010049000078937944GODAGAMA GAMAGE INDU23000000000000000050000SLR7010671000007040598SRI JAYA' PURA EDUCA                  2015-1202383181205000000
00007010049000078948519WANNIARACHCHIGE DON 23000000000000000050000SLR7010671000007040598SRI JAYA' PURA EDUCA                  2015-1202391181205000000
00007010049000078478326RANKOTH GEDARA UMESH23000000000000000050000SLR7010671000007040598SRI JAYA' PURA EDUCA                  2015-1226428181205000000
00007010049000078471684APPUKUTTI KANKANAMAG23000000000000000050000SLR7010671000007040598SRI JAYA' PURA EDUCA                  2015-1230190181205000000
00007010049000078472614AMBATHALA VIDANALAGE23000000000000000050000SLR7010671000007040598SRI JAYA' PURA EDUCA                  2015-1233874181205000000
00007010001000078666244KULATHUNGA MUDIYANSE23000000000000000050000SLR7010671000007040598SRI JAYA' PURA EDUCA                  2015-1233963181205000000
00007010049000078928306ONADHI CHANULYA GAMA23000000000000000050000SLR7010671000007040598SRI JAYA' PURA EDUCA                  2015-1246895181205000000
00007010001000078939168RANMOHOTTI GEDARA SA23000000000000000050000SLR7010671000007040598SRI JAYA' PURA EDUCA                  2015-1253840181205000000
00007010049000078935659HATHAMUNAGE DEVMI AM23000000000000000050000SLR7010671000007040598SRI JAYA' PURA EDUCA                  2015-1288563181205000000
00007010049000078549316YADDEHIGE VISHMI AYE23000000000000000050000SLR7010671000007040598SRI JAYA' PURA EDUCA                  2015-1292200181205000000
00007010049000078947447PERUMPADA PEDIGE KAU23000000000000000050000SLR7010671000007040598SRI JAYA' PURA EDUCA                  2015-1295764181205000000
00007010049000079004273NAMMUNI ARACHCHIGE N23000000000000000050000SLR7010671000007040598SRI JAYA' PURA EDUCA                  2015-1296043181205000000
00007010049000078942101THOTAWATHTHA BADDALA23000000000000000050000SLR7010671000007040598SRI JAYA' PURA EDUCA                  2015-1307045181205000000
00007010049000078950662JAYASURIYA ARACHCHIG23000000000000000050000SLR7010671000007040598SRI JAYA' PURA EDUCA                  2015-1312278181205000000
00007010049000078960951DULANJALEE SEWWANDI 23000000000000000050000SLR7010671000007040598SRI JAYA' PURA EDUCA                  2015-1312545181205000000
00007010049000078472776NIMNA THUSHANI KANDA23000000000000000050000SLR7010671000007040598SRI JAYA' PURA EDUCA                  2015-1316435181205000000
00007010049000078947815LIYANAWADUGE MENOLI 23000000000000000050000SLR7010671000007040598SRI JAYA' PURA EDUCA                  2015-1326023181205000000
00007010001000079425208MALMALA ACHARIGE SEN23000000000000000050000SLR7010671000007040598SRI JAYA' PURA EDUCA                  2015-1326120181205000000
00007010049000079061799KANDABADAGE DONA UTH23000000000000000050000SLR7010671000007040598SRI JAYA' PURA EDUCA                  2015-1745239181205000000
00007010049000078463268HABARAGAMURALALAGE I23000000000000000050000SLR7010671000007040598SRI JAYA' PURA EDUCA                  2015-1771639181205000000
00007010049000080279165PASKUWAL HANDI MANEE23000000000000000050000SLR7010671000007040598SRI JAYA' PURA EDUCA                  2016-5140692181205000000
00007010049000080270937DONA SANDUNI HANSIKA23000000000000000050000SLR7010671000007040598SRI JAYA' PURA EDUCA                  2016-5148502181205000000
00007010049000080278851NARANGAHA KOTUWE GED23000000000000000050000SLR7010671000007040598SRI JAYA' PURA EDUCA                  2016-5172489181205000000
00007010049000075913365KANDALAMA KANKANAMAL23000000000000000050000SLR7010671000007040598SRI JAYA' PURA EDUCA                  2016-5181992181205000000
00007010049000080360434THUPPAHIGE DHANANI S23000000000000000050000SLR7010671000007040598SRI JAYA' PURA EDUCA                  2016-5202663181205000000
00007010049000080269515WELPAHALA ARACHCHIGE23000000000000000050000SLR7010671000007040598SRI JAYA' PURA EDUCA                  2016-5209072181205000000
00007010049000080282619ADHEESHA IMANDI MURA23000000000000000050000SLR7010671000007040598SRI JAYA' PURA EDUCA                  2016-5224306181205000000
00007010049000080278145VIDANALAGE RUHANSA S23000000000000000050000SLR7010671000007040598SRI JAYA' PURA EDUCA                  2016-5225205181205000000
00007010049000080282061RATHNAYAKE MUDIYANSE23000000000000000050000SLR7010671000007040598SRI JAYA' PURA EDUCA                  2016-5242649181205000000
00007010049000080238662NAWRNA BADDAGE TAMAD23000000000000000050000SLR7010671000007040598SRI JAYA' PURA EDUCA                  2016-5290554181205000000
00007010049000080274991KARALAHEENGE THENUKI23000000000000000050000SLR7010671000007040598SRI JAYA' PURA EDUCA                  2016-5292972181205000000
00007010049000080280613MULLAKANDAGE YURENI 23000000000000000050000SLR7010671000007040598SRI JAYA' PURA EDUCA                  2016-5304067181205000000
00007010049000080282297BEENU JAYANGA MADUMI23000000000000000050000SLR7010671000007040598SRI JAYA' PURA EDUCA                  2016-5313910181205000000
00007010049000080304572SINGHA PURAGE PABASA23000000000000000050000SLR7010671000007040598SRI JAYA' PURA EDUCA                  2016-5314445181205000000
00007010049000080304685MALAGE DONA MALEESHA23000000000000000050000SLR7010671000007040598SRI JAYA' PURA EDUCA                  2016-5317436181205000000
00007010049000080280540KARUNA PEDIGE PRARTH23000000000000000050000SLR7010671000007040598SRI JAYA' PURA EDUCA                  2016-5320402181205000000
00007010049000080259464HINGURALAGE DON SENU23000000000000000050000SLR7010671000007040598SRI JAYA' PURA EDUCA                  2016-5320453181205000000
00007010049000080281952JAYASINGHE ARACHCHIG23000000000000000050000SLR7010671000007040598SRI JAYA' PURA EDUCA                  2016-5320682181205000000
00007010049000080406475HEWA KOKAWALAGE SITH23000000000000000050000SLR7010671000007040598SRI JAYA' PURA EDUCA                  2016-5447291181205000000
00007010049000080282800SAMARAPPULI HEWAGE N23000000000000000050000SLR7010671000007040598SRI JAYA' PURA EDUCA                  2016-5710383181205000000
00007010049000799652277KASTHURI ARACHCHIGE 23000000000000000050000SLR7010671000007040598SRI JAYA' PURA EDUCA                  2016-5790379181205000000
00007010049000080396978KAPUWELLA GAMAGE JAY23000000000000000050000SLR7010671000007040598SRI JAYA' PURA EDUCA                  2016-6359914181205000000
00007010049000080373537WELIGALAGE DIWYA IMA23000000000000000050000SLR7010671000007040598SRI JAYA' PURA EDUCA                  2016-6467555181205000000
00007010049000074227781WANNIACHCHIGE POOJAN23000000000000000050000SLR7010671000007040598SRI JAYA' PURA EDUCA                  2017-1138952181205000000
00007010049000082078799JAYASOORIYA ARACHCHI23000000000000000050000SLR7010671000007040598SRI JAYA' PURA EDUCA                  2017-1164309181205000000
00007010049000082119147MADUGODA RALALAGE DO23000000000000000050000SLR7010671000007040598SRI JAYA' PURA EDUCA                  2017-1187341181205000000
00007010049000082088479EDIRISINGHE ARACHCHI23000000000000000050000SLR7010671000007040598SRI JAYA' PURA EDUCA                  2017-1192043181205000000
00007010049000082204319WELIWATHTHAGE DONA T23000000000000000050000SLR7010671000007040598SRI JAYA' PURA EDUCA                  2017-1192329181205000000
00007010049000082085952PABODHI HIRUPABA WIJ23000000000000000050000SLR7010671000007040598SRI JAYA' PURA EDUCA                  2017-1202367181205000000
00007010049000082928577DON UMAYANGANA DIVYA23000000000000000050000SLR7010671000007040598SRI JAYA' PURA EDUCA                  2017-1202375181205000000
00007010049000082085736SENAVIRATNE MUDIYANS23000000000000000050000SLR7010671000007040598SRI JAYA' PURA EDUCA                  2017-1222880181205000000
00007010049000082078384RATHNAYAKA MUDIYANSE23000000000000000050000SLR7010671000007040598SRI JAYA' PURA EDUCA                  2017-1227599181205000000
00007010049000082088621MAHAMENDIGE NADEWNI 23000000000000000050000SLR7010671000007040598SRI JAYA' PURA EDUCA                  2017-1227602181205000000
00007010049000082087503HIRUSHI MANODYA PERE23000000000000000050000SLR7010671000007040598SRI JAYA' PURA EDUCA                  2017-1231731181205000000
00007010049000082086296THARUDI SEWMINI MORA23000000000000000050000SLR7010671000007040598SRI JAYA' PURA EDUCA                  2017-1231782181205000000
00007010049000082086525VIDANALAGE JINUKI AN23000000000000000050000SLR7010671000007040598SRI JAYA' PURA EDUCA                  2017-1244132181205000000
00007010049000082088079PANAPA LIYANAGE ESAD23000000000000000050000SLR7010671000007040598SRI JAYA' PURA EDUCA                  2017-1261339181205000000
00007010049000082083938KORALEGAMA HEWAGE TH23000000000000000050000SLR7010671000007040598SRI JAYA' PURA EDUCA                  2017-1266330181205000000
00007010049000082088370ABRAHAM GALAPPATHTHI23000000000000000050000SLR7010671000007040598SRI JAYA' PURA EDUCA                  2017-1286552181205000000
00007010049000082911316HATAN ACHCHIGE CHAMI23000000000000000050000SLR7010671000007040598SRI JAYA' PURA EDUCA                  2017-1288024181205000000
00007010049000082911434SARANGUGE PUNSARANI 23000000000000000050000SLR7010671000007040598SRI JAYA' PURA EDUCA                  2017-1296779181205000000
00007010049000082086021DIKPITA HEWAGE CHAMA23000000000000000050000SLR7010671000007040598SRI JAYA' PURA EDUCA                  2017-1300741181205000000
00007010049000082094803SODIGE CHAMUDI IMASH23000000000000000050000SLR7010671000007040598SRI JAYA' PURA EDUCA                  2017-1315650181205000000
00007010049000082086449WELIKANNAGE DONA SAN23000000000000000050000SLR7010671000007040598SRI JAYA' PURA EDUCA                  2017-1316966181205000000
00007010049000082087817DEBEGAMA KANKANAMALA23000000000000000050000SLR7010671000007040598SRI JAYA' PURA EDUCA                  2017-1321528181205000000
00007010049000082104798LABUGAMKANDE KATTADI23000000000000000050000SLR7010671000007040598SRI JAYA' PURA EDUCA                  2017-1325809181205000000
00007010049000082080810HEWA GAMAGE DINITHI 23000000000000000050000SLR7010671000007040598SRI JAYA' PURA EDUCA                  2017-1331973181205000000
00007010049000082079080HAPUTHANTHIRIGE HUMI23000000000000000050000SLR7010671000007040598SRI JAYA' PURA EDUCA                  2017-1678299181205000000
00007010049000082087738GULAWITA PURANDARAGE23000000000000000050000SLR7010671000007040598SRI JAYA' PURA EDUCA                  2017-1681257181205000000
00007010049000082087674WEWALA PALLEGEDARA D23000000000000000050000SLR7010671000007040598SRI JAYA' PURA EDUCA                  2017-1686445181205000000
00007010049000082087839SOORIYA ARACHCHIGE R23000000000000000050000SLR7010671000007040598SRI JAYA' PURA EDUCA                  2017-1712543181205000000
00007010049000082086572PANNILAGE PUNSARANI 23000000000000000050000SLR7010671000007040598SRI JAYA' PURA EDUCA                  2017-1712861181205000000
00007010049000082928766GINIGADDARAGE DONA T23000000000000000050000SLR7010671000007040598SRI JAYA' PURA EDUCA                  2017-1729713181205000000
00007010049000082088199WEERASINGHE ARACHCHI23000000000000000050000SLR7010671000007040598SRI JAYA' PURA EDUCA                  2017-2144034181205000000
00007010049000082088532JAYARATHNA KANKANAMG23000000000000000050000SLR7010671000007040598SRI JAYA' PURA EDUCA                  2017-2258153181205000000
00007010049000082080538GALLA HETTI ARACHCHI23000000000000000050000SLR7010671000007040598SRI JAYA' PURA EDUCA                  2017-2456214181205000000
00007010049000082080889ANHETTI VITHARAMALAG23000000000000000050000SLR7010671000007040598SRI JAYA' PURA EDUCA                  2017-2620839181205000000
00007010049000082078536KUDA SINGAPPULIGE DI23000000000000000050000SLR7010671000007040598SRI JAYA' PURA EDUCA                  2017-2623196181205000000
00007010746000073232378WALPOLA LIYANAGE SAN23000000000000000050000SLR7010671000007040598SRI JAYA' PURA EDUCA                  2011-5048168181205000000
00007010746000073192988RANAPURA DEWAGE DENE23000000000000000050000SLR7010671000007040598SRI JAYA' PURA EDUCA                  2011-5146577181205000000
00007010746000073227683JAYAWEERA PATABENDIG23000000000000000050000SLR7010671000007040598SRI JAYA' PURA EDUCA                  2011-5146640181205000000
00007010746000007722120SUDU HAKURU DEWAGE I23000000000000000050000SLR7010671000007040598SRI JAYA' PURA EDUCA                  2011-5146666181205000000
00007010746000073048753DINUKA SHAVINDA DERA23000000000000000050000SLR7010671000007040598SRI JAYA' PURA EDUCA                  2011-5146909181205000000
00007010746000072983154KOLAMBA MODARA PARAN23000000000000000050000SLR7010671000007040598SRI JAYA' PURA EDUCA                  2011-5165342181205000000
00007010746000074321161PALANIYANDI CHANDRAS23000000000000000050000SLR7010671000007040598SRI JAYA' PURA EDUCA                  2012-1039687181205000000
00007010746000073327926WELLALAGE DON CHANDA23000000000000000050000SLR7010671000007040598SRI JAYA' PURA EDUCA                  2012-1156900181205000000
00007010746000071503916 SIVAKUMAR RAVISHKAR23000000000000000050000SLR7010671000007040598SRI JAYA' PURA EDUCA                  2012-1156993181205000000
00007010746000073864646LAMPAPUGE THEEKSHANA23000000000000000050000SLR7010671000007040598SRI JAYA' PURA EDUCA                  2012-1157094181205000000
00007010746000074395060NAMALGE GAMINDA GAYA23000000000000000050000SLR7010671000007040598SRI JAYA' PURA EDUCA                  2012-1157345181205000000
00007010746000074451313DON DASUN SANDEEPA V23000000000000000050000SLR7010671000007040598SRI JAYA' PURA EDUCA                  2012-1157469181205000000
00007010746000074311252LOKU HETTI ARACHCHIG23000000000000000050000SLR7010671000007040598SRI JAYA' PURA EDUCA                  2012-1178830181205000000
00007010746000074351802HAPUARACHCHILAGE IRU23000000000000000050000SLR7010671000007040598SRI JAYA' PURA EDUCA                  2012-1493302181205000000
00007010746000075846619DON UCHITHA IDURANGA23000000000000000050000SLR7010671000007040598SRI JAYA' PURA EDUCA                  2013-4141962181205000000
00007010746000075947913JAYASINGHA MUDIYANSE23000000000000000050000SLR7010671000007040598SRI JAYA' PURA EDUCA                  2013-4286790181205000000
00007010746000075927381KALUARACHCHILAGE KAV23000000000000000050000SLR7010671000007040598SRI JAYA' PURA EDUCA                  2013-4457617181205000000
00007010746000075546289KALUWA DEWA KAVINDU 23000000000000000050000SLR7010671000007040598SRI JAYA' PURA EDUCA                  2013-4981138181205000000
00007010746000077624917VITHANALAGE NAVODYA 23000000000000000050000SLR7010671000007040598SRI JAYA' PURA EDUCA                  2014-6657249181205000000
00007010746000078526271EDIRI ARACHCHIGE POO23000000000000000050000SLR7010671000007040598SRI JAYA' PURA EDUCA                  2014-6667376181205000000
00007010746000077110943PATHIRAJA MUDIYANSEL23000000000000000050000SLR7010671000007040598SRI JAYA' PURA EDUCA                  2014-6667520181205000000
00007010746000077729842BAMUNU ARACHCHIGE UT23000000000000000050000SLR7010671000007040598SRI JAYA' PURA EDUCA                  2014-6667538181205000000
00007010746000077155881THISAN DAMSITH WEERA23000000000000000050000SLR7010671000007040598SRI JAYA' PURA EDUCA                  2014-6668577181205000000
00007010746000077163037DISSANAYAKA MUDIYANS23000000000000000050000SLR7010671000007040598SRI JAYA' PURA EDUCA                  2014-6681727181205000000
00007010746000077124848THUDUHENAGE CHELAKA 23000000000000000050000SLR7010671000007040598SRI JAYA' PURA EDUCA                  2014-6683037181205000000
00007010746000077110596SIYAMBALAPA KANKANAM23000000000000000050000SLR7010671000007040598SRI JAYA' PURA EDUCA                  2014-6683282181205000000
00007010746000077109484KAHANDAWALA ARACHCHI23000000000000000050000SLR7010671000007040598SRI JAYA' PURA EDUCA                  2014-6717098181205000000
00007010746000077110156WIJESINGHA ARACHCHIG23000000000000000050000SLR7010671000007040598SRI JAYA' PURA EDUCA                  2014-6719740181205000000
00007010746000077386624HORANA ARACHCHIGE VE23000000000000000050000SLR7010671000007040598SRI JAYA' PURA EDUCA                  2014-6735100181205000000
00007010746000077499823THEVINDU NELANA THAL23000000000000000050000SLR7010671000007040598SRI JAYA' PURA EDUCA                  2014-6935907181205000000
00007010746000077110742CHANDULA DULNETH ABE23000000000000000050000SLR7010671000007040598SRI JAYA' PURA EDUCA                  2014-6995470181205000000
00007010746000078613110PATHIRAJAWASAM KUDAH23000000000000000050000SLR7010671000007040598SRI JAYA' PURA EDUCA                  2015-1020234181205000000
00007010746000078637341HEWA LOKUGE SINETH K23000000000000000050000SLR7010671000007040598SRI JAYA' PURA EDUCA                  2015-1146815181205000000
00007010746000078680155POLGAMPALAGE HIRUSHA23000000000000000050000SLR7010671000007040598SRI JAYA' PURA EDUCA                  2015-1159682181205000000
00007010746000080379545ESHAN MISHARA RANASI23000000000000000050000SLR7010671000007040598SRI JAYA' PURA EDUCA                  2016-5145929181205000000
00007010746000080373501DON SAMARANAYAKA RAJ23000000000000000050000SLR7010671000007040598SRI JAYA' PURA EDUCA                  2016-5145988181205000000
00007010746000080302924KANKANAM GAMAGE TIME23000000000000000050000SLR7010671000007040598SRI JAYA' PURA EDUCA                  2016-5178541181205000000
00007010723000076504954KIRIHENA APPUHAMILAG23000000000000000050000SLR7010671000007040598SRI JAYA' PURA EDUCA                  2017-1219260181205000000
00007010757000003723308HINIDUMA APPUGE PAWA23000000000000000050000SLR7010671000007040598SRI JAYA' PURA EDUCA                  2014-6674682181205000000
00007010608000071357392KIRIWATTUDUWAGE THAR23000000000000000050000SLR7010671000007040598SRI JAYA' PURA EDUCA                  2014-6680003181205000000
00007010608000072848032SUBHAWICKRAMA GAMAAR23000000000000000050000SLR7010671000007040598SRI JAYA' PURA EDUCA                  2014-6680941181205000000
00007010608000083226066WANNI ARACHCHIGE SHI23000000000000000050000SLR7010671000007040598SRI JAYA' PURA EDUCA                  2014-6681786181205000000
00007010757000003723353RANASINGHE ARACHCHIG23000000000000000050000SLR7010671000007040598SRI JAYA' PURA EDUCA                  2014-6683487181205000000
00007010741000007734944GODAGAMA DURAYALAGE 23000000000000000050000SLR7010671000007040598SRI JAYA' PURA EDUCA                  2014-6819591181205000000
00007010741000075157616RAMANAYAKAGE SAMADHI23000000000000000050000SLR7010671000007040598SRI JAYA' PURA EDUCA                  2014-6823602181205000000
00007010530000001213920KANAMPELLE KANKANAMA23000000000000000050000SLR7010671000007040598SRI JAYA' PURA EDUCA                  2014-6830676181205000000
00007010530000075605218MITIPOLA ARACHCHIGE 23000000000000000050000SLR7010671000007040598SRI JAYA' PURA EDUCA                  2014-6832458181205000000
00007010732000017932574LIYANA ATHUKORALALAG23000000000000000050000SLR7010671000007040598SRI JAYA' PURA EDUCA                  2014-6922481181205000000
00007010741000083261552KANDAOLUWA PATHIRANN23000000000000000050000SLR7010671000007040598SRI JAYA' PURA EDUCA                  2014-6923070181205000000
00007010608000000579828RAMIDU SHENAL HETTIA23000000000000000050000SLR7010671000007040598SRI JAYA' PURA EDUCA                  2014-6959687181205000000
00007010642000006708200WALPOLA GAMARALALAGE23000000000000000050000SLR7010671000007040598SRI JAYA' PURA EDUCA                  2015-1545108181205000000
00000222194200150014986HEWAGAMAGE RASHMI SA23000000000000000050000SLR7010671000007040598SRI JAYA' PURA EDUCA                  2011-5213002181205000000
00000222194200140018777ABEWICKRAMAGE AMANDI23000000000000000050000SLR7010671000007040598SRI JAYA' PURA EDUCA                  2012-1216279181205000000
00000222194200170011114JONIKKU HEWA GAMAGE 23000000000000000050000SLR7010671000007040598SRI JAYA' PURA EDUCA                  2013-4204204181205000000
00000222194200170023150     FATHIMA RASHIDA23000000000000000050000SLR7010671000007040598SRI JAYA' PURA EDUCA                  2014-6541771181205000000
00000222194200140022784GALGODEGEDARA SEHANS23000000000000000050000SLR7010671000007040598SRI JAYA' PURA EDUCA                  2014-6709249181205000000
00000222194200120023204MOHOMED IKBAR FATHIM23000000000000000050000SLR7010671000007040598SRI JAYA' PURA EDUCA                  2014-6714005181205000000
00000222194200190023149DODANGODA LIYANAGE H23000000000000000050000SLR7010671000007040598SRI JAYA' PURA EDUCA                  2014-7513364181205000000
00000222098200190015505HIRAMUTHU GODAGE PRA23000000000000000050000SLR7010671000007040598SRI JAYA' PURA EDUCA                  2013-4210000181205000000
00000222098200180010773KURUWA VIDANARALALAG23000000000000000050000SLR7010671000007040598SRI JAYA' PURA EDUCA                  2016-5218152181205000000
00000222078200100004291KUDAMADUWAGE CHAMOD 23000000000000000050000SLR7010671000007040598SRI JAYA' PURA EDUCA                  2011-5140277181205000000
00000222279200190004300NARAHENPITAGE PRAVEE23000000000000000050000SLR7010671000007040598SRI JAYA' PURA EDUCA                  2011-5191009181205000000
00000222078200130005345MADUWE GEDARA CHAMAT23000000000000000050000SLR7010671000007040598SRI JAYA' PURA EDUCA                  2012-1150430181205000000
00000222078200170005348LIYANA PENDIGE USHAN23000000000000000050000SLR7010671000007040598SRI JAYA' PURA EDUCA                  2012-1150480181205000000
00000222078200150004547ANTHONY KUSHAN KALHA23000000000000000050000SLR7010671000007040598SRI JAYA' PURA EDUCA                  2012-1150529181205000000
00000222279200160019162KAPUGE DON NEHAN MAD23000000000000000050000SLR7010671000007040598SRI JAYA' PURA EDUCA                  2012-1168819181205000000
00000222279200160035259MUNASINGHE ARACHCHIG23000000000000000050000SLR7010671000007040598SRI JAYA' PURA EDUCA                  2012-1203410181205000000
00000222279200130014496HEWA GAMAGE HIRUSHA 23000000000000000050000SLR7010671000007040598SRI JAYA' PURA EDUCA                  2012-1225472181205000000
00000222078200180006408NARASURIYAGE JALITHA23000000000000000050000SLR7010671000007040598SRI JAYA' PURA EDUCA                  2013-4134109181205000000
00000222078200140006405HEWA MEDDAWATTAGE CH23000000000000000050000SLR7010671000007040598SRI JAYA' PURA EDUCA                  2013-4134400181205000000
00000222078200100006407RATHNAYAKA MUDIYANSE23000000000000000050000SLR7010671000007040598SRI JAYA' PURA EDUCA                  2013-4134443181205000000
00000222078200160005259ARAWWALA JOTHIGE KAV23000000000000000050000SLR7010671000007040598SRI JAYA' PURA EDUCA                  2013-4134575181205000000
00000222078200110006402BALASOORIYA APPUHAMI23000000000000000050000SLR7010671000007040598SRI JAYA' PURA EDUCA                  2013-4134613181205000000
00000222078200130006420HETTIARACHIGE SITHUM23000000000000000050000SLR7010671000007040598SRI JAYA' PURA EDUCA                  2013-4134761181205000000
00000222078200110006416AGOSTHINUGE DON MENU23000000000000000050000SLR7010671000007040598SRI JAYA' PURA EDUCA                  2013-4134869181205000000
00000222078200160006391PATHIRAGE NILESH VIH23000000000000000050000SLR7010671000007040598SRI JAYA' PURA EDUCA                  2013-4134907181205000000
00000222078200100006935JOSHAPH SACHINTHA MI23000000000000000050000SLR7010671000007040598SRI JAYA' PURA EDUCA                  2013-4161262181205000000
00000222078200110007213KULATHUNGAGE MAHEESH23000000000000000050000SLR7010671000007040598SRI JAYA' PURA EDUCA                  2013-4185056181205000000
00000222078200106846929JAYASIRI GUNASEKARA 23000000000000000050000SLR7010671000007040598SRI JAYA' PURA EDUCA                  2014-6639763181205000000
00000222279200180007467WEERASIMGHE MUDIYANS23000000000000000050000SLR7010671000007040598SRI JAYA' PURA EDUCA                  2014-6639810181205000000
00000222078200110367309ARACHCHIGE SACHINTHA23000000000000000050000SLR7010671000007040598SRI JAYA' PURA EDUCA                  2014-6640010181205000000
00000222078200130003431BADDELIYANAGE DON NI23000000000000000050000SLR7010671000007040598SRI JAYA' PURA EDUCA                  2014-6640117181205000000
00000222078200130002375VIDANAGAMAGE MANINDU23000000000000000050000SLR7010671000007040598SRI JAYA' PURA EDUCA                  2014-6640125181205000000
00000222078200283777413YAPITA MUDIYANSELAGE23000000000000000050000SLR7010671000007040598SRI JAYA' PURA EDUCA                  2014-6640311181205000000
00000222078200130007467VIMUKTHI LAKSHAN UBE23000000000000000050000SLR7010671000007040598SRI JAYA' PURA EDUCA                  2014-6640354181205000000
00000222078200130008155DON MANUWELGE DON SI23000000000000000050000SLR7010671000007040598SRI JAYA' PURA EDUCA                  2014-6640370181205000000
00000222078200168503158RAJAPAKSHA ARACHCHIG23000000000000000050000SLR7010671000007040598SRI JAYA' PURA EDUCA                  2014-6640389181205000000
00000222078200133778236NARAYANAGE CHAMINDU 23000000000000000050000SLR7010671000007040598SRI JAYA' PURA EDUCA                  2014-6640435181205000000
00000222078200160008154MILLA VITHANACHCHIGE23000000000000000050000SLR7010671000007040598SRI JAYA' PURA EDUCA                  2014-6659276181205000000
00000222078200130008136MUTHUNAMA GONNAGE HI23000000000000000050000SLR7010671000007040598SRI JAYA' PURA EDUCA                  2014-6668593181205000000
00000222078200160019572KOMBALA SANTHIGE YAS23000000000000000050000SLR7010671000007040598SRI JAYA' PURA EDUCA                  2014-6683320181205000000
00000222078200130004237BAJJAMA KANKANAMALAG23000000000000000050000SLR7010671000007040598SRI JAYA' PURA EDUCA                  2015-1140361181205000000
00000222078200200002480SEHANDU THEUNAKA BOT23000000000000000050000SLR7010671000007040598SRI JAYA' PURA EDUCA                  2015-1140671181205000000
00000222078200140009022ATTANAYAKA MOHOTTALA23000000000000000050000SLR7010671000007040598SRI JAYA' PURA EDUCA                  2015-1256424181205000000
00000222078200100004168AGOSTHINUGE DON METH23000000000000000050000SLR7010671000007040598SRI JAYA' PURA EDUCA                  2016-5142237181205000000
00000222078200146846989MAHANAMAGE VENUJA DE23000000000000000050000SLR7010671000007040598SRI JAYA' PURA EDUCA                  2016-5142253181205000000
00000222078720140018682WEERAPPULI ARACHCHIL23000000000000000050000SLR7010671000007040598SRI JAYA' PURA EDUCA                  2016-5142520181205000000
00000222078200120004153HEWAGE METHU MIHIJAY23000000000000000050000SLR7010671000007040598SRI JAYA' PURA EDUCA                  2016-5142709181205000000
00000222174200160004350NANOBI ARACHCHIGE TH23000000000000000050000SLR7010671000007040598SRI JAYA' PURA EDUCA                  2011-5123348181205000000
00000222174200180001464EASHANI UTHPALA DIAS23000000000000000050000SLR7010671000007040598SRI JAYA' PURA EDUCA                  2011-5141923181205000000
00000222335200160004500KANKANIGE DINITHI JA23000000000000000050000SLR7010671000007040598SRI JAYA' PURA EDUCA                  2011-5173876181205000000
00000222174200150004360MERIGNGNAGE DEHEMI N23000000000000000050000SLR7010671000007040598SRI JAYA' PURA EDUCA                  2011-5195292181205000000
00000222174200190004344RANASINGHA ARACHCHIG23000000000000000050000SLR7010671000007040598SRI JAYA' PURA EDUCA                  2011-5195470181205000000
00000222174200290000294AKMEEMANA VITHANAGE 23000000000000000050000SLR7010671000007040598SRI JAYA' PURA EDUCA                  2011-5222532181205000000
00000222174200150004336BULATHSINHALA ARACHC23000000000000000050000SLR7010671000007040598SRI JAYA' PURA EDUCA                  2011-5230110181205000000
00000222174200120004352KANKANAMGE DON MALIN23000000000000000050000SLR7010671000007040598SRI JAYA' PURA EDUCA                  2011-5249295181205000000
00000222174200172826459PAYAGALA UDAWATHTHAG23000000000000000050000SLR7010671000007040598SRI JAYA' PURA EDUCA                  2011-5275903181205000000
00000222174200100004348PANNALA HENEGEDARA Y23000000000000000050000SLR7010671000007040598SRI JAYA' PURA EDUCA                  2011-5285496181205000000
00000222174200100004333PADUKKA VIDANALAGE R23000000000000000050000SLR7010671000007040598SRI JAYA' PURA EDUCA                  2011-5289610181205000000
00000222174200150004355MATARAGE DON AYESHA 23000000000000000050000SLR7010671000007040598SRI JAYA' PURA EDUCA                  2011-5289823181205000000
00000222335200110004362THARUSHI CHAMATHKA W23000000000000000050000SLR7010671000007040598SRI JAYA' PURA EDUCA                  2011-5297982181205000000
00000222174200190004339VITHANAGE JANEESHA U23000000000000000050000SLR7010671000007040598SRI JAYA' PURA EDUCA                  2011-5300312181205000000
00000222174200140004351KALANIE OMANTHI JAYA23000000000000000050000SLR7010671000007040598SRI JAYA' PURA EDUCA                  2011-5642132181205000000
00000222174200160004345GIGIRIWALA GAMAGE GI23000000000000000050000SLR7010671000007040598SRI JAYA' PURA EDUCA                  2011-5678420181205000000
00000222174200180004349SAMARATHUNGA MUHANDI23000000000000000050000SLR7010671000007040598SRI JAYA' PURA EDUCA                  2011-5736293181205000000
00000222174200130004342MAPITIYAGE HARSHI GI23000000000000000050000SLR7010671000007040598SRI JAYA' PURA EDUCA                  2011-5745128181205000000
00000222335200180004354LEVANGAMAGE DON MALK23000000000000000050000SLR7010671000007040598SRI JAYA' PURA EDUCA                  2011-6492380181205000000
00000222174200120004347MILLAVITIYA ARACHCHI23000000000000000050000SLR7010671000007040598SRI JAYA' PURA EDUCA                  2011-6492541181205000000
00000222335200140005850HEELA KANKANAMGE THI23000000000000000050000SLR7010671000007040598SRI JAYA' PURA EDUCA                  2012-1154281181205000000
00000222335200100005705HATHAMUNAGE LAKSARAN23000000000000000050000SLR7010671000007040598SRI JAYA' PURA EDUCA                  2012-1197142181205000000
00000222174200120005686JAYASINGHE ARACHCHIG23000000000000000050000SLR7010671000007040598SRI JAYA' PURA EDUCA                  2012-1229796181205000000
00000222174200160005811WEDUMPULIACHCHIGE DO23000000000000000050000SLR7010671000007040598SRI JAYA' PURA EDUCA                  2012-1237462181205000000
00000222335200150005755POLGAMPALAGE MALSHI 23000000000000000050000SLR7010671000007040598SRI JAYA' PURA EDUCA                  2012-1237543181205000000
00000222335200180005693ATHUKORALAGE METHMIN23000000000000000050000SLR7010671000007040598SRI JAYA' PURA EDUCA                  2012-1291700181205000000
00000222335200100005687MAHA GAMAGE UTHPALA 23000000000000000050000SLR7010671000007040598SRI JAYA' PURA EDUCA                  2012-1311212181205000000
00000222174200130005742SAMARAWEERA ARACHCHI23000000000000000050000SLR7010671000007040598SRI JAYA' PURA EDUCA                  2012-1334760181205000000
00000222174200180005669MUTHUTHANTHRIGE SANJ23000000000000000050000SLR7010671000007040598SRI JAYA' PURA EDUCA                  2012-1685643181205000000
00000222174200190005697SURAWEERA ARACHCHIGE23000000000000000050000SLR7010671000007040598SRI JAYA' PURA EDUCA                  2012-1689290181205000000
00000222335200470007375NAWALAGE DISNI DINUW23000000000000000050000SLR7010671000007040598SRI JAYA' PURA EDUCA                  2013-4137205181205000000
00000222174200130007604SANTHIYAGU GEVINDI P23000000000000000050000SLR7010671000007040598SRI JAYA' PURA EDUCA                  2013-4911091181205000000
00000222279200180008105RAIGAMAGE LETHMINI A23000000000000000050000SLR7010671000007040598SRI JAYA' PURA EDUCA                  2014-6657648181205000000
00000222097200210015175SAMADHI SATHSARANI R23000000000000000050000SLR7010671000007040598SRI JAYA' PURA EDUCA                  2014-6703143181205000000
00000222103200140028446MAILANGE VIHAGI NETH23000000000000000050000SLR7010671000007040598SRI JAYA' PURA EDUCA                  2014-6743773181205000000
00000222019200150004494LATHPADURAGE NISALYA23000000000000000050000SLR7010671000007040598SRI JAYA' PURA EDUCA                  2014-6747493181205000000
00000222049200130037119KAHANDA KORALAGE SET23000000000000000050000SLR7010671000007040598SRI JAYA' PURA EDUCA                  2014-6787657181205000000
00000222049200190036961ALWITIGALAGE DILUMI 23000000000000000050000SLR7010671000007040598SRI JAYA' PURA EDUCA                  2014-6796850181205000000
00000222049200150036915NAULLAGE SUPUNI SAMA23000000000000000050000SLR7010671000007040598SRI JAYA' PURA EDUCA                  2014-6806520181205000000
00000222229200120020342SAKALAWALLI ACHARIGE23000000000000000050000SLR7010671000007040598SRI JAYA' PURA EDUCA                  2014-6823742181205000000
00000222335200170009074MEERIYAGALLA KANKANA23000000000000000050000SLR7010671000007040598SRI JAYA' PURA EDUCA                  2014-6837298181205000000
00000222335200190009006THALAWITA BANDARAGE 23000000000000000050000SLR7010671000007040598SRI JAYA' PURA EDUCA                  2014-7143788181205000000
00000222300200160043328SWETHA SADEEPANI RAJ23000000000000000050000SLR7010671000007040598SRI JAYA' PURA EDUCA                  2014-7181990181205000000
00000222121200120020803SANDRADU CHATHUMI NI23000000000000000050000SLR7010671000007040598SRI JAYA' PURA EDUCA                  2014-7196440181205000000
00000222335200150010021CHAMODI AMASHA WEERA23000000000000000050000SLR7010671000007040598SRI JAYA' PURA EDUCA                  2015-1142399181205000000
00000222174200180012047MEERIYAGALLAGE TENAL23000000000000000050000SLR7010671000007040598SRI JAYA' PURA EDUCA                  2016-5308828181205000000
00000222208200170014176EDIRISURIYA MOHOTTIG23000000000000000050000SLR7010671000007040598SRI JAYA' PURA EDUCA                  2011-5158389181205000000
00000222208820030002340RANASINGHE ARACHCHIL23000000000000000050000SLR7010671000007040598SRI JAYA' PURA EDUCA                  2011-5165890181205000000
00000222208200290011058MAHAGAMAGE CHAMIKARA23000000000000000050000SLR7010671000007040598SRI JAYA' PURA EDUCA                  2012-1175238181205000000
00000222208200160025849DON VITHARANALAGE PA23000000000000000050000SLR7010671000007040598SRI JAYA' PURA EDUCA                  2014-6667244181205000000
00000222208200160317980RANASINGHE ARACHCHIL23000000000000000050000SLR7010671000007040598SRI JAYA' PURA EDUCA                  2014-6667350181205000000
00000222208200110015819WALIGAMPOLA GEDARA S23000000000000000050000SLR7010671000007040598SRI JAYA' PURA EDUCA                  2014-6667430181205000000
00000222196200130014463MEEGODA YAKDENIGE SA23000000000000000050000SLR7010671000007040598SRI JAYA' PURA EDUCA                  2012-1185950181205000000
00000222217200144320804ATHUKORALAGE PASINDU23000000000000000050000SLR7010671000007040598SRI JAYA' PURA EDUCA                  2012-1453505181205000000
00000222196200263901705HERATHHAMIGE DHARMAS23000000000000000050000SLR7010671000007040598SRI JAYA' PURA EDUCA                  2013-4173260181205000000
00000222196200180022837PADUWAWALA KANKANAMA23000000000000000050000SLR7010671000007040598SRI JAYA' PURA EDUCA                  2013-4175328181205000000
00000222196196140017381WEERASEKARAGE NAVEEN23000000000000000050000SLR7010671000007040598SRI JAYA' PURA EDUCA                  2013-4449959181205000000
00000222017200130056017RAIGAMAGE DON YASASV23000000000000000050000SLR7010671000007040598SRI JAYA' PURA EDUCA                  2013-5389623181205000000
00000222196200180006465CHARLS DIYASGE IMALS23000000000000000050000SLR7010671000007040598SRI JAYA' PURA EDUCA                  2014-6674852181205000000
00000222328200180029009BATUWITA WALAGE KAVI23000000000000000050000SLR7010671000007040598SRI JAYA' PURA EDUCA                  2014-6675409181205000000
00000222049200127194126MABULAGE OSHADI KAVI23000000000000000050000SLR7010671000007040598SRI JAYA' PURA EDUCA                  2014-6680011181205000000
00000222196200153904012CHAMATH SANKALPA BEN23000000000000000050000SLR7010671000007040598SRI JAYA' PURA EDUCA                  2014-6680380181205000000
00000222196200160028345HANDAPANGODA MUDALIG23000000000000000050000SLR7010671000007040598SRI JAYA' PURA EDUCA                  2014-6681930181205000000
00000222229200160001799KALUTHANTHRIGE SANDA23000000000000000050000SLR7010671000007040598SRI JAYA' PURA EDUCA                  2014-6810829181205000000
00000222196200180018869KETAGODA GAMAGE THEW23000000000000000050000SLR7010671000007040598SRI JAYA' PURA EDUCA                  2014-6821839181205000000
00000222229200140022241POLWATHTHAGE DEVDUNU23000000000000000050000SLR7010671000007040598SRI JAYA' PURA EDUCA                  2014-6823092181205000000
00000222196200160000950THILAKSHANA SATHSARA23000000000000000050000SLR7010671000007040598SRI JAYA' PURA EDUCA                  2014-6823203181205000000
00000222196200180000949THEEKSHANA NETHSARA 23000000000000000050000SLR7010671000007040598SRI JAYA' PURA EDUCA                  2014-6823254181205000000
00000222196200120020346MORALIYAGE DONA NEHA23000000000000000050000SLR7010671000007040598SRI JAYA' PURA EDUCA                  2014-6823718181205000000
00000222439200110032228MANANNALAGE AMEESHA 23000000000000000050000SLR7010671000007040598SRI JAYA' PURA EDUCA                  2014-6830714181205000000
00000222439200100032144HEWASINGHAGE NETHRA 23000000000000000050000SLR7010671000007040598SRI JAYA' PURA EDUCA                  2014-6831427181205000000
00000222439900173380368KUMARAGE WATHTHAGE T23000000000000000050000SLR7010671000007040598SRI JAYA' PURA EDUCA                  2014-6832210181205000000
00000222439920015003226KUMARAPELI ARACHCHIL23000000000000000050000SLR7010671000007040598SRI JAYA' PURA EDUCA                  2014-6832296181205000000
00000222439200103380705SUBASINGHE ARACHCHIG23000000000000000050000SLR7010671000007040598SRI JAYA' PURA EDUCA                  2014-6832482181205000000
00000222093200100013382DEDIGAMUWAGE SAKUNI 23000000000000000050000SLR7010671000007040598SRI JAYA' PURA EDUCA                  2014-6833110181205000000
00000222071200113346502HABARAGAMU RALALAGE 23000000000000000050000SLR7010671000007040598SRI JAYA' PURA EDUCA                  2014-6862071181205000000
00000222055200110033274WICKRAMA ARACHCHIGE 23000000000000000050000SLR7010671000007040598SRI JAYA' PURA EDUCA                  2014-6917666181205000000
00000222191001140005984MADALAGAMA APPUHAMIL23000000000000000050000SLR7010671000007040598SRI JAYA' PURA EDUCA                  2014-6922252181205000000
00000222191200110004113BUTHPITIYA LEKAMLAGE23000000000000000050000SLR7010671000007040598SRI JAYA' PURA EDUCA                  2014-6922279181205000000
00000222191200188229479GEESHAN ASHINSHANA S23000000000000000050000SLR7010671000007040598SRI JAYA' PURA EDUCA                  2014-6958117181205000000
00000222322200110014896HERATH MUDIYANSELAGE23000000000000000050000SLR7010671000007040598SRI JAYA' PURA EDUCA                  2015-2889897181205000000
00000222196200110023393MALAGE NAWEEN DHANAN23000000000000000050000SLR7010671000007040598SRI JAYA' PURA EDUCA                  2016-5164206181205000000
00000222196200160015499YASIRU MANODYA AMARA23000000000000000050000SLR7010671000007040598SRI JAYA' PURA EDUCA                  2016-5169410181205000000
00000222196200110015595NANAYAKKARAWASAM WER23000000000000000050000SLR7010671000007040598SRI JAYA' PURA EDUCA                  2016-5170206181205000000
00000222196200160001968RELAPANAGE SAKYA GIM23000000000000000050000SLR7010671000007040598SRI JAYA' PURA EDUCA                  2016-5170249181205000000
00000222196200190002344MAHA MENDIGE SEHAN S23000000000000000050000SLR7010671000007040598SRI JAYA' PURA EDUCA                  2016-5463394181205000000
00000222196200100027711OSHITHA UDAM ALWIS W23000000000000000050000SLR7010671000007040598SRI JAYA' PURA EDUCA                  2017-1178598181205000000
00000222196200230000130WELGAMA KANKANAMALAG23000000000000000050000SLR7010671000007040598SRI JAYA' PURA EDUCA                  2017-1180851181205000000
00000222228200130021248KESELWATTA GAM ACHAR23000000000000000050000SLR7010671000007040598SRI JAYA' PURA EDUCA                  2011-5161037181205000000
00000222228200170024067KODITHUWAKKU THARUSH23000000000000000050000SLR7010671000007040598SRI JAYA' PURA EDUCA                  2011-5165717181205000000
00000222228200150024474DISSANAYAKA MUDIYANS23000000000000000050000SLR7010671000007040598SRI JAYA' PURA EDUCA                  2011-5188776181205000000
00000222228200190010093WIJESOORIYA ARACHCHI23000000000000000050000SLR7010671000007040598SRI JAYA' PURA EDUCA                  2011-5194229181205000000
00000222228200150024252KANAHALA GAMAGE SANU23000000000000000050000SLR7010671000007040598SRI JAYA' PURA EDUCA                  2011-5197813181205000000
00000222228200130024026NANIMI ACHCHIGE DONA23000000000000000050000SLR7010671000007040598SRI JAYA' PURA EDUCA                  2011-5204259181205000000
00000222228200160024077WEDUMPULI ACHCHIGE D23000000000000000050000SLR7010671000007040598SRI JAYA' PURA EDUCA                  2011-5230977181205000000
00000222228200190024250PATHIRAGE MADHUSHI H23000000000000000050000SLR7010671000007040598SRI JAYA' PURA EDUCA                  2011-5238269181205000000
00000222228200100010115PETIKIRI ARACHCHIGE 23000000000000000050000SLR7010671000007040598SRI JAYA' PURA EDUCA                  2011-5285518181205000000
00000222228200130024045DASANAYAKAGE KRISHAN23000000000000000050000SLR7010671000007040598SRI JAYA' PURA EDUCA                  2011-5288711181205000000
00000222228200170024086MADDAGE DULANGA THIL23000000000000000050000SLR7010671000007040598SRI JAYA' PURA EDUCA                  2011-5288827181205000000
00000222228200180020921KURUPPU ACHCHIGE CHA23000000000000000050000SLR7010671000007040598SRI JAYA' PURA EDUCA                  2011-5289700181205000000
00000222228200150010066NANAYAKKARAWASAM GOD23000000000000000050000SLR7010671000007040598SRI JAYA' PURA EDUCA                  2011-5301750181205000000
00000222228200170024326RAMANAYAKALAGE DESHA23000000000000000050000SLR7010671000007040598SRI JAYA' PURA EDUCA                  2011-5304202181205000000
00000222228200100024424DEWAGE PRABHASHINI S23000000000000000050000SLR7010671000007040598SRI JAYA' PURA EDUCA                  2011-5307864181205000000
00000222228200140024115KODITHUWAKKU MADDAGE23000000000000000050000SLR7010671000007040598SRI JAYA' PURA EDUCA                  2011-5307910181205000000
00000222228200170024086KALATUWAWA HEWAWASAM23000000000000000050000SLR7010671000007040598SRI JAYA' PURA EDUCA                  2011-5312914181205000000
00000222228200140024064RANTHOTIGE DUSHANI N23000000000000000050000SLR7010671000007040598SRI JAYA' PURA EDUCA                  2011-5313325181205000000
00000222228200160023959BUDDHI NIMASHA RAMAN23000000000000000050000SLR7010671000007040598SRI JAYA' PURA EDUCA                  2011-5314887181205000000
00000222228200120024263WEERAKOON ACHCHIGE I23000000000000000050000SLR7010671000007040598SRI JAYA' PURA EDUCA                  2011-5642370181205000000
00000222228200160010056HEWAGE NAVODI SAUMYA23000000000000000050000SLR7010671000007040598SRI JAYA' PURA EDUCA                  2011-5650291181205000000
00000222228620010001020GINIMALAGE MALITH IN23000000000000000050000SLR7010671000007040598SRI JAYA' PURA EDUCA                  2011-5666686181205000000
00000222228200130010114MURUTHEN APPUGE THAS23000000000000000050000SLR7010671000007040598SRI JAYA' PURA EDUCA                  2011-6272142181205000000
00000222228200160012499HETTIARACHCHIGE ISUM23000000000000000050000SLR7010671000007040598SRI JAYA' PURA EDUCA                  2012-1176358181205000000
00000222228200100012459BELIGAHAMULAGE NAWOD23000000000000000050000SLR7010671000007040598SRI JAYA' PURA EDUCA                  2012-1182951181205000000
00000222228200140012626PITUMPE ARACHCHIGE K23000000000000000050000SLR7010671000007040598SRI JAYA' PURA EDUCA                  2012-1183273181205000000
00000222228200110012699KANKANIGE OSHADA CHA23000000000000000050000SLR7010671000007040598SRI JAYA' PURA EDUCA                  2012-1195816181205000000
00000222228200130012716DON GARUKA METHMAN S23000000000000000050000SLR7010671000007040598SRI JAYA' PURA EDUCA                  2012-1195921181205000000
00000222228200140001253JAYAKODY ARACHCHIGE 23000000000000000050000SLR7010671000007040598SRI JAYA' PURA EDUCA                  2012-1196006181205000000
00000222228200170012601ARUNDI GEESARANI WED23000000000000000050000SLR7010671000007040598SRI JAYA' PURA EDUCA                  2012-1198378181205000000
00000222228200160012625HEWASAM GAMAGE SAMAD23000000000000000050000SLR7010671000007040598SRI JAYA' PURA EDUCA                  2012-1198394181205000000
00000222228200160017842WEERASINGHA MUDIYANS23000000000000000050000SLR7010671000007040598SRI JAYA' PURA EDUCA                  2012-1202502181205000000
00000222228200110012920SAMARASINGHE HEWAGE 23000000000000000050000SLR7010671000007040598SRI JAYA' PURA EDUCA                  2012-1207229181205000000
00000222228200120012651KUMARA UNNEHELAGE DO23000000000000000050000SLR7010671000007040598SRI JAYA' PURA EDUCA                  2012-1207253181205000000
00000222228200190012596THRIMANNA HETTIGE DO23000000000000000050000SLR7010671000007040598SRI JAYA' PURA EDUCA                  2012-1207385181205000000
00000222228200220521054KANANKE GAMAGE SAVIN23000000000000000050000SLR7010671000007040598SRI JAYA' PURA EDUCA                  2012-1239783181205000000
00000222228200140012909NADHUNI DILHARA WEER23000000000000000050000SLR7010671000007040598SRI JAYA' PURA EDUCA                  2012-1239856181205000000
00000222228200120012646MALKI SUBODHA WICKRA23000000000000000050000SLR7010671000007040598SRI JAYA' PURA EDUCA                  2012-1239899181205000000
00000222228200120012887ALAHAPPERUMA ARACHCH23000000000000000050000SLR7010671000007040598SRI JAYA' PURA EDUCA                  2012-1245368181205000000
00000222228200190012488RAJAKARUNA WICKRAMAS23000000000000000050000SLR7010671000007040598SRI JAYA' PURA EDUCA                  2012-1247751181205000000
00000222228200120012458GALLAGE NETHMI SANDE23000000000000000050000SLR7010671000007040598SRI JAYA' PURA EDUCA                  2012-1291726181205000000
00000222228200220012655MERIGNGNAGE MALEESHA23000000000000000050000SLR7010671000007040598SRI JAYA' PURA EDUCA                  2012-1292544181205000000
00000222228200170012781MANANKANDALAGE ANURA23000000000000000050000SLR7010671000007040598SRI JAYA' PURA EDUCA                  2012-1294156181205000000
00000222228200110012492HEWAWASAM PUWAKPITIY23000000000000000050000SLR7010671000007040598SRI JAYA' PURA EDUCA                  2012-1297694181205000000
00000222228200180012926KOTTE ACHARIGE PASIN23000000000000000050000SLR7010671000007040598SRI JAYA' PURA EDUCA                  2012-1309722181205000000
00000222228200100025008LELWALA LIYANAGE LAS23000000000000000050000SLR7010671000007040598SRI JAYA' PURA EDUCA                  2012-1312464181205000000
00000222228200150012923KRISHAN PRAVEEN SURI23000000000000000050000SLR7010671000007040598SRI JAYA' PURA EDUCA                  2012-1312774181205000000
00000222228200110012717GAMAGE SEWMINI ASHIN23000000000000000050000SLR7010671000007040598SRI JAYA' PURA EDUCA                  2012-1316583181205000000
00000222228200160012673    NETHMI WITHANAGE23000000000000000050000SLR7010671000007040598SRI JAYA' PURA EDUCA                  2012-1667610181205000000
00000222228200180012889JASENTU KANKANAMGE S23000000000000000050000SLR7010671000007040598SRI JAYA' PURA EDUCA                  2012-2074923181205000000
00000222228200270012950LAHIRUNI HANSAMALI M23000000000000000050000SLR7010671000007040598SRI JAYA' PURA EDUCA                  2012-2243172181205000000
00000222228200190014915ALAHAKOON ARACHCHIGE23000000000000000050000SLR7010671000007040598SRI JAYA' PURA EDUCA                  2013-4167589181205000000
00000222228200120014914MAYADUNNAGE DON PASI23000000000000000050000SLR7010671000007040598SRI JAYA' PURA EDUCA                  2013-4169905181205000000
00000222228200160014993KATTADIGE GAWRI PAVI23000000000000000050000SLR7010671000007040598SRI JAYA' PURA EDUCA                  2013-4170695181205000000
00000222228200190016839MUNASINHA NUWANSHI T23000000000000000050000SLR7010671000007040598SRI JAYA' PURA EDUCA                  2013-4182669181205000000
00000222228200107624292INDURUWAGE MANUGI KA23000000000000000050000SLR7010671000007040598SRI JAYA' PURA EDUCA                  2013-4182693181205000000
00000222228200186865349MANNALAGE PASINDU SU23000000000000000050000SLR7010671000007040598SRI JAYA' PURA EDUCA                  2013-4182910181205000000
00000222228200120015466WETHTHASINGHE LIYANA23000000000000000050000SLR7010671000007040598SRI JAYA' PURA EDUCA                  2013-4182987181205000000
00000222228200170015416ABEYSINGHE ARACHCHIG23000000000000000050000SLR7010671000007040598SRI JAYA' PURA EDUCA                  2013-4183070181205000000
00000222228200130014999SUWANDA ARACHCHIGE P23000000000000000050000SLR7010671000007040598SRI JAYA' PURA EDUCA                  2013-4186869181205000000
00000222228200140014970RATHUMUNI HEVA USHAN23000000000000000050000SLR7010671000007040598SRI JAYA' PURA EDUCA                  2013-4189760181205000000
00000222228200140015286KUDA LIYANAGE DON SA23000000000000000050000SLR7010671000007040598SRI JAYA' PURA EDUCA                  2013-4201558181205000000
00000222228200160015544HADUNNETHTHIGE YASOD23000000000000000050000SLR7010671000007040598SRI JAYA' PURA EDUCA                  2013-4226364181205000000
00000222228200170014916WEERASINGHE MUDIYANS23000000000000000050000SLR7010671000007040598SRI JAYA' PURA EDUCA                  2013-4227522181205000000
00000222228200130015022WIJESEKARA GUNAWARDA23000000000000000050000SLR7010671000007040598SRI JAYA' PURA EDUCA                  2013-4292928181205000000
00000222228200120014966JAYASINGHA PATHIRANA23000000000000000050000SLR7010671000007040598SRI JAYA' PURA EDUCA                  2013-4298748181205000000
00000222228200180014973ATHTHIDIYA WIDANALAG23000000000000000050000SLR7010671000007040598SRI JAYA' PURA EDUCA                  2013-4304268181205000000
00000222228200170015001EKANAYAKA MUDIYANSEL23000000000000000050000SLR7010671000007040598SRI JAYA' PURA EDUCA                  2013-4317165181205000000
00000222228200150015002EKANAYAKA MUDIYANSEL23000000000000000050000SLR7010671000007040598SRI JAYA' PURA EDUCA                  2013-4317173181205000000
00000222228200190016815AYANA UTHSARA WICKRA23000000000000000050000SLR7010671000007040598SRI JAYA' PURA EDUCA                  2014-6689124181205000000
00000222228200130016837GALAGEDARAGE DON JAN23000000000000000050000SLR7010671000007040598SRI JAYA' PURA EDUCA                  2014-6689272181205000000
00000222228200250024138SAUN HANDIGE POORNA 23000000000000000050000SLR7010671000007040598SRI JAYA' PURA EDUCA                  2014-6689329181205000000
00000222228200160016826NIRMITHA WICHAKSHANA23000000000000000050000SLR7010671000007040598SRI JAYA' PURA EDUCA                  2014-6689388181205000000
00000222228200160016812THARUSHI NETHMINI GA23000000000000000050000SLR7010671000007040598SRI JAYA' PURA EDUCA                  2014-6689515181205000000
00000222228200180016825INDURUWE ARACHCHILAG23000000000000000050000SLR7010671000007040598SRI JAYA' PURA EDUCA                  2014-6689540181205000000
00000222228200270016811BALLANTHUDA ACHCHIGE23000000000000000050000SLR7010671000007040598SRI JAYA' PURA EDUCA                  2014-6689701181205000000
00000222228200160016751MAKULUKOTUNNAGE AKIL23000000000000000050000SLR7010671000007040598SRI JAYA' PURA EDUCA                  2014-6690190181205000000
00000222228200140018553KALUTHANTHRIGE SENUT23000000000000000050000SLR7010671000007040598SRI JAYA' PURA EDUCA                  2014-6691331181205000000
00000222228200160018552KALUTHANTHRIGE OMETH23000000000000000050000SLR7010671000007040598SRI JAYA' PURA EDUCA                  2014-6691340181205000000
00000222228200170016760MANUWELGE DON MELANI23000000000000000050000SLR7010671000007040598SRI JAYA' PURA EDUCA                  2014-6697330181205000000
00000222228200140016988UMANGE LASINDI MANUD23000000000000000050000SLR7010671000007040598SRI JAYA' PURA EDUCA                  2014-6700438181205000000
00000222228200140016752THAVINDANA RAJAGIRIY23000000000000000050000SLR7010671000007040598SRI JAYA' PURA EDUCA                  2014-6791115181205000000
00000222228200120016753WANNI ACHCHIGE HASHI23000000000000000050000SLR7010671000007040598SRI JAYA' PURA EDUCA                  2014-6796893181205000000
00000222228200120016767DILASHA PIUMALI LIYA23000000000000000050000SLR7010671000007040598SRI JAYA' PURA EDUCA                  2014-6798195181205000000
00000222228200140016766JAYALATHGE HASHINI E23000000000000000050000SLR7010671000007040598SRI JAYA' PURA EDUCA                  2014-6798381181205000000
00000222228200160016992KOTHALAWALAGE YASIRU23000000000000000050000SLR7010671000007040598SRI JAYA' PURA EDUCA                  2014-6798810181205000000
00000222228200120016989IMBULGODA GAMAGE JAN23000000000000000050000SLR7010671000007040598SRI JAYA' PURA EDUCA                  2014-6808034181205000000
00000222228200180016991MUDAGAN SARUKKALIGE 23000000000000000050000SLR7010671000007040598SRI JAYA' PURA EDUCA                  2014-6812635181205000000
00000222228200130016762PANAKOORA KANKANAMAL23000000000000000050000SLR7010671000007040598SRI JAYA' PURA EDUCA                  2014-6813496181205000000
00000222228200170016755KUMARAGE THARUSHI TH23000000000000000050000SLR7010671000007040598SRI JAYA' PURA EDUCA                  2014-6813810181205000000
00000222228200150016756KALATUWAVAGE MALEESH23000000000000000050000SLR7010671000007040598SRI JAYA' PURA EDUCA                  2014-6815693181205000000
00000222228200160016770MALAGAMMANA DUNUKEPO23000000000000000050000SLR7010671000007040598SRI JAYA' PURA EDUCA                  2014-6815987181205000000
00000222228200130016776KATHTHRIACHCHI PINNA23000000000000000050000SLR7010671000007040598SRI JAYA' PURA EDUCA                  2014-6820280181205000000
00000222228200100016754ALLINA LOKUGE NIMSAR23000000000000000050000SLR7010671000007040598SRI JAYA' PURA EDUCA                  2014-6821111181205000000
00000222228200110016758RAMPATI DEWAGE THARU23000000000000000050000SLR7010671000007040598SRI JAYA' PURA EDUCA                  2014-6821383181205000000
00000222228200170016779SENADHEERAGE NOHOTH 23000000000000000050000SLR7010671000007040598SRI JAYA' PURA EDUCA                  2014-6831362181205000000
00000222228200150016836KANAKKU HEWAGE KESHA23000000000000000050000SLR7010671000007040598SRI JAYA' PURA EDUCA                  2014-8831114181205000000
00000222228200140018510YADDEHIGE DISULI YUN23000000000000000050000SLR7010671000007040598SRI JAYA' PURA EDUCA                  2015-1174452181205000000
00000222228200140018384SARUWA BANDAGE SUBAT23000000000000000050000SLR7010671000007040598SRI JAYA' PURA EDUCA                  2015-1174843181205000000
00000222228200360018631KAVITHMA DULNETHMI W23000000000000000050000SLR7010671000007040598SRI JAYA' PURA EDUCA                  2015-1190296181205000000
00000222228200190018621DISSANAYAKA MUDIYANS23000000000000000050000SLR7010671000007040598SRI JAYA' PURA EDUCA                  2015-1190431181205000000
00000222228200150018543BALASOORIYA WIMALAWI23000000000000000050000SLR7010671000007040598SRI JAYA' PURA EDUCA                  2015-1191500181205000000
00000222228200150019769PAHALA WITHANAGE DIN23000000000000000050000SLR7010671000007040598SRI JAYA' PURA EDUCA                  2015-1197304181205000000
00000222228200100018507PAHALA WITHANAGE DIL23000000000000000050000SLR7010671000007040598SRI JAYA' PURA EDUCA                  2015-1197312181205000000
00000222228200130018515BOPAGE SATHIKA MEDIN23000000000000000050000SLR7010671000007040598SRI JAYA' PURA EDUCA                  2015-1200240181205000000
00000222228200140018529HEWA PATHIRANAGE MEN23000000000000000050000SLR7010671000007040598SRI JAYA' PURA EDUCA                  2015-1208136181205000000
00000222228200250018514BULATHSINHALA ARACHC23000000000000000050000SLR7010671000007040598SRI JAYA' PURA EDUCA                  2015-1208896181205000000
00000222228200120018511PORAGE DONA MENUSHI 23000000000000000050000SLR7010671000007040598SRI JAYA' PURA EDUCA                  2015-1235419181205000000
00000222228200100018512SOMANANDA APPUHAMILL23000000000000000050000SLR7010671000007040598SRI JAYA' PURA EDUCA                  2015-1235940181205000000
00000222228200180018513KARIYAWASAM THIRANA 23000000000000000050000SLR7010671000007040598SRI JAYA' PURA EDUCA                  2015-1290410181205000000
00000222228001600185509DEWAMUNI SASHANDI SA23000000000000000050000SLR7010671000007040598SRI JAYA' PURA EDUCA                  2015-1292277181205000000
00000222228200120018530LIYANA ARACHCHI PATA23000000000000000050000SLR7010671000007040598SRI JAYA' PURA EDUCA                  2015-1292978181205000000
00000222228200190018541DERANIYAGALAGE HESAR23000000000000000050000SLR7010671000007040598SRI JAYA' PURA EDUCA                  2015-1300032181205000000
00000222228200130018520THISENI WEERASINGHA 23000000000000000050000SLR7010671000007040598SRI JAYA' PURA EDUCA                  2015-1312375181205000000
00000222228200170018518NARADDE GAMAGE PAVAN23000000000000000050000SLR7010671000007040598SRI JAYA' PURA EDUCA                  2015-1312413181205000000
00000222228200130018539KALAMULLA ARACHCHIGE23000000000000000050000SLR7010671000007040598SRI JAYA' PURA EDUCA                  2015-1337360181205000000
00000222228200160018533MANONDRA ACHARIGE TH23000000000000000050000SLR7010671000007040598SRI JAYA' PURA EDUCA                  2015-3814645181205000000
00000222228200110021019RATHNAYAKA MUDIYANSE23000000000000000050000SLR7010671000007040598SRI JAYA' PURA EDUCA                  2016-5151643181205000000
00000222228200110020963UMANGE HIRUKA THEWJA23000000000000000050000SLR7010671000007040598SRI JAYA' PURA EDUCA                  2016-5189209181205000000
00000222228200190021746WANIGASEKARA MUDIYAN23000000000000000050000SLR7010671000007040598SRI JAYA' PURA EDUCA                  2016-5197708181205000000
00000222228200150021404MARAPPULIGE NADUN KA23000000000000000050000SLR7010671000007040598SRI JAYA' PURA EDUCA                  2016-5197970181205000000
00000222228200180021723MORAGAMMANE GEDERA D23000000000000000050000SLR7010671000007040598SRI JAYA' PURA EDUCA                  2016-5198100181205000000
00000222228200100021604SIRIBADDANA KANKANAM23000000000000000050000SLR7010671000007040598SRI JAYA' PURA EDUCA                  2016-5198127181205000000
00000222228200120021009LIYANAGE ROMETH BATH23000000000000000050000SLR7010671000007040598SRI JAYA' PURA EDUCA                  2016-5198429181205000000
00000222228200160021007NAYANABADUGE SANDARU23000000000000000050000SLR7010671000007040598SRI JAYA' PURA EDUCA                  2016-5208386181205000000
00000222228200170022742KUDA LIYANAGE DONA K23000000000000000050000SLR7010671000007040598SRI JAYA' PURA EDUCA                  2016-5208866181205000000
00000222228200150021003HETTIARACHCHILAGE SH23000000000000000050000SLR7010671000007040598SRI JAYA' PURA EDUCA                  2016-5294371181205000000
00000222228001700021016ASURAGE CHANNA GAYAN23000000000000000050000SLR7010671000007040598SRI JAYA' PURA EDUCA                  2016-5313198181205000000
00000222228200120021014THAMMATI GEDARA DILS23000000000000000050000SLR7010671000007040598SRI JAYA' PURA EDUCA                  2016-5317274181205000000
00000222228200110022226PANNILAGE RAVITHA PA23000000000000000050000SLR7010671000007040598SRI JAYA' PURA EDUCA                  2016-5318963181205000000
00000222228200140022748MESTI ARACHCHIGE NES23000000000000000050000SLR7010671000007040598SRI JAYA' PURA EDUCA                  2016-5320658181205000000
00000222228200180021011YADDEHIGE DON VETHUM23000000000000000050000SLR7010671000007040598SRI JAYA' PURA EDUCA                  2016-5329175181205000000
00000222228200100022750SELLAHANNADI SENURI 23000000000000000050000SLR7010671000007040598SRI JAYA' PURA EDUCA                  2016-6351018181205000000
00000222228200100023033PITAKOTTE MERIGNGNAG23000000000000000050000SLR7010671000007040598SRI JAYA' PURA EDUCA                  2017-1172859181205000000
00000222228200180023374WALAWE DURAGE OPULI 23000000000000000050000SLR7010671000007040598SRI JAYA' PURA EDUCA                  2017-1174983181205000000
00000222228200100023028LIYANAPATHIRANALAGE 23000000000000000050000SLR7010671000007040598SRI JAYA' PURA EDUCA                  2017-1176382181205000000
00000222228200120023027LIYANAPATHIRANALAGE 23000000000000000050000SLR7010671000007040598SRI JAYA' PURA EDUCA                  2017-1176390181205000000
00000222228200110022373KULATHUNGAGE YOHAN T23000000000000000050000SLR7010671000007040598SRI JAYA' PURA EDUCA                  2017-1197568181205000000
00000222228200120023065GAMAGE RASHINI SANJA23000000000000000050000SLR7010671000007040598SRI JAYA' PURA EDUCA                  2017-1197720181205000000
00000222228200190023378LABUGAMAGE CHINTHANI23000000000000000050000SLR7010671000007040598SRI JAYA' PURA EDUCA                  2017-1197797181205000000
00000222228200180023029LEKAM WASAM AMARASIR23000000000000000050000SLR7010671000007040598SRI JAYA' PURA EDUCA                  2017-1201719181205000000
00000222228200190023024WALAWVITA KANKANAMGE23000000000000000050000SLR7010671000007040598SRI JAYA' PURA EDUCA                  2017-1291912181205000000
00000222228200190023038RANASINGHE WEERAKKOD23000000000000000050000SLR7010671000007040598SRI JAYA' PURA EDUCA                  2017-1296434181205000000
00000222228200120023032THEBUWATHTHA GAMARAL23000000000000000050000SLR7010671000007040598SRI JAYA' PURA EDUCA                  2017-1303210181205000000
00000222228200170023020UDAKADAGE KANISHKA S23000000000000000050000SLR7010671000007040598SRI JAYA' PURA EDUCA                  2017-1320505181205000000
00000222228200130023041RANATHUNGA ARACHCHIG23000000000000000050000SLR7010671000007040598SRI JAYA' PURA EDUCA                  2017-1321382181205000000
00000222228200140023026WARUSHA HENNADIGE KA23000000000000000050000SLR7010671000007040598SRI JAYA' PURA EDUCA                  2017-1331388181205000000
00000222228200160023025BORALA ADPPA GODAGE 23000000000000000050000SLR7010671000007040598SRI JAYA' PURA EDUCA                  2017-1332864181205000000
00000222228200150023021UDUWARAGE DIMUTH SAN23000000000000000050000SLR7010671000007040598SRI JAYA' PURA EDUCA                  2017-1333070181205000000
