00007010783000076503095WIJEKOON MUDIYANSELA23000000000000000050000SLR7010671000007040598SRI JAYA' PURA EDUCA                  2017-2790947181227000000
00007010746000071411314APPUGE THARINDU SHIR23000000000000000050000SLR7010671000007040598SRI JAYA' PURA EDUCA                  2010-1165534181227000000
00007010746000081107465SASIKA UMAL WEERASIN23000000000000000050000SLR7010671000007040598SRI JAYA' PURA EDUCA                  2010-1198203181227000000
00007010746000073192988RANAPURA DEWAGE DENE23000000000000000050000SLR7010671000007040598SRI JAYA' PURA EDUCA                  2011-5146577181227000000
00007010746000073048753DINUKA SHAVINDA DERA23000000000000000050000SLR7010671000007040598SRI JAYA' PURA EDUCA                  2011-5146909181227000000
00007010746000007722120SUDU HAKURU DEWAGE I23000000000000000050000SLR7010671000007040598SRI JAYA' PURA EDUCA                  2011-5146666181227000000
00007010746000072983154KOLAMBA MODARA PARAN23000000000000000050000SLR7010671000007040598SRI JAYA' PURA EDUCA                  2011-5165342181227000000
00007010746000073227683JAYAWEERA PATABENDIG23000000000000000050000SLR7010671000007040598SRI JAYA' PURA EDUCA                  2011-5146640181227000000
00007010746000073232378WALPOLA LIYANAGE SAN23000000000000000050000SLR7010671000007040598SRI JAYA' PURA EDUCA                  2011-5048168181227000000
00007010746000071503916 SIVAKUMAR RAVISHKAR23000000000000000050000SLR7010671000007040598SRI JAYA' PURA EDUCA                  2012-1156993181227000000
00007010746000074395060NAMALGE GAMINDA GAYA23000000000000000050000SLR7010671000007040598SRI JAYA' PURA EDUCA                  2012-1157345181227000000
00007010746000074451313DON DASUN SANDEEPA V23000000000000000050000SLR7010671000007040598SRI JAYA' PURA EDUCA                  2012-1157469181227000000
00007010746000073327926WELLALAGE DON CHANDA23000000000000000050000SLR7010671000007040598SRI JAYA' PURA EDUCA                  2012-1156900181227000000
00007010746000073864646LAMPAPUGE THEEKSHANA23000000000000000050000SLR7010671000007040598SRI JAYA' PURA EDUCA                  2012-1157094181227000000
00007010746000074351802HAPUARACHCHILAGE IRU23000000000000000050000SLR7010671000007040598SRI JAYA' PURA EDUCA                  2012-1493302181227000000
00007010746000074311252LOKU HETTI ARACHCHIG23000000000000000050000SLR7010671000007040598SRI JAYA' PURA EDUCA                  2012-1178830181227000000
00007010746000074321161PALANIYANDI CHANDRAS23000000000000000050000SLR7010671000007040598SRI JAYA' PURA EDUCA                  2012-1039687181227000000
00007010746000075846619DON UCHITHA IDURANGA23000000000000000050000SLR7010671000007040598SRI JAYA' PURA EDUCA                  2013-4141962181227000000
00007010746000075947913JAYASINGHA MUDIYANSE23000000000000000050000SLR7010671000007040598SRI JAYA' PURA EDUCA                  2013-4286790181227000000
00007010746000075546289KALUWA DEWA KAVINDU 23000000000000000050000SLR7010671000007040598SRI JAYA' PURA EDUCA                  2013-4981138181227000000
00007010746000075927381KALUARACHCHILAGE KAV23000000000000000050000SLR7010671000007040598SRI JAYA' PURA EDUCA                  2013-4457617181227000000
00007010746000077110742CHANDULA DULNETH ABE23000000000000000050000SLR7010671000007040598SRI JAYA' PURA EDUCA                  2014-6995470181227000000
00007010746000077110943PATHIRAJA MUDIYANSEL23000000000000000050000SLR7010671000007040598SRI JAYA' PURA EDUCA                  2014-6667520181227000000
00007010746000077110596SIYAMBALAPA KANKANAM23000000000000000050000SLR7010671000007040598SRI JAYA' PURA EDUCA                  2014-6683282181227000000
00007010746000077163037DISSANAYAKA MUDIYANS23000000000000000050000SLR7010671000007040598SRI JAYA' PURA EDUCA                  2014-6681727181227000000
00007010746000077124848THUDUHENAGE CHELAKA 23000000000000000050000SLR7010671000007040598SRI JAYA' PURA EDUCA                  2014-6683037181227000000
00007010746000077110156WIJESINGHA ARACHCHIG23000000000000000050000SLR7010671000007040598SRI JAYA' PURA EDUCA                  2014-6719740181227000000
00007010746000077109484KAHANDAWALA ARACHCHI23000000000000000050000SLR7010671000007040598SRI JAYA' PURA EDUCA                  2014-6717098181227000000
00007010746000077386624HORANA ARACHCHIGE VE23000000000000000050000SLR7010671000007040598SRI JAYA' PURA EDUCA                  2014-6735100181227000000
00007010746000077499823THEVINDU NELANA THAL23000000000000000050000SLR7010671000007040598SRI JAYA' PURA EDUCA                  2014-6935907181227000000
00007010746000077624917VITHANALAGE NAVODYA 23000000000000000050000SLR7010671000007040598SRI JAYA' PURA EDUCA                  2014-6657249181227000000
00007010746000077729842BAMUNU ARACHCHIGE UT23000000000000000050000SLR7010671000007040598SRI JAYA' PURA EDUCA                  2014-6667538181227000000
00007010746000078526271EDIRI ARACHCHIGE POO23000000000000000050000SLR7010671000007040598SRI JAYA' PURA EDUCA                  2014-6667376181227000000
00007010746000077155881THISAN DAMSITH WEERA23000000000000000050000SLR7010671000007040598SRI JAYA' PURA EDUCA                  2014-6668577181227000000
00007010746000078680155POLGAMPALAGE HIRUSHA23000000000000000050000SLR7010671000007040598SRI JAYA' PURA EDUCA                  2015-1159682181227000000
00007010746000078613110PATHIRAJAWASAM KUDAH23000000000000000050000SLR7010671000007040598SRI JAYA' PURA EDUCA                  2015-1020234181227000000
00007010746000078637341HEWA LOKUGE SINETH K23000000000000000050000SLR7010671000007040598SRI JAYA' PURA EDUCA                  2015-1146815181227000000
00007010746000080302924KANKANAM GAMAGE TIME23000000000000000050000SLR7010671000007040598SRI JAYA' PURA EDUCA                  2016-5178541181227000000
00007010746000080379545ESHAN MISHARA RANASI23000000000000000050000SLR7010671000007040598SRI JAYA' PURA EDUCA                  2016-5145929181227000000
00007010746000080373501DON SAMARANAYAKA RAJ23000000000000000050000SLR7010671000007040598SRI JAYA' PURA EDUCA                  2016-5145988181227000000
00007010723000076504954KIRIHENA APPUHAMILAG23000000000000000050000SLR7010671000007040598SRI JAYA' PURA EDUCA                  2017-1219260181227000000
00007010049000083318271KALUKAPUGE BINARI SA23000000000000000050000SLR7010671000007040598SRI JAYA' PURA EDUCA                  2014-6742335181227000000
00007010049000083327832ARSHA MARAKKALAGE DI23000000000000000050000SLR7010671000007040598SRI JAYA' PURA EDUCA                  2014-6724701181227000000
00007010049000083314198KARIYAPPERUMAGE RASH23000000000000000050000SLR7010671000007040598SRI JAYA' PURA EDUCA                  2013-4138120181227000000
00007010049000083314544THALAGALAGE AYOMI MA23000000000000000050000SLR7010671000007040598SRI JAYA' PURA EDUCA                  2010-1163337181227000000
00007010049000083327832KOLLONNE ARACHCHIGE 23000000000000000050000SLR7010671000007040598SRI JAYA' PURA EDUCA                  2010-1188011181227000000
00007010049000080901857LATHPADURAGE JANITHY23000000000000000050000SLR7010671000007040598SRI JAYA' PURA EDUCA                  2010-1235958181227000000
00007010049000080238662NAWRNA BADDAGE TAMAD23000000000000000050000SLR7010671000007040598SRI JAYA' PURA EDUCA                  2016-5290554181227000000
00007010049000080259464HINGURALAGE DON SENU23000000000000000050000SLR7010671000007040598SRI JAYA' PURA EDUCA                  2016-5320453181227000000
00007010049000080270937DONA SANDUNI HANSIKA23000000000000000050000SLR7010671000007040598SRI JAYA' PURA EDUCA                  2016-5148502181227000000
00007010049000080279165PASKUWAL HANDI MANEE23000000000000000050000SLR7010671000007040598SRI JAYA' PURA EDUCA                  2016-5140692181227000000
00007010049000799652277KASTHURI ARACHCHIGE 23000000000000000050000SLR7010671000007040598SRI JAYA' PURA EDUCA                  2016-5790379181227000000
00007010049000080278145VIDANALAGE RUHANSA S23000000000000000050000SLR7010671000007040598SRI JAYA' PURA EDUCA                  2016-5225205181227000000
00007010049000080360434THUPPAHIGE DHANANI S23000000000000000050000SLR7010671000007040598SRI JAYA' PURA EDUCA                  2016-5202663181227000000
00007010049000080396978KAPUWELLA GAMAGE JAY23000000000000000050000SLR7010671000007040598SRI JAYA' PURA EDUCA                  2016-6359914181227000000
00007010049000080373537WELIGALAGE DIWYA IMA23000000000000000050000SLR7010671000007040598SRI JAYA' PURA EDUCA                  2016-6467555181227000000
00007010049000080281952JAYASINGHE ARACHCHIG23000000000000000050000SLR7010671000007040598SRI JAYA' PURA EDUCA                  2016-5320682181227000000
00007010049000080304572SINGHA PURAGE PABASA23000000000000000050000SLR7010671000007040598SRI JAYA' PURA EDUCA                  2016-5314445181227000000
00007010049000080282619ADHEESHA IMANDI MURA23000000000000000050000SLR7010671000007040598SRI JAYA' PURA EDUCA                  2016-5224306181227000000
00007010049000075913365KANDALAMA KANKANAMAL23000000000000000050000SLR7010671000007040598SRI JAYA' PURA EDUCA                  2016-5181992181227000000
00007010049000080280613MULLAKANDAGE YURENI 23000000000000000050000SLR7010671000007040598SRI JAYA' PURA EDUCA                  2016-5304067181227000000
00007010049000080304685MALAGE DONA MALEESHA23000000000000000050000SLR7010671000007040598SRI JAYA' PURA EDUCA                  2016-5317436181227000000
00007010049000080269515WELPAHALA ARACHCHIGE23000000000000000050000SLR7010671000007040598SRI JAYA' PURA EDUCA                  2016-5209072181227000000
00007010049000080274991KARALAHEENGE THENUKI23000000000000000050000SLR7010671000007040598SRI JAYA' PURA EDUCA                  2016-5292972181227000000
00007010049000080280540KARUNA PEDIGE PRARTH23000000000000000050000SLR7010671000007040598SRI JAYA' PURA EDUCA                  2016-5320402181227000000
00007010049000080282800SAMARAPPULI HEWAGE N23000000000000000050000SLR7010671000007040598SRI JAYA' PURA EDUCA                  2016-5710383181227000000
00007010049000080406475HEWA KOKAWALAGE SITH23000000000000000050000SLR7010671000007040598SRI JAYA' PURA EDUCA                  2016-5447291181227000000
00007010757000003723308HINIDUMA APPUGE PAWA23000000000000000050000SLR7010671000007040598SRI JAYA' PURA EDUCA                  2014-6674682181227000000
00007010757000003723353RANASINGHE ARACHCHIG23000000000000000050000SLR7010671000007040598SRI JAYA' PURA EDUCA                  2014-6683487181227000000
00007010732000017932574LIYANA ATHUKORALALAG23000000000000000050000SLR7010671000007040598SRI JAYA' PURA EDUCA                  2014-6922481181227000000
00007010741000007734944GODAGAMA DURAYALAGE 23000000000000000050000SLR7010671000007040598SRI JAYA' PURA EDUCA                  2014-6819591181227000000
00007010741000075157616RAMANAYAKAGE SAMADHI23000000000000000050000SLR7010671000007040598SRI JAYA' PURA EDUCA                  2014-6823602181227000000
00007010608000072848032SUBHAWICKRAMA GAMAAR23000000000000000050000SLR7010671000007040598SRI JAYA' PURA EDUCA                  2014-6680941181227000000
00007010608000000579828RAMIDU SHENAL HETTIA23000000000000000050000SLR7010671000007040598SRI JAYA' PURA EDUCA                  2014-6959687181227000000
00007010608000071357392KIRIWATTUDUWAGE THAR23000000000000000050000SLR7010671000007040598SRI JAYA' PURA EDUCA                  2014-6680003181227000000
00007010530000001213920KANAMPELLE KANKANAMA23000000000000000050000SLR7010671000007040598SRI JAYA' PURA EDUCA                  2014-6830676181227000000
00007010530000075605218MITIPOLA ARACHCHIGE 23000000000000000050000SLR7010671000007040598SRI JAYA' PURA EDUCA                  2014-6832458181227000000
00007010608000083226066WANNI ARACHCHIGE SHI23000000000000000050000SLR7010671000007040598SRI JAYA' PURA EDUCA                  2014-6681786181227000000
00007010741000083261552KANDAOLUWA PATHIRANN23000000000000000050000SLR7010671000007040598SRI JAYA' PURA EDUCA                  2014-6923070181227000000
00007010642000006708200WALPOLA GAMARALALAGE23000000000000000050000SLR7010671000007040598SRI JAYA' PURA EDUCA                  2015-1545108181227000000
00007010049000078472737DEGIRIGE ANJANA NETH23000000000000000050000SLR7010671000007040598SRI JAYA' PURA EDUCA                  2015-1177370181227000000
00007010049000078472776NIMNA THUSHANI KANDA23000000000000000050000SLR7010671000007040598SRI JAYA' PURA EDUCA                  2015-1316435181227000000
00007010049000078459627PEDURU ARACHCHIGE NE23000000000000000050000SLR7010671000007040598SRI JAYA' PURA EDUCA                  2015-1201930181227000000
00007010049000078451836WETHTHANGA ARACHCHIG23000000000000000050000SLR7010671000007040598SRI JAYA' PURA EDUCA                  2015-1174509181227000000
00007010049000078937944GODAGAMA GAMAGE INDU23000000000000000050000SLR7010671000007040598SRI JAYA' PURA EDUCA                  2015-1202383181227000000
00007010049000078935659HATHAMUNAGE DEVMI AM23000000000000000050000SLR7010671000007040598SRI JAYA' PURA EDUCA                  2015-1288563181227000000
00007010049000078549316YADDEHIGE VISHMI AYE23000000000000000050000SLR7010671000007040598SRI JAYA' PURA EDUCA                  2015-1292200181227000000
00007010049000078950662JAYASURIYA ARACHCHIG23000000000000000050000SLR7010671000007040598SRI JAYA' PURA EDUCA                  2015-1312278181227000000
00007010049000078960951DULANJALEE SEWWANDI 23000000000000000050000SLR7010671000007040598SRI JAYA' PURA EDUCA                  2015-1312545181227000000
00007010049000078947447PERUMPADA PEDIGE KAU23000000000000000050000SLR7010671000007040598SRI JAYA' PURA EDUCA                  2015-1295764181227000000
00007010049000078928306ONADHI CHANULYA GAMA23000000000000000050000SLR7010671000007040598SRI JAYA' PURA EDUCA                  2015-1246895181227000000
00007010001000078939168RANMOHOTTI GEDARA SA23000000000000000050000SLR7010671000007040598SRI JAYA' PURA EDUCA                  2015-1253840181227000000
00007010001000079425208MALMALA ACHARIGE SEN23000000000000000050000SLR7010671000007040598SRI JAYA' PURA EDUCA                  2015-1326120181227000000
00007010001000078666244KULATHUNGA MUDIYANSE23000000000000000050000SLR7010671000007040598SRI JAYA' PURA EDUCA                  2015-1233963181227000000
00007010049000077112415WARNAKULASOORIYA MUD23000000000000000050000SLR7010671000007040598SRI JAYA' PURA EDUCA                  2014-6823688181227000000
00007010049000077100378MOHOPPU GAMAGE RASHM23000000000000000050000SLR7010671000007040598SRI JAYA' PURA EDUCA                  2014-7186576181227000000
00007010049000077133201BOLOGNGNAGE DILASHA 23000000000000000050000SLR7010671000007040598SRI JAYA' PURA EDUCA                  2014-7277342181227000000
00007010049000077104316BIYANWALAGE DONA MIY23000000000000000050000SLR7010671000007040598SRI JAYA' PURA EDUCA                  2014-6813003181227000000
00007010049000077202169ALAGEWATHTHAGE SWETH23000000000000000050000SLR7010671000007040598SRI JAYA' PURA EDUCA                  2014-7740590181227000000
00007010049000075986893KAPUSEEKKUGE NEVINI 23000000000000000050000SLR7010671000007040598SRI JAYA' PURA EDUCA                  2014-6643302181227000000
00007010757000077117788MUNAGAMAGE ALIAS HET23000000000000000050000SLR7010671000007040598SRI JAYA' PURA EDUCA                  2014-6787770181227000000
00007010678000004751220KARUNARATHNA MUDIYAN23000000000000000050000SLR7010671000007040598SRI JAYA' PURA EDUCA                  2014-6816207181227000000
00007010049000074330777MAPALAGAMA MANAGE GI23000000000000000050000SLR7010671000007040598SRI JAYA' PURA EDUCA                  2012-1728237181227000000
00007010001000074292880VITHARAMALAGE SASHIN23000000000000000050000SLR7010671000007040598SRI JAYA' PURA EDUCA                  2012-1289527181227000000
00007010001000074304777KANDABADAGE DONA SUP23000000000000000050000SLR7010671000007040598SRI JAYA' PURA EDUCA                  2012-1723766181227000000
00007010001000074269295GALHENAGE SAKUNI KAV23000000000000000050000SLR7010671000007040598SRI JAYA' PURA EDUCA                  2012-1317857181227000000
00007010049000075219216WEERATHUNGA ARACHCHI23000000000000000050000SLR7010671000007040598SRI JAYA' PURA EDUCA                  2012-1256700181227000000
00007010049000074336530GODAKAWELA KANKANAMA23000000000000000050000SLR7010671000007040598SRI JAYA' PURA EDUCA                  2012-2350688181227000000
00007010049000074280707DERANIYAGALAGE HAMES23000000000000000050000SLR7010671000007040598SRI JAYA' PURA EDUCA                  2012-1202570181227000000
00007010049000007884845PALAWA MADAGAMMADDEG23000000000000000050000SLR7010671000007040598SRI JAYA' PURA EDUCA                  2012-1154290181227000000
00007010049000074710060TOTAPITIYA ARACHCHIL23000000000000000050000SLR7010671000007040598SRI JAYA' PURA EDUCA                  2012-1177613181227000000
00007010049000072874920HIRIMURE GAMAGE UDAN23000000000000000050000SLR7010671000007040598SRI JAYA' PURA EDUCA                  2011-5142865181227000000
00007010049000007739167GALHENGE HIMESHA MAL23000000000000000050000SLR7010671000007040598SRI JAYA' PURA EDUCA                  2011-5139112181227000000
00007010049000073960793BADDE LIYANAGE DONA 23000000000000000050000SLR7010671000007040598SRI JAYA' PURA EDUCA                  2011-5748780181227000000
00007010049000072904117MUHUDUGAMUWE HEWAGE 23000000000000000050000SLR7010671000007040598SRI JAYA' PURA EDUCA                  2011-6018718181227000000
00007010049000071408356MUNASINGHE ARACHCHIG23000000000000000050000SLR7010671000007040598SRI JAYA' PURA EDUCA                  2010-1221833181227000000
00007010049000071408534PANAGODA ARCHARIGE S23000000000000000050000SLR7010671000007040598SRI JAYA' PURA EDUCA                  2010-1306219181227000000
00007010049000071408978LIYANAGE DULARI NETH23000000000000000050000SLR7010671000007040598SRI JAYA' PURA EDUCA                  2010-1659839181227000000
00007010049000072377777JAYASOORIYA ARACHCHI23000000000000000050000SLR7010671000007040598SRI JAYA' PURA EDUCA                  2010-1167120181227000000
00007010049000071408553MANATHUNGA ARCHCHIGE23000000000000000050000SLR7010671000007040598SRI JAYA' PURA EDUCA                  2010-1792768181227000000
00007010049000071408342THARUSHI DILSHANI WE23000000000000000050000SLR7010671000007040598SRI JAYA' PURA EDUCA                  2010-1133721181227000000
00007010049000071543366DUWAGE THISHINI THAR23000000000000000050000SLR7010671000007040598SRI JAYA' PURA EDUCA                  2010-1230816181227000000
00007010049000071408361HEWA BAMBARANDAGE IS23000000000000000050000SLR7010671000007040598SRI JAYA' PURA EDUCA                  2010-1287567181227000000
00007010049000071409262PIYUMI CHAMUDIKA HET23000000000000000050000SLR7010671000007040598SRI JAYA' PURA EDUCA                  2010-1296744181227000000
00007010049000071408646DANDENIYAGE DONA THA23000000000000000050000SLR7010671000007040598SRI JAYA' PURA EDUCA                  2010-1760629181227000000
00007010049000071408960WIJETHUNGA MUDIYANSE23000000000000000050000SLR7010671000007040598SRI JAYA' PURA EDUCA                  2010-1274554181227000000
00007010049000071581270GANSURIYAGAHA GEDARA23000000000000000050000SLR7010671000007040598SRI JAYA' PURA EDUCA                  2010-1193996181227000000
00007010049000071408362WAGURE GAMARALLAGE I23000000000000000050000SLR7010671000007040598SRI JAYA' PURA EDUCA                  2010-1257641181227000000
00007010049000081045947LIYANAARACHCHIGE MAD23000000000000000050000SLR7010671000007040598SRI JAYA' PURA EDUCA                  2010-1229621181227000000
00007010049000071408556NAHARANPITAGE PIYUMI23000000000000000050000SLR7010671000007040598SRI JAYA' PURA EDUCA                  2010-1152386181227000000
00007010049000071494836MAHABE GEDARA MALKI 23000000000000000050000SLR7010671000007040598SRI JAYA' PURA EDUCA                  2010-1133527181227000000
00007010049000080978785KODITHUWAKKU KANKANA23000000000000000050000SLR7010671000007040598SRI JAYA' PURA EDUCA                  2010-1222376181227000000
00007010049000082086449WELIKANNAGE DONA SAN23000000000000000050000SLR7010671000007040598SRI JAYA' PURA EDUCA                  2017-1316966181227000000
00007010049000082086296THARUDI SEWMINI MORA23000000000000000050000SLR7010671000007040598SRI JAYA' PURA EDUCA                  2017-1231782181227000000
00007010049000082088079PANAPA LIYANAGE ESAD23000000000000000050000SLR7010671000007040598SRI JAYA' PURA EDUCA                  2017-1261339181227000000
00007010049000082083938KORALEGAMA HEWAGE TH23000000000000000050000SLR7010671000007040598SRI JAYA' PURA EDUCA                  2017-1266330181227000000
00007010049000082911434SARANGUGE PUNSARANI 23000000000000000050000SLR7010671000007040598SRI JAYA' PURA EDUCA                  2017-1296779181227000000
00007010049000082911316HATAN ACHCHIGE CHAMI23000000000000000050000SLR7010671000007040598SRI JAYA' PURA EDUCA                  2017-1288024181227000000
00007010049000082928766GINIGADDARAGE DONA T23000000000000000050000SLR7010671000007040598SRI JAYA' PURA EDUCA                  2017-1729713181227000000
00007010049000082087674WEWALA PALLEGEDARA D23000000000000000050000SLR7010671000007040598SRI JAYA' PURA EDUCA                  2017-1686445181227000000
00007010049000082086525VIDANALAGE JINUKI AN23000000000000000050000SLR7010671000007040598SRI JAYA' PURA EDUCA                  2017-1244132181227000000
00007010049000082088621MAHAMENDIGE NADEWNI 23000000000000000050000SLR7010671000007040598SRI JAYA' PURA EDUCA                  2017-1227602181227000000
00007010049000082087738GULAWITA PURANDARAGE23000000000000000050000SLR7010671000007040598SRI JAYA' PURA EDUCA                  2017-1681257181227000000
00007010049000082087839SOORIYA ARACHCHIGE R23000000000000000050000SLR7010671000007040598SRI JAYA' PURA EDUCA                  2017-1712543181227000000
00007010049000082088199WEERASINGHE ARACHCHI23000000000000000050000SLR7010671000007040598SRI JAYA' PURA EDUCA                  2017-2144034181227000000
00007010049000082088370ABRAHAM GALAPPATHTHI23000000000000000050000SLR7010671000007040598SRI JAYA' PURA EDUCA                  2017-1286552181227000000
00007010049000082088479EDIRISINGHE ARACHCHI23000000000000000050000SLR7010671000007040598SRI JAYA' PURA EDUCA                  2017-1192043181227000000
00007010049000082087503HIRUSHI MANODYA PERE23000000000000000050000SLR7010671000007040598SRI JAYA' PURA EDUCA                  2017-1231731181227000000
00007010049000082088532JAYARATHNA KANKANAMG23000000000000000050000SLR7010671000007040598SRI JAYA' PURA EDUCA                  2017-2258153181227000000
00007010049000082078536KUDA SINGAPPULIGE DI23000000000000000050000SLR7010671000007040598SRI JAYA' PURA EDUCA                  2017-2623196181227000000
00007010049000082078384RATHNAYAKA MUDIYANSE23000000000000000050000SLR7010671000007040598SRI JAYA' PURA EDUCA                  2017-1227599181227000000
00007010049000082078799JAYASOORIYA ARACHCHI23000000000000000050000SLR7010671000007040598SRI JAYA' PURA EDUCA                  2017-1164309181227000000
00007010049000082080810HEWA GAMAGE DINITHI 23000000000000000050000SLR7010671000007040598SRI JAYA' PURA EDUCA                  2017-1331973181227000000
00007010049000082080538GALLA HETTI ARACHCHI23000000000000000050000SLR7010671000007040598SRI JAYA' PURA EDUCA                  2017-2456214181227000000
00007010049000082080889ANHETTI VITHARAMALAG23000000000000000050000SLR7010671000007040598SRI JAYA' PURA EDUCA                  2017-2620839181227000000
00007010049000082079080HAPUTHANTHIRIGE HUMI23000000000000000050000SLR7010671000007040598SRI JAYA' PURA EDUCA                  2017-1678299181227000000
00007010049000082204319WELIWATHTHAGE DONA T23000000000000000050000SLR7010671000007040598SRI JAYA' PURA EDUCA                  2017-1192329181227000000
00007010049000082104798LABUGAMKANDE KATTADI23000000000000000050000SLR7010671000007040598SRI JAYA' PURA EDUCA                  2017-1325809181227000000
00007010049000082094803SODIGE CHAMUDI IMASH23000000000000000050000SLR7010671000007040598SRI JAYA' PURA EDUCA                  2017-1315650181227000000
00007010049000074227781WANNIACHCHIGE POOJAN23000000000000000050000SLR7010671000007040598SRI JAYA' PURA EDUCA                  2017-1138952181227000000
00007010049000075557690RANAWEERA IRUMI DILT23000000000000000050000SLR7010671000007040598SRI JAYA' PURA EDUCA                  2013-5253420181227000000
00007010049000075557685ELAPATHAGE DULAKSHA 23000000000000000050000SLR7010671000007040598SRI JAYA' PURA EDUCA                  2013-4308107181227000000
00007010049000075557516SANDALI MALITHYA KUR23000000000000000050000SLR7010671000007040598SRI JAYA' PURA EDUCA                  2013-4234693181227000000
00007010049000075557427DONA AYATHMI UPENYA 23000000000000000050000SLR7010671000007040598SRI JAYA' PURA EDUCA                  2013-4226470181227000000
00007010049000075557511WEERATHUNGA ARACHCHI23000000000000000050000SLR7010671000007040598SRI JAYA' PURA EDUCA                  2013-4302443181227000000
00007010049000075557692HABARAKADA LIYANAGE 23000000000000000050000SLR7010671000007040598SRI JAYA' PURA EDUCA                  2013-4286952181227000000
00007010049000075557693SUDASINGHALAGE DONA 23000000000000000050000SLR7010671000007040598SRI JAYA' PURA EDUCA                  2013-4309146181227000000
00007010049000075557696MAGALAGE DONA HIRUNI23000000000000000050000SLR7010671000007040598SRI JAYA' PURA EDUCA                  2013-4686381181227000000
00007010049000075845256MIRIYAGALLA KANKANAM23000000000000000050000SLR7010671000007040598SRI JAYA' PURA EDUCA                  2013-4169417181227000000
00007010049000075557698MANIYAN GAMAGE ISITH23000000000000000050000SLR7010671000007040598SRI JAYA' PURA EDUCA                  2013-4660943181227000000
00007010049000075841840SENADHEERAGE HEWATH 23000000000000000050000SLR7010671000007040598SRI JAYA' PURA EDUCA                  2013-4323130181227000000
00007010049000075634519NETHMINI THATHSARANI23000000000000000050000SLR7010671000007040598SRI JAYA' PURA EDUCA                  2013-4019563181227000000
00007010049000075764035DONA SAHANMI NETHUMY23000000000000000050000SLR7010671000007040598SRI JAYA' PURA EDUCA                  2013-4226488181227000000
00007010049000075654196WATHMI SANULYA PALIH23000000000000000050000SLR7010671000007040598SRI JAYA' PURA EDUCA                  2013-4195698181227000000
00007010049000075557474THEWAHETTIGE VIDUMIN23000000000000000050000SLR7010671000007040598SRI JAYA' PURA EDUCA                  2013-4221923181227000000
00007010049000075653081KABAL PORAGE DON SAN23000000000000000050000SLR7010671000007040598SRI JAYA' PURA EDUCA                  2013-4283473181227000000
00007010049000082086021DIKPITA HEWAGE CHAMA23000000000000000050000SLR7010671000007040598SRI JAYA' PURA EDUCA                  2017-1300741181227000000
00007010049000082085736SENAVIRATNE MUDIYANS23000000000000000050000SLR7010671000007040598SRI JAYA' PURA EDUCA                  2017-1222880181227000000
00007010049000082119147MADUGODA RALALAGE DO23000000000000000050000SLR7010671000007040598SRI JAYA' PURA EDUCA                  2017-1187341181227000000
00007010049000078463268HABARAGAMURALALAGE I23000000000000000050000SLR7010671000007040598SRI JAYA' PURA EDUCA                  2015-1771639181227000000
00007010049000078663252SANUDI CHATHUMINI KA23000000000000000050000SLR7010671000007040598SRI JAYA' PURA EDUCA                  2015-1143875181227000000
00007010049000075841754MALAVIGE CHETHANIKA 23000000000000000050000SLR7010671000007040598SRI JAYA' PURA EDUCA                  2013-4295757181227000000
00007010049000078948519WANNIARACHCHIGE DON 23000000000000000050000SLR7010671000007040598SRI JAYA' PURA EDUCA                  2015-1202391181227000000
00007010049000079061799KANDABADAGE DONA UTH23000000000000000050000SLR7010671000007040598SRI JAYA' PURA EDUCA                  2015-1745239181227000000
00007010049000078942101THOTAWATHTHA BADDALA23000000000000000050000SLR7010671000007040598SRI JAYA' PURA EDUCA                  2015-1307045181227000000
00007010049000078478326RANKOTH GEDARA UMESH23000000000000000050000SLR7010671000007040598SRI JAYA' PURA EDUCA                  2015-1226428181227000000
00007010049000079004273NAMMUNI ARACHCHIGE N23000000000000000050000SLR7010671000007040598SRI JAYA' PURA EDUCA                  2015-1296043181227000000
00007010049000077300719KANUWAN KANDE GAMARA23000000000000000050000SLR7010671000007040598SRI JAYA' PURA EDUCA                  2014-6642330181227000000
00007010049000074880670DODAMGODAGE DONA THA23000000000000000050000SLR7010671000007040598SRI JAYA' PURA EDUCA                  2014-6641857181227000000
00007010049000072398078GANGODAVILAGE BUDDIN23000000000000000050000SLR7010671000007040598SRI JAYA' PURA EDUCA                  2011-5138388181227000000
00007010049000078947815LIYANAWADUGE MENOLI 23000000000000000050000SLR7010671000007040598SRI JAYA' PURA EDUCA                  2015-1326023181227000000
00007010049000078472614AMBATHALA VIDANALAGE23000000000000000050000SLR7010671000007040598SRI JAYA' PURA EDUCA                  2015-1233874181227000000
00007010049000078471684APPUKUTTI KANKANAMAG23000000000000000050000SLR7010671000007040598SRI JAYA' PURA EDUCA                  2015-1230190181227000000
00007010049000077112448KARIYAWASAM BOVITHAN23000000000000000050000SLR7010671000007040598SRI JAYA' PURA EDUCA                  2014-7483996181227000000
00007010689000077115182HETTIARACHCHIGE CHAD23000000000000000050000SLR7010671000007040598SRI JAYA' PURA EDUCA                  2014-6763502181227000000
00007010049000082815410JAYASUNDARA MUDIYANS23000000000000000050000SLR7010671000007040598SRI JAYA' PURA EDUCA                  2011-5204640181227000000
00007010049000074303762KARUNAHEWADILAGE TEE23000000000000000050000SLR7010671000007040598SRI JAYA' PURA EDUCA                  2012-1186949181227000000
00007010049000081036491WEWELWALA HEWAGE IMA23000000000000000050000SLR7010671000007040598SRI JAYA' PURA EDUCA                  2010-1274201181227000000
00007010049000074288171WIJESIRI KANKANAMAGE23000000000000000050000SLR7010671000007040598SRI JAYA' PURA EDUCA                  2012-1289543181227000000
00007010049000080881462RUPASINGHA ARACHCHIG23000000000000000050000SLR7010671000007040598SRI JAYA' PURA EDUCA                  2010-1298682181227000000
00007010049000080902946JAGODA ARACHCHILAGE 23000000000000000050000SLR7010671000007040598SRI JAYA' PURA EDUCA                  2010-1299930181227000000
00007010049000071409752MALWATTAGE KAVEESHA 23000000000000000050000SLR7010671000007040598SRI JAYA' PURA EDUCA                  2010-1134000181227000000
00007010049000071408573WANNIARACHCHI KANKAN23000000000000000050000SLR7010671000007040598SRI JAYA' PURA EDUCA                  2010-1315226181227000000
00007010049000081743856HETTI ARACHCHIGE SUB23000000000000000050000SLR7010671000007040598SRI JAYA' PURA EDUCA                  2010-1207091181227000000
00007010049000074239367HEWA WELAWATTAGE YAS23000000000000000050000SLR7010671000007040598SRI JAYA' PURA EDUCA                  2014-6644279181227000000
00007010049000082085952PABODHI HIRUPABA WIJ23000000000000000050000SLR7010671000007040598SRI JAYA' PURA EDUCA                  2017-1202367181227000000
00007010049000082087817DEBEGAMA KANKANAMALA23000000000000000050000SLR7010671000007040598SRI JAYA' PURA EDUCA                  2017-1321528181227000000
00007010049000071409697MAGALA KOTTAHACHCHIG23000000000000000050000SLR7010671000007040598SRI JAYA' PURA EDUCA                  2010-1285157181227000000
00007010049000071408347KOSWATTA ACHARIGE RA23000000000000000050000SLR7010671000007040598SRI JAYA' PURA EDUCA                  2010-1665693181227000000
00007010049000080282061RATHNAYAKE MUDIYANSE23000000000000000050000SLR7010671000007040598SRI JAYA' PURA EDUCA                  2016-5242649181227000000
00007010049000082086572PANNILAGE PUNSARANI 23000000000000000050000SLR7010671000007040598SRI JAYA' PURA EDUCA                  2017-1712861181227000000
00007010049000082928577DON UMAYANGANA DIVYA23000000000000000050000SLR7010671000007040598SRI JAYA' PURA EDUCA                  2017-1202375181227000000
00007010049000075557736ERAWWALAGE SENAYA DE23000000000000000050000SLR7010671000007040598SRI JAYA' PURA EDUCA                  2013-4644085181227000000
00007010049000074269342SEMASINGHE MUDIYANSE23000000000000000050000SLR7010671000007040598SRI JAYA' PURA EDUCA                  2012-1229656181227000000
00007010049000072904368KATUWAWALAGE DONA LA23000000000000000050000SLR7010671000007040598SRI JAYA' PURA EDUCA                  2011-5229979181227000000
00007010049000071624498ABEYWICKRAMA JAYATHI23000000000000000050000SLR7010671000007040598SRI JAYA' PURA EDUCA                  2010-1214500181227000000
00007010049000071408368KUDAMADUWAGE NETHMI 23000000000000000050000SLR7010671000007040598SRI JAYA' PURA EDUCA                  2010-1214497181227000000
00007010049000071408363ATHURALIYAGE SASINI 23000000000000000050000SLR7010671000007040598SRI JAYA' PURA EDUCA                  2010-1288857181227000000
00007010049000080282297BEENU JAYANGA MADUMI23000000000000000050000SLR7010671000007040598SRI JAYA' PURA EDUCA                  2016-5313910181227000000
00007010049000080278851NARANGAHA KOTUWE GED23000000000000000050000SLR7010671000007040598SRI JAYA' PURA EDUCA                  2016-5172489181227000000
00007010049000071408582MUDALIGE PAVANI MUTH23000000000000000050000SLR7010671000007040598SRI JAYA' PURA EDUCA                  2010-1231189181227000000
00007010049000071481150AKADA KANKANAMGE CHA23000000000000000050000SLR7010671000007040598SRI JAYA' PURA EDUCA                  2010-1074059181227000000
00007010049000080890246SAMARAWICKRAMA LIYAN23000000000000000050000SLR7010671000007040598SRI JAYA' PURA EDUCA                  2010-1920510181227000000
00007010049000071409688HERATH MUDIYANSELAGE23000000000000000050000SLR7010671000007040598SRI JAYA' PURA EDUCA                  2010-1252305181227000000
00007010049000071019108GANGODAVILA PATHIRAG23000000000000000050000SLR7010671000007040598SRI JAYA' PURA EDUCA                  2010-1165755181227000000
00007010049000082695945HIRIPITIYAGE SANDUNI23000000000000000050000SLR7010671000007040598SRI JAYA' PURA EDUCA                  2011-5189152181227000000
00007010049000082776567SAMARASINGHA ARACHCH23000000000000000050000SLR7010671000007040598SRI JAYA' PURA EDUCA                  2011-5288363181227000000
00007010049000082709229WIJEYRATNEGE ROSHANI23000000000000000050000SLR7010671000007040598SRI JAYA' PURA EDUCA                  2011-5219876181227000000
00007010049000082778387WARSHA MANAGE DULARA23000000000000000050000SLR7010671000007040598SRI JAYA' PURA EDUCA                  2011-6346022181227000000
00007010049000082942951NADEESHA SEWWANDI ME23000000000000000050000SLR7010671000007040598SRI JAYA' PURA EDUCA                  2011-5150477181227000000
00007010049000082948633SILUNI ANJALIKA WIJE23000000000000000050000SLR7010671000007040598SRI JAYA' PURA EDUCA                  2011-5138221181227000000
00007010049000082689774DEWUNDARA LIYANA WAD23000000000000000050000SLR7010671000007040598SRI JAYA' PURA EDUCA                  2011-5221579181227000000
00007010049000073102498NIPUNI KAVEESHA SATH23000000000000000050000SLR7010671000007040598SRI JAYA' PURA EDUCA                  2011-5282918181227000000
00007010049000082691874KAPUKATINAGE SAUMYA 23000000000000000050000SLR7010671000007040598SRI JAYA' PURA EDUCA                  2011-5076781181227000000
00007010049000083511929THANAWEERA ARACHCHIG23000000000000000050000SLR7010671000007040598SRI JAYA' PURA EDUCA                  2011-5222419181227000000
00007135208200290011058MAHAGAMAGE CHAMIKARA23000000000000000050000SLR7010671000007040598SRI JAYA' PURA EDUCA                  2012-1175238181227000000
00007135208200160025849DON VITHARANALAGE PA23000000000000000050000SLR7010671000007040598SRI JAYA' PURA EDUCA                  2014-6667244181227000000
00007135208200110015819WALIGAMPOLA GEDARA S23000000000000000050000SLR7010671000007040598SRI JAYA' PURA EDUCA                  2014-6667430181227000000
00007135208200160317980RANASINGHE ARACHCHIL23000000000000000050000SLR7010671000007040598SRI JAYA' PURA EDUCA                  2014-6667350181227000000
00007135208820030002340RANASINGHE ARACHCHIL23000000000000000050000SLR7010671000007040598SRI JAYA' PURA EDUCA                  2011-5165890181227000000
00007135194200200012183FATHIMA MAHEESHA AMA23000000000000000050000SLR7010671000007040598SRI JAYA' PURA EDUCA                  2010-2149966181227000000
00007135306200190007858KURUPPU MULLAGE DON 23000000000000000050000SLR7010671000007040598SRI JAYA' PURA EDUCA                  2010-1279513181227000000
00007135194200120012205CHATHURI PRASADINIE 23000000000000000050000SLR7010671000007040598SRI JAYA' PURA EDUCA                  2010-1203789181227000000
00007135194200190012004GAMLATH KANKANAMALAG23000000000000000050000SLR7010671000007040598SRI JAYA' PURA EDUCA                  2010-1200933181227000000
00007135194200150014986HEWAGAMAGE RASHMI SA23000000000000000050000SLR7010671000007040598SRI JAYA' PURA EDUCA                  2011-5213002181227000000
00007135194200140018777ABEWICKRAMAGE AMANDI23000000000000000050000SLR7010671000007040598SRI JAYA' PURA EDUCA                  2012-1216279181227000000
00007135194200170011114JONIKKU HEWA GAMAGE 23000000000000000050000SLR7010671000007040598SRI JAYA' PURA EDUCA                  2013-4204204181227000000
00007135194200140022784GALGODEGEDARA SEHANS23000000000000000050000SLR7010671000007040598SRI JAYA' PURA EDUCA                  2014-6709249181227000000
00007135194200170023150     FATHIMA RASHIDA23000000000000000050000SLR7010671000007040598SRI JAYA' PURA EDUCA                  2014-6541771181227000000
00007135194200190023149DODANGODA LIYANAGE H23000000000000000050000SLR7010671000007040598SRI JAYA' PURA EDUCA                  2014-7513364181227000000
00007135194200120023204MOHOMED IKBAR FATHIM23000000000000000050000SLR7010671000007040598SRI JAYA' PURA EDUCA                  2014-6714005181227000000
00007135306200270016811BALLANTHUDA ACHCHIGE23000000000000000050000SLR7010671000007040598SRI JAYA' PURA EDUCA                  2014-6689701181227000000
00007135306200150023021UDUWARAGE DIMUTH SAN23000000000000000050000SLR7010671000007040598SRI JAYA' PURA EDUCA                  2017-1333070181227000000
00007135306200140023026WARUSHA HENNADIGE KA23000000000000000050000SLR7010671000007040598SRI JAYA' PURA EDUCA                  2017-1331388181227000000
00007135306200120023032THEBUWATHTHA GAMARAL23000000000000000050000SLR7010671000007040598SRI JAYA' PURA EDUCA                  2017-1303210181227000000
00007135306200100023033PITAKOTTE MERIGNGNAG23000000000000000050000SLR7010671000007040598SRI JAYA' PURA EDUCA                  2017-1172859181227000000
00007135306200190023038RANASINGHE WEERAKKOD23000000000000000050000SLR7010671000007040598SRI JAYA' PURA EDUCA                  2017-1296434181227000000
00007135306200160023025BORALA ADPPA GODAGE 23000000000000000050000SLR7010671000007040598SRI JAYA' PURA EDUCA                  2017-1332864181227000000
00007135306200130023022SAMARATHUNGA LIYANAG23000000000000000050000SLR7010671000007040598SRI JAYA' PURA EDUCA                  2017-1309102181227000000
00007135306200170023020UDAKADAGE KANISHKA S23000000000000000050000SLR7010671000007040598SRI JAYA' PURA EDUCA                  2017-1320505181227000000
00007135306200190023024WALAWVITA KANKANAMGE23000000000000000050000SLR7010671000007040598SRI JAYA' PURA EDUCA                  2017-1291912181227000000
00007135306200120023027LIYANAPATHIRANALAGE 23000000000000000050000SLR7010671000007040598SRI JAYA' PURA EDUCA                  2017-1176390181227000000
00007135306200180023374WALAWE DURAGE OPULI 23000000000000000050000SLR7010671000007040598SRI JAYA' PURA EDUCA                  2017-1174983181227000000
00007135306200190023378LABUGAMAGE CHINTHANI23000000000000000050000SLR7010671000007040598SRI JAYA' PURA EDUCA                  2017-1197797181227000000
00007135306200110022373KULATHUNGAGE YOHAN T23000000000000000050000SLR7010671000007040598SRI JAYA' PURA EDUCA                  2017-1197568181227000000
00007135306200180023029LEKAM WASAM AMARASIR23000000000000000050000SLR7010671000007040598SRI JAYA' PURA EDUCA                  2017-1201719181227000000
00007135306200190021746WANIGASEKARA MUDIYAN23000000000000000050000SLR7010671000007040598SRI JAYA' PURA EDUCA                  2016-5197708181227000000
00007135306200100021604SIRIBADDANA KANKANAM23000000000000000050000SLR7010671000007040598SRI JAYA' PURA EDUCA                  2016-5198127181227000000
00007135306200150021404MARAPPULIGE NADUN KA23000000000000000050000SLR7010671000007040598SRI JAYA' PURA EDUCA                  2016-5197970181227000000
00007135306200180021723MORAGAMMANE GEDERA D23000000000000000050000SLR7010671000007040598SRI JAYA' PURA EDUCA                  2016-5198100181227000000
00007135306200110020963UMANGE HIRUKA THEWJA23000000000000000050000SLR7010671000007040598SRI JAYA' PURA EDUCA                  2016-5189209181227000000
00007135306200120021009LIYANAGE ROMETH BATH23000000000000000050000SLR7010671000007040598SRI JAYA' PURA EDUCA                  2016-5198429181227000000
00007135306200150021003HETTIARACHCHILAGE SH23000000000000000050000SLR7010671000007040598SRI JAYA' PURA EDUCA                  2016-5294371181227000000
00007135306001700021016ASURAGE CHANNA GAYAN23000000000000000050000SLR7010671000007040598SRI JAYA' PURA EDUCA                  2016-5313198181227000000
00007135306200110021019RATHNAYAKA MUDIYANSE23000000000000000050000SLR7010671000007040598SRI JAYA' PURA EDUCA                  2016-5151643181227000000
00007135306200120021014THAMMATI GEDARA DILS23000000000000000050000SLR7010671000007040598SRI JAYA' PURA EDUCA                  2016-5317274181227000000
00007135306200160021007NAYANABADUGE SANDARU23000000000000000050000SLR7010671000007040598SRI JAYA' PURA EDUCA                  2016-5208386181227000000
00007135306200180021011YADDEHIGE DON VETHUM23000000000000000050000SLR7010671000007040598SRI JAYA' PURA EDUCA                  2016-5329175181227000000
00007135306200110022226PANNILAGE RAVITHA PA23000000000000000050000SLR7010671000007040598SRI JAYA' PURA EDUCA                  2016-5318963181227000000
00007135306200170022742KUDA LIYANAGE DONA K23000000000000000050000SLR7010671000007040598SRI JAYA' PURA EDUCA                  2016-5208866181227000000
00007135306200130018515BOPAGE SATHIKA MEDIN23000000000000000050000SLR7010671000007040598SRI JAYA' PURA EDUCA                  2015-1200240181227000000
00007135306200140018510YADDEHIGE DISULI YUN23000000000000000050000SLR7010671000007040598SRI JAYA' PURA EDUCA                  2015-1174452181227000000
00007135306200100018507PAHALA WITHANAGE DIL23000000000000000050000SLR7010671000007040598SRI JAYA' PURA EDUCA                  2015-1197312181227000000
00007135306200170018518NARADDE GAMAGE PAVAN23000000000000000050000SLR7010671000007040598SRI JAYA' PURA EDUCA                  2015-1312413181227000000
00007135306200140018529HEWA PATHIRANAGE MEN23000000000000000050000SLR7010671000007040598SRI JAYA' PURA EDUCA                  2015-1208136181227000000
00007135306200130018539KALAMULLA ARACHCHIGE23000000000000000050000SLR7010671000007040598SRI JAYA' PURA EDUCA                  2015-1337360181227000000
00007135306200160018533MANONDRA ACHARIGE TH23000000000000000050000SLR7010671000007040598SRI JAYA' PURA EDUCA                  2015-3814645181227000000
00007135306200190018541DERANIYAGALAGE HESAR23000000000000000050000SLR7010671000007040598SRI JAYA' PURA EDUCA                  2015-1300032181227000000
00007135306200160016770MALAGAMMANA DUNUKEPO23000000000000000050000SLR7010671000007040598SRI JAYA' PURA EDUCA                  2014-6815987181227000000
00007135306200140016766JAYALATHGE HASHINI E23000000000000000050000SLR7010671000007040598SRI JAYA' PURA EDUCA                  2014-6798381181227000000
00007135306200110016758RAMPATI DEWAGE THARU23000000000000000050000SLR7010671000007040598SRI JAYA' PURA EDUCA                  2014-6821383181227000000
00007135306200130016837GALAGEDARAGE DON JAN23000000000000000050000SLR7010671000007040598SRI JAYA' PURA EDUCA                  2014-6689272181227000000
00007135306200180016825INDURUWE ARACHCHILAG23000000000000000050000SLR7010671000007040598SRI JAYA' PURA EDUCA                  2014-6689540181227000000
00007135306200140016988UMANGE LASINDI MANUD23000000000000000050000SLR7010671000007040598SRI JAYA' PURA EDUCA                  2014-6700438181227000000
00007135306200250024138SAUN HANDIGE POORNA 23000000000000000050000SLR7010671000007040598SRI JAYA' PURA EDUCA                  2014-6689329181227000000
00007135306200140018553KALUTHANTHRIGE SENUT23000000000000000050000SLR7010671000007040598SRI JAYA' PURA EDUCA                  2014-6691331181227000000
00007135306200120015466WETHTHASINGHE LIYANA23000000000000000050000SLR7010671000007040598SRI JAYA' PURA EDUCA                  2013-4182987181227000000
00007135306200170015416ABEYSINGHE ARACHCHIG23000000000000000050000SLR7010671000007040598SRI JAYA' PURA EDUCA                  2013-4183070181227000000
00007135306200186865349MANNALAGE PASINDU SU23000000000000000050000SLR7010671000007040598SRI JAYA' PURA EDUCA                  2013-4182910181227000000
00007135306200140015286KUDA LIYANAGE DON SA23000000000000000050000SLR7010671000007040598SRI JAYA' PURA EDUCA                  2013-4201558181227000000
00007135306200120014966JAYASINGHA PATHIRANA23000000000000000050000SLR7010671000007040598SRI JAYA' PURA EDUCA                  2013-4298748181227000000
00007135306200170015001EKANAYAKA MUDIYANSEL23000000000000000050000SLR7010671000007040598SRI JAYA' PURA EDUCA                  2013-4317165181227000000
00007135306200160014993KATTADIGE GAWRI PAVI23000000000000000050000SLR7010671000007040598SRI JAYA' PURA EDUCA                  2013-4170695181227000000
00007135306200130014999SUWANDA ARACHCHIGE P23000000000000000050000SLR7010671000007040598SRI JAYA' PURA EDUCA                  2013-4186869181227000000
00007135306200180014973ATHTHIDIYA WIDANALAG23000000000000000050000SLR7010671000007040598SRI JAYA' PURA EDUCA                  2013-4304268181227000000
00007135306200140014970RATHUMUNI HEVA USHAN23000000000000000050000SLR7010671000007040598SRI JAYA' PURA EDUCA                  2013-4189760181227000000
00007135306200120014914MAYADUNNAGE DON PASI23000000000000000050000SLR7010671000007040598SRI JAYA' PURA EDUCA                  2013-4169905181227000000
00007135306200170014916WEERASINGHE MUDIYANS23000000000000000050000SLR7010671000007040598SRI JAYA' PURA EDUCA                  2013-4227522181227000000
00007135306200190014915ALAHAKOON ARACHCHIGE23000000000000000050000SLR7010671000007040598SRI JAYA' PURA EDUCA                  2013-4167589181227000000
00007135306200150015002EKANAYAKA MUDIYANSEL23000000000000000050000SLR7010671000007040598SRI JAYA' PURA EDUCA                  2013-4317173181227000000
00007135306200160015544HADUNNETHTHIGE YASOD23000000000000000050000SLR7010671000007040598SRI JAYA' PURA EDUCA                  2013-4226364181227000000
00007135306200190016839MUNASINHA NUWANSHI T23000000000000000050000SLR7010671000007040598SRI JAYA' PURA EDUCA                  2013-4182669181227000000
00007135306200140001253JAYAKODY ARACHCHIGE 23000000000000000050000SLR7010671000007040598SRI JAYA' PURA EDUCA                  2012-1196006181227000000
00007135306200110012699KANKANIGE OSHADA CHA23000000000000000050000SLR7010671000007040598SRI JAYA' PURA EDUCA                  2012-1195816181227000000
00007135078200168503158RAJAPAKSHA ARACHCHIG23000000000000000050000SLR7010671000007040598SRI JAYA' PURA EDUCA                  2014-6640389181227000000
00007135078200140018682WEERAPPULI ARACHCHIL23000000000000000050000SLR7010671000007040598SRI JAYA' PURA EDUCA                  2016-5142520181227000000
00007135078200146846989MAHANAMAGE VENUJA DE23000000000000000050000SLR7010671000007040598SRI JAYA' PURA EDUCA                  2016-5142253181227000000
00007135078200100004168AGOSTHINUGE DON METH23000000000000000050000SLR7010671000007040598SRI JAYA' PURA EDUCA                  2016-5142237181227000000
00007135078200120004153HEWAGE METHU MIHIJAY23000000000000000050000SLR7010671000007040598SRI JAYA' PURA EDUCA                  2016-5142709181227000000
00007135078200100002480SEHANDU THEUNAKA BOT23000000000000000050000SLR7010671000007040598SRI JAYA' PURA EDUCA                  2015-1140671181227000000
00007135078200140009022ATTANAYAKA MOHOTTALA23000000000000000050000SLR7010671000007040598SRI JAYA' PURA EDUCA                  2015-1256424181227000000
00007135078200130004237BAJJAMA KANKANAMALAG23000000000000000050000SLR7010671000007040598SRI JAYA' PURA EDUCA                  2015-1140361181227000000
00007135078200106846929JAYASIRI GUNASEKARA 23000000000000000050000SLR7010671000007040598SRI JAYA' PURA EDUCA                  2014-6639763181227000000
00007135078200130003431BADDELIYANAGE DON NI23000000000000000050000SLR7010671000007040598SRI JAYA' PURA EDUCA                  2014-6640117181227000000
00007135078200130008155DON MANUWELGE DON SI23000000000000000050000SLR7010671000007040598SRI JAYA' PURA EDUCA                  2014-6640370181227000000
00007135078200133778236NARAYANAGE CHAMINDU 23000000000000000050000SLR7010671000007040598SRI JAYA' PURA EDUCA                  2014-6640435181227000000
00007135078200130008136MUTHUNAMA GONNAGE HI23000000000000000050000SLR7010671000007040598SRI JAYA' PURA EDUCA                  2014-6668593181227000000
00007135078200160008154MILLA VITHANACHCHIGE23000000000000000050000SLR7010671000007040598SRI JAYA' PURA EDUCA                  2014-6659276181227000000
00007135078200160019572KOMBALA SANTHIGE YAS23000000000000000050000SLR7010671000007040598SRI JAYA' PURA EDUCA                  2014-6683320181227000000
00007135078200110367309ARACHCHIGE SACHINTHA23000000000000000050000SLR7010671000007040598SRI JAYA' PURA EDUCA                  2014-6640010181227000000
00007135078200130002375VIDANAGAMAGE MANINDU23000000000000000050000SLR7010671000007040598SRI JAYA' PURA EDUCA                  2014-6640125181227000000
00007135078200283777413YAPITA MUDIYANSELAGE23000000000000000050000SLR7010671000007040598SRI JAYA' PURA EDUCA                  2014-6640311181227000000
00007135078200183778559VIMUKTHI LAKSHAN UBE23000000000000000050000SLR7010671000007040598SRI JAYA' PURA EDUCA                  2014-6640354181227000000
00007135279200180007467WEERASIMGHE MUDIYANS23000000000000000050000SLR7010671000007040598SRI JAYA' PURA EDUCA                  2014-6639810181227000000
00007135078200110006416AGOSTHINUGE DON MENU23000000000000000050000SLR7010671000007040598SRI JAYA' PURA EDUCA                  2013-4134869181227000000
00007135078200100006935JOSHAPH SACHINTHA MI23000000000000000050000SLR7010671000007040598SRI JAYA' PURA EDUCA                  2013-4161262181227000000
00007135078200160006391PATHIRAGE NILESH VIH23000000000000000050000SLR7010671000007040598SRI JAYA' PURA EDUCA                  2013-4134907181227000000
00007135078200110007213KULATHUNGAGE MAHEESH23000000000000000050000SLR7010671000007040598SRI JAYA' PURA EDUCA                  2013-4185056181227000000
00007135078200180006408NARASURIYAGE JALITHA23000000000000000050000SLR7010671000007040598SRI JAYA' PURA EDUCA                  2013-4134109181227000000
00007135078200140006405HEWA MEDDAWATTAGE CH23000000000000000050000SLR7010671000007040598SRI JAYA' PURA EDUCA                  2013-4134400181227000000
00007135078200100006407RATHNAYAKA MUDIYANSE23000000000000000050000SLR7010671000007040598SRI JAYA' PURA EDUCA                  2013-4134443181227000000
00007135078200160005259ARAWWALA JOTHIGE KAV23000000000000000050000SLR7010671000007040598SRI JAYA' PURA EDUCA                  2013-4134575181227000000
00007135078200110006402BALASOORIYA APPUHAMI23000000000000000050000SLR7010671000007040598SRI JAYA' PURA EDUCA                  2013-4134613181227000000
00007135078200130006420HETTIARACHIGE SITHUM23000000000000000050000SLR7010671000007040598SRI JAYA' PURA EDUCA                  2013-4134761181227000000
00007135078200130005345MADUWE GEDARA CHAMAT23000000000000000050000SLR7010671000007040598SRI JAYA' PURA EDUCA                  2012-1150430181227000000
00007135078200170005348LIYANA PENDIGE USHAN23000000000000000050000SLR7010671000007040598SRI JAYA' PURA EDUCA                  2012-1150480181227000000
00007135078200150004547ANTHONY KUSHAN KALHA23000000000000000050000SLR7010671000007040598SRI JAYA' PURA EDUCA                  2012-1150529181227000000
00007135078200160003335PITIGALA PATHTHINIGE23000000000000000050000SLR7010671000007040598SRI JAYA' PURA EDUCA                  2010-1135864181227000000
00007135078200180003382MAHA MADDUMAGE SHERA23000000000000000050000SLR7010671000007040598SRI JAYA' PURA EDUCA                  2010-1135791181227000000
00007135078200263773699BARANIGE THIMIRA TES23000000000000000050000SLR7010671000007040598SRI JAYA' PURA EDUCA                  2010-1153986181227000000
00007135078200120003337WIJERATHNE ARACHCHIG23000000000000000050000SLR7010671000007040598SRI JAYA' PURA EDUCA                  2010-1135252181227000000
00007135196200100027711OSHITHA UDAM ALWIS W23000000000000000050000SLR7010671000007040598SRI JAYA' PURA EDUCA                  2017-1178598181227000000
00007135098200190015505HIRAMUTHU GODAGE PRA23000000000000000050000SLR7010671000007040598SRI JAYA' PURA EDUCA                  2013-4210000181227000000
00007135196200230000130WELGAMA KANKANAMALAG23000000000000000050000SLR7010671000007040598SRI JAYA' PURA EDUCA                  2017-1180851181227000000
00007135098200180010773KURUWA VIDANARALALAG23000000000000000050000SLR7010671000007040598SRI JAYA' PURA EDUCA                  2016-5218152181227000000
00007135196200160001968RELAPANAGE SAKYA GIM23000000000000000050000SLR7010671000007040598SRI JAYA' PURA EDUCA                  2016-5170249181227000000
00007135279200160035259MUNASINGHE ARACHCHIG23000000000000000050000SLR7010671000007040598SRI JAYA' PURA EDUCA                  2012-1203410181227000000
00007135335200150010021CHAMODI AMASHA WEERA23000000000000000050000SLR7010671000007040598SRI JAYA' PURA EDUCA                  2015-1142399181227000000
00007135335200190009006THALAWITA BANDARAGE 23000000000000000050000SLR7010671000007040598SRI JAYA' PURA EDUCA                  2014-7143788181227000000
00007135335200170009074MEERIYAGALLA KANKANA23000000000000000050000SLR7010671000007040598SRI JAYA' PURA EDUCA                  2014-6837298181227000000
00007135300200160043328SWETHA SADEEPANI RAJ23000000000000000050000SLR7010671000007040598SRI JAYA' PURA EDUCA                  2014-7181990181227000000
00007135019200150004494LATHPADURAGE NISALYA23000000000000000050000SLR7010671000007040598SRI JAYA' PURA EDUCA                  2014-6747493181227000000
00007135097200210015175SAMADHI SATHSARANI R23000000000000000050000SLR7010671000007040598SRI JAYA' PURA EDUCA                  2014-6703143181227000000
00007135049200190036961ALWITIGALAGE DILUMI 23000000000000000050000SLR7010671000007040598SRI JAYA' PURA EDUCA                  2014-6796850181227000000
00007135049200130037119KAHANDA KORALAGE SET23000000000000000050000SLR7010671000007040598SRI JAYA' PURA EDUCA                  2014-6787657181227000000
00007135121200120020803SANDRADU CHATHUMI NI23000000000000000050000SLR7010671000007040598SRI JAYA' PURA EDUCA                  2014-7196440181227000000
00007135335200470007375NAWALAGE DISNI DINUW23000000000000000050000SLR7010671000007040598SRI JAYA' PURA EDUCA                  2013-4137205181227000000
00007135335200150005755POLGAMPALAGE MALSHI 23000000000000000050000SLR7010671000007040598SRI JAYA' PURA EDUCA                  2012-1237543181227000000
00007135335200180005693ATHUKORALAGE METHMIN23000000000000000050000SLR7010671000007040598SRI JAYA' PURA EDUCA                  2012-1291700181227000000
00007135335200100005687MAHA GAMAGE UTHPALA 23000000000000000050000SLR7010671000007040598SRI JAYA' PURA EDUCA                  2012-1311212181227000000
00007135335200140005850HEELA KANKANAMGE THI23000000000000000050000SLR7010671000007040598SRI JAYA' PURA EDUCA                  2012-1154281181227000000
00007135196200160015499YASIRU MANODYA AMARA23000000000000000050000SLR7010671000007040598SRI JAYA' PURA EDUCA                  2016-5169410181227000000
00007135196200110015595NANAYAKKARAWASAM WER23000000000000000050000SLR7010671000007040598SRI JAYA' PURA EDUCA                  2016-5170206181227000000
00007135196200110023393MALAGE NAWEEN DHANAN23000000000000000050000SLR7010671000007040598SRI JAYA' PURA EDUCA                  2016-5164206181227000000
00007135196200160005264NIWUNHELLAGE PIUMI K23000000000000000050000SLR7010671000007040598SRI JAYA' PURA EDUCA                  2010-1168460181227000000
00007135196200190002344MAHA MENDIGE SEHAN S23000000000000000050000SLR7010671000007040598SRI JAYA' PURA EDUCA                  2016-5463394181227000000
00007135322200110014896HERATH MUDIYANSELAGE23000000000000000050000SLR7010671000007040598SRI JAYA' PURA EDUCA                  2015-2889897181227000000
00007135196200130014463MEEGODA YAKDENIGE SA23000000000000000050000SLR7010671000007040598SRI JAYA' PURA EDUCA                  2012-1185950181227000000
00007135196200180006465CHARLS DIYASGE IMALS23000000000000000050000SLR7010671000007040598SRI JAYA' PURA EDUCA                  2014-6674852181227000000
00007135196200153904012CHAMATH SANKALPA BEN23000000000000000050000SLR7010671000007040598SRI JAYA' PURA EDUCA                  2014-6680380181227000000
00007135196200120020346MORALIYAGE DONA NEHA23000000000000000050000SLR7010671000007040598SRI JAYA' PURA EDUCA                  2014-6823718181227000000
00007135196196140017381WEERASEKARAGE NAVEEN23000000000000000050000SLR7010671000007040598SRI JAYA' PURA EDUCA                  2013-4449959181227000000
00007135196200180000949THEEKSHANA NETHSARA 23000000000000000050000SLR7010671000007040598SRI JAYA' PURA EDUCA                  2014-6823254181227000000
00007135196200160000950THILAKSHANA SATHSARA23000000000000000050000SLR7010671000007040598SRI JAYA' PURA EDUCA                  2014-6823203181227000000
00007135196200180018869KETAGODA GAMAGE THEW23000000000000000050000SLR7010671000007040598SRI JAYA' PURA EDUCA                  2014-6821839181227000000
00007135229200160001799KALUTHANTHRIGE SANDA23000000000000000050000SLR7010671000007040598SRI JAYA' PURA EDUCA                  2014-6810829181227000000
00007135229900130010598MALLIKAARACHCHIGE LA23000000000000000050000SLR7010671000007040598SRI JAYA' PURA EDUCA                  2014-6830846181227000000
00007135229200140022241POLWATHTHAGE DEVDUNU23000000000000000050000SLR7010671000007040598SRI JAYA' PURA EDUCA                  2014-6823092181227000000
00007135439920015003226KUMARAPELI ARACHCHIL23000000000000000050000SLR7010671000007040598SRI JAYA' PURA EDUCA                  2014-6832296181227000000
00007135439200103380705SUBASINGHE ARACHCHIG23000000000000000050000SLR7010671000007040598SRI JAYA' PURA EDUCA                  2014-6832482181227000000
00007135439200110032228MANANNALAGE AMEESHA 23000000000000000050000SLR7010671000007040598SRI JAYA' PURA EDUCA                  2014-6830714181227000000
00007135439900173380368KUMARAGE WATHTHAGE T23000000000000000050000SLR7010671000007040598SRI JAYA' PURA EDUCA                  2014-6832210181227000000
00007135439200100032144HEWASINGHAGE NETHRA 23000000000000000050000SLR7010671000007040598SRI JAYA' PURA EDUCA                  2014-6831427181227000000
00007135191001140005984MADALAGAMA APPUHAMIL23000000000000000050000SLR7010671000007040598SRI JAYA' PURA EDUCA                  2014-6922252181227000000
00007135191200110004113BUTHPITIYA LEKAMLAGE23000000000000000050000SLR7010671000007040598SRI JAYA' PURA EDUCA                  2014-6922279181227000000
00007135191200188229479GEESHAN ASHINSHANA S23000000000000000050000SLR7010671000007040598SRI JAYA' PURA EDUCA                  2014-6958117181227000000
00007135093200100013382DEDIGAMUWAGE SAKUNI 23000000000000000050000SLR7010671000007040598SRI JAYA' PURA EDUCA                  2014-6833110181227000000
00007135217200144320804ATHUKORALAGE PASINDU23000000000000000050000SLR7010671000007040598SRI JAYA' PURA EDUCA                  2012-1453505181227000000
00007135071200113346502HABARAGAMU RALALAGE 23000000000000000050000SLR7010671000007040598SRI JAYA' PURA EDUCA                  2014-6862071181227000000
00007135055200110033274WICKRAMA ARACHCHIGE 23000000000000000050000SLR7010671000007040598SRI JAYA' PURA EDUCA                  2014-6917666181227000000
00007135196200160028345HANDAPANGODA MUDALIG23000000000000000050000SLR7010671000007040598SRI JAYA' PURA EDUCA                  2014-6681930181227000000
00007135196200180028349INDUWARA RATHNAWEERA23000000000000000050000SLR7010671000007040598SRI JAYA' PURA EDUCA                  2010-1170902181227000000
00007135328200180029009BATUWITA WALAGE KAVI23000000000000000050000SLR7010671000007040598SRI JAYA' PURA EDUCA                  2014-6675409181227000000
00007135196200263901705HERATHHAMIGE DHARMAS23000000000000000050000SLR7010671000007040598SRI JAYA' PURA EDUCA                  2013-4173260181227000000
00007135017200130056017RAIGAMAGE DON YASASV23000000000000000050000SLR7010671000007040598SRI JAYA' PURA EDUCA                  2013-5389623181227000000
00007135079200194374893HEWA THONDILAGE THIL23000000000000000050000SLR7010671000007040598SRI JAYA' PURA EDUCA                  2010-1584103181227000000
00007135409200120012757WELLAWATTA ARACHCHIG23000000000000000050000SLR7010671000007040598SRI JAYA' PURA EDUCA                  2010-1285572181227000000
00007135306200120012651KUMARA UNNEHELAGE DO23000000000000000050000SLR7010671000007040598SRI JAYA' PURA EDUCA                  2012-1207253181227000000
00007135306200140012909NADHUNI DILHARA WEER23000000000000000050000SLR7010671000007040598SRI JAYA' PURA EDUCA                  2012-1239856181227000000
00007135306200160012673    NETHMI WITHANAGE23000000000000000050000SLR7010671000007040598SRI JAYA' PURA EDUCA                  2012-1667610181227000000
00007135306200150012923KRISHAN PRAVEEN SURI23000000000000000050000SLR7010671000007040598SRI JAYA' PURA EDUCA                  2012-1312774181227000000
00007135306200120012646MALKI SUBODHA WICKRA23000000000000000050000SLR7010671000007040598SRI JAYA' PURA EDUCA                  2012-1239899181227000000
00007135306200220521054KANANKE GAMAGE SAVIN23000000000000000050000SLR7010671000007040598SRI JAYA' PURA EDUCA                  2012-1239783181227000000
00007135306200190012596THRIMANNA HETTIGE DO23000000000000000050000SLR7010671000007040598SRI JAYA' PURA EDUCA                  2012-1207385181227000000
00007135306200100025008LELWALA LIYANAGE LAS23000000000000000050000SLR7010671000007040598SRI JAYA' PURA EDUCA                  2012-1312464181227000000
00007135306200170012781MANANKANDALAGE ANURA23000000000000000050000SLR7010671000007040598SRI JAYA' PURA EDUCA                  2012-1294156181227000000
00007135306200170012601ARUNDI GEESARANI WED23000000000000000050000SLR7010671000007040598SRI JAYA' PURA EDUCA                  2012-1198378181227000000
00007135306200160012625HEWASAM GAMAGE SAMAD23000000000000000050000SLR7010671000007040598SRI JAYA' PURA EDUCA                  2012-1198394181227000000
00007135306200180012926KOTTE ACHARIGE PASIN23000000000000000050000SLR7010671000007040598SRI JAYA' PURA EDUCA                  2012-1309722181227000000
00007135306200220012655MERIGNGNAGE MALEESHA23000000000000000050000SLR7010671000007040598SRI JAYA' PURA EDUCA                  2012-1292544181227000000
00007135306200110012717GAMAGE SEWMINI ASHIN23000000000000000050000SLR7010671000007040598SRI JAYA' PURA EDUCA                  2012-1316583181227000000
00007135306200140012626PITUMPE ARACHCHIGE K23000000000000000050000SLR7010671000007040598SRI JAYA' PURA EDUCA                  2012-1183273181227000000
00007135306200120012458GALLAGE NETHMI SANDE23000000000000000050000SLR7010671000007040598SRI JAYA' PURA EDUCA                  2012-1291726181227000000
00007135306200110012492HEWAWASAM PUWAKPITIY23000000000000000050000SLR7010671000007040598SRI JAYA' PURA EDUCA                  2012-1297694181227000000
00007135306200160017842WEERASINGHA MUDIYANS23000000000000000050000SLR7010671000007040598SRI JAYA' PURA EDUCA                  2012-1202502181227000000
00007135306200160012499HETTIARACHCHIGE ISUM23000000000000000050000SLR7010671000007040598SRI JAYA' PURA EDUCA                  2012-1176358181227000000
00007135306200190012488RAJAKARUNA WICKRAMAS23000000000000000050000SLR7010671000007040598SRI JAYA' PURA EDUCA                  2012-1247751181227000000
00007135306200110012920SAMARASINGHE HEWAGE 23000000000000000050000SLR7010671000007040598SRI JAYA' PURA EDUCA                  2012-1207229181227000000
00007135306200180012889JASENTU KANKANAMGE S23000000000000000050000SLR7010671000007040598SRI JAYA' PURA EDUCA                  2012-2074923181227000000
00007135306200120012887ALAHAPPERUMA ARACHCH23000000000000000050000SLR7010671000007040598SRI JAYA' PURA EDUCA                  2012-1245368181227000000
00007135196200180009553PANAMBARAGE CHAMOD U23000000000000000050000SLR7010671000007040598SRI JAYA' PURA EDUCA                  2010-1163639181227000000
00007135306200270012950LAHIRUNI HANSAMALI M23000000000000000050000SLR7010671000007040598SRI JAYA' PURA EDUCA                  2012-2243172181227000000
00007135306200108093230DEGAMBADA SACHINI GI23000000000000000050000SLR7010671000007040598SRI JAYA' PURA EDUCA                  2010-1182447181227000000
00007135306200130007852RANASINGHE ARACHCHIG23000000000000000050000SLR7010671000007040598SRI JAYA' PURA EDUCA                  2010-1191381181227000000
00007135306200110008126HATHIRINGE DON HESHA23000000000000000050000SLR7010671000007040598SRI JAYA' PURA EDUCA                  2010-1632434181227000000
00007135306200110022245KALUSAYAKKARAGE KAVE23000000000000000050000SLR7010671000007040598SRI JAYA' PURA EDUCA                  2010-1616641181227000000
00007135306200140022244RAJAPAKSHA PATHIRAGE23000000000000000050000SLR7010671000007040598SRI JAYA' PURA EDUCA                  2010-1303015181227000000
00007135306200140022201SUBASINGHA ARACHCHIG23000000000000000050000SLR7010671000007040598SRI JAYA' PURA EDUCA                  2010-1194771181227000000
00007135306200190022265BELIGODA ATHULATHMUD23000000000000000050000SLR7010671000007040598SRI JAYA' PURA EDUCA                  2010-1214870181227000000
00007135306200120022179YAMANGE SHASHINI DIL23000000000000000050000SLR7010671000007040598SRI JAYA' PURA EDUCA                  2010-1197398181227000000
00007135306200180022261JAYALATH ACHCHIGE BU23000000000000000050000SLR7010671000007040598SRI JAYA' PURA EDUCA                  2010-1168070181227000000
00007135306200170022214HETTI ARACHCHIGE MES23000000000000000050000SLR7010671000007040598SRI JAYA' PURA EDUCA                  2010-1303600181227000000
00007135306200170022228HEWA ARACHCHIGE NIME23000000000000000050000SLR7010671000007040598SRI JAYA' PURA EDUCA                  2010-1167057181227000000
00007135306200120022202GORAKAPITIYAGE TANIY23000000000000000050000SLR7010671000007040598SRI JAYA' PURA EDUCA                  2010-1274538181227000000
00007135306200130007828BOKALAWALA GEDARA SA23000000000000000050000SLR7010671000007040598SRI JAYA' PURA EDUCA                  2010-1188402181227000000
00007135306200110022354GAMALAJJAGE DONA ISH23000000000000000050000SLR7010671000007040598SRI JAYA' PURA EDUCA                  2010-1301608181227000000
00007135306200170007812RUSHINI DINUSHIKA SU23000000000000000050000SLR7010671000007040598SRI JAYA' PURA EDUCA                  2010-1276638181227000000
00007135306200120007824ATHAPATHTHU HEWAWASA23000000000000000050000SLR7010671000007040598SRI JAYA' PURA EDUCA                  2010-1169475181227000000
00007135306200211999413WATAREKA WELIVITAGE 23000000000000000050000SLR7010671000007040598SRI JAYA' PURA EDUCA                  2010-1191330181227000000
00007135306200160007822KATHRI ACHCHIGE PAWA23000000000000000050000SLR7010671000007040598SRI JAYA' PURA EDUCA                  2010-1273663181227000000
00007135306200120018511PORAGE DONA MENUSHI 23000000000000000050000SLR7010671000007040598SRI JAYA' PURA EDUCA                  2015-1235419181227000000
00007135306200250018514BULATHSINHALA ARACHC23000000000000000050000SLR7010671000007040598SRI JAYA' PURA EDUCA                  2015-1208896181227000000
00007135306200150019769PAHALA WITHANAGE DIN23000000000000000050000SLR7010671000007040598SRI JAYA' PURA EDUCA                  2015-1197304181227000000
00007135306200360018631KAVITHMA DULNETHMI W23000000000000000050000SLR7010671000007040598SRI JAYA' PURA EDUCA                  2015-1190296181227000000
00007135306200190018621DISSANAYAKA MUDIYANS23000000000000000050000SLR7010671000007040598SRI JAYA' PURA EDUCA                  2015-1190431181227000000
00007135306200150018543BALASOORIYA WIMALAWI23000000000000000050000SLR7010671000007040598SRI JAYA' PURA EDUCA                  2015-1191500181227000000
00007135306200130018520THISENI WEERASINGHA 23000000000000000050000SLR7010671000007040598SRI JAYA' PURA EDUCA                  2015-1312375181227000000
00007135306200150016756KALATUWAVAGE MALEESH23000000000000000050000SLR7010671000007040598SRI JAYA' PURA EDUCA                  2014-6815693181227000000
00007135306200120016767DILASHA PIUMALI LIYA23000000000000000050000SLR7010671000007040598SRI JAYA' PURA EDUCA                  2014-6798195181227000000
00007135279200190004300NARAHENPITAGE PRAVEE23000000000000000050000SLR7010671000007040598SRI JAYA' PURA EDUCA                  2011-5191009181227000000
00007135306200120018530LIYANA ARACHCHI PATA23000000000000000050000SLR7010671000007040598SRI JAYA' PURA EDUCA                  2015-1292978181227000000
00007135306200180018513KARIYAWASAM THIRANA 23000000000000000050000SLR7010671000007040598SRI JAYA' PURA EDUCA                  2015-1290410181227000000
00007135306200100018512SOMANANDA APPUHAMILL23000000000000000050000SLR7010671000007040598SRI JAYA' PURA EDUCA                  2015-1235940181227000000
00007135306200170016779SENADHEERAGE NOHOTH 23000000000000000050000SLR7010671000007040598SRI JAYA' PURA EDUCA                  2014-6831362181227000000
00007135279200130014496HEWA GAMAGE HIRUSHA 23000000000000000050000SLR7010671000007040598SRI JAYA' PURA EDUCA                  2012-1225472181227000000
00007135306200100016754ALLINA LOKUGE NIMSAR23000000000000000050000SLR7010671000007040598SRI JAYA' PURA EDUCA                  2014-6821111181227000000
00007135279200160019162KAPUGE DON NEHAN MAD23000000000000000050000SLR7010671000007040598SRI JAYA' PURA EDUCA                  2012-1168819181227000000
00007135306200130016762PANAKOORA KANKANAMAL23000000000000000050000SLR7010671000007040598SRI JAYA' PURA EDUCA                  2014-6813496181227000000
00007135306200170016760MANUWELGE DON MELANI23000000000000000050000SLR7010671000007040598SRI JAYA' PURA EDUCA                  2014-6697330181227000000
00007135306200160016751MAKULUKOTUNNAGE AKIL23000000000000000050000SLR7010671000007040598SRI JAYA' PURA EDUCA                  2014-6690190181227000000
00007135306200120016753WANNI ACHCHIGE HASHI23000000000000000050000SLR7010671000007040598SRI JAYA' PURA EDUCA                  2014-6796893181227000000
00007135306200150016836KANAKKU HEWAGE KESHA23000000000000000050000SLR7010671000007040598SRI JAYA' PURA EDUCA                  2014-8831114181227000000
00007135306200190016815AYANA UTHSARA WICKRA23000000000000000050000SLR7010671000007040598SRI JAYA' PURA EDUCA                  2014-6689124181227000000
00007135306200160016812THARUSHI NETHMINI GA23000000000000000050000SLR7010671000007040598SRI JAYA' PURA EDUCA                  2014-6689515181227000000
00007135306200160016826NIRMITHA WICHAKSHANA23000000000000000050000SLR7010671000007040598SRI JAYA' PURA EDUCA                  2014-6689388181227000000
00007135306200130016776KATHTHRIACHCHI PINNA23000000000000000050000SLR7010671000007040598SRI JAYA' PURA EDUCA                  2014-6820280181227000000
00007135306200180016991MUDAGAN SARUKKALIGE 23000000000000000050000SLR7010671000007040598SRI JAYA' PURA EDUCA                  2014-6812635181227000000
00007135306200160016992KOTHALAWALAGE YASIRU23000000000000000050000SLR7010671000007040598SRI JAYA' PURA EDUCA                  2014-6798810181227000000
00007135306200120016989IMBULGODA GAMAGE JAN23000000000000000050000SLR7010671000007040598SRI JAYA' PURA EDUCA                  2014-6808034181227000000
00007135306200107624292INDURUWAGE MANUGI KA23000000000000000050000SLR7010671000007040598SRI JAYA' PURA EDUCA                  2013-4182693181227000000
00007135306200130015022WIJESEKARA GUNAWARDA23000000000000000050000SLR7010671000007040598SRI JAYA' PURA EDUCA                  2013-4292928181227000000
00007135306200130012716DON GARUKA METHMAN S23000000000000000050000SLR7010671000007040598SRI JAYA' PURA EDUCA                  2012-1195921181227000000
00007135306200100012459BELIGAHAMULAGE NAWOD23000000000000000050000SLR7010671000007040598SRI JAYA' PURA EDUCA                  2012-1182951181227000000
00007135306200100007815HIDDADURAGE THUSHARA23000000000000000050000SLR7010671000007040598SRI JAYA' PURA EDUCA                  2010-1170724181227000000
00007135306200190007811KAVEESHA NIRMAL BALA23000000000000000050000SLR7010671000007040598SRI JAYA' PURA EDUCA                  2010-1276476181227000000
00007135306200190007849KIRAHANDI DON THARU 23000000000000000050000SLR7010671000007040598SRI JAYA' PURA EDUCA                  2010-1303139181227000000
00007135306200180007864KOLOMBAGE NETHMI ANU23000000000000000050000SLR7010671000007040598SRI JAYA' PURA EDUCA                  2010-1222007181227000000
00007135306200190007825SURAWEERA ARACHCHIGE23000000000000000050000SLR7010671000007040598SRI JAYA' PURA EDUCA                  2010-1291645181227000000
00007135306200190007806RAJAPAKSHA PATHIRANA23000000000000000050000SLR7010671000007040598SRI JAYA' PURA EDUCA                  2010-1278738181227000000
00007135306200120008300SATHARASINGHE ARACHC23000000000000000050000SLR7010671000007040598SRI JAYA' PURA EDUCA                  2010-1196898181227000000
00007135306200150007870MUHANDIRAMLAGE DILAN23000000000000000050000SLR7010671000007040598SRI JAYA' PURA EDUCA                  2010-1282727181227000000
00007135306200170007807WEERASIRI NARAYANA N23000000000000000050000SLR7010671000007040598SRI JAYA' PURA EDUCA                  2010-1194828181227000000
00007135306200140007875YAKUPITIYA SUHEL NIM23000000000000000050000SLR7010671000007040598SRI JAYA' PURA EDUCA                  2010-1184059181227000000
00007135306200120023065GAMAGE RASHINI SANJA23000000000000000050000SLR7010671000007040598SRI JAYA' PURA EDUCA                  2017-1197720181227000000
00007135306200170024326RAMANAYAKALAGE DESHA23000000000000000050000SLR7010671000007040598SRI JAYA' PURA EDUCA                  2011-5304202181227000000
00007135306200120024263WEERAKOON ACHCHIGE I23000000000000000050000SLR7010671000007040598SRI JAYA' PURA EDUCA                  2011-5642370181227000000
00007135306200140024064RANTHOTIGE DUSHANI N23000000000000000050000SLR7010671000007040598SRI JAYA' PURA EDUCA                  2011-5313325181227000000
00007135306200190024250PATHIRAGE MADHUSHI H23000000000000000050000SLR7010671000007040598SRI JAYA' PURA EDUCA                  2011-5238269181227000000
00007135306200160024077WEDUMPULI ACHCHIGE D23000000000000000050000SLR7010671000007040598SRI JAYA' PURA EDUCA                  2011-5230977181227000000
00007135306200130024026NANIMI ACHCHIGE DONA23000000000000000050000SLR7010671000007040598SRI JAYA' PURA EDUCA                  2011-5204259181227000000
00007135306200160023959BUDDHI NIMASHA RAMAN23000000000000000050000SLR7010671000007040598SRI JAYA' PURA EDUCA                  2011-5314887181227000000
00007135306200170024067KODITHUWAKKU THARUSH23000000000000000050000SLR7010671000007040598SRI JAYA' PURA EDUCA                  2011-5165717181227000000
00007135306200100010115PETIKIRI ARACHCHIGE 23000000000000000050000SLR7010671000007040598SRI JAYA' PURA EDUCA                  2011-5285518181227000000
00007135306200100022321HEWAYALAGE DIMITHRI 23000000000000000050000SLR7010671000007040598SRI JAYA' PURA EDUCA                  2010-3682374181227000000
00007135196200180022837PADUWAWALA KANKANAMA23000000000000000050000SLR7010671000007040598SRI JAYA' PURA EDUCA                  2013-4175328181227000000
00007135306200150010066NANAYAKKARAWASAM GOD23000000000000000050000SLR7010671000007040598SRI JAYA' PURA EDUCA                  2011-5301750181227000000
00007135306200160010056HEWAGE NAVODI SAUMYA23000000000000000050000SLR7010671000007040598SRI JAYA' PURA EDUCA                  2011-5650291181227000000
00007135306620010001020GINIMALAGE MALITH IN23000000000000000050000SLR7010671000007040598SRI JAYA' PURA EDUCA                  2011-5666686181227000000
00007135306200130010114MURUTHEN APPUGE THAS23000000000000000050000SLR7010671000007040598SRI JAYA' PURA EDUCA                  2011-6272142181227000000
00007135306200190010093WIJESOORIYA ARACHCHI23000000000000000050000SLR7010671000007040598SRI JAYA' PURA EDUCA                  2011-5194229181227000000
00007135306200130021248KESELWATTA GAM ACHAR23000000000000000050000SLR7010671000007040598SRI JAYA' PURA EDUCA                  2011-5161037181227000000
00007135306200140024115KODITHUWAKKU MADDAGE23000000000000000050000SLR7010671000007040598SRI JAYA' PURA EDUCA                  2011-5307910181227000000
00007135306200170024086KALATUWAWA HEWAWASAM23000000000000000050000SLR7010671000007040598SRI JAYA' PURA EDUCA                  2011-5312914181227000000
00007135306200130024045DASANAYAKAGE KRISHAN23000000000000000050000SLR7010671000007040598SRI JAYA' PURA EDUCA                  2011-5288711181227000000
00007135306200170024086MADDAGE DULANGA THIL23000000000000000050000SLR7010671000007040598SRI JAYA' PURA EDUCA                  2011-5288827181227000000
00007135306200180020921KURUPPU ACHCHIGE CHA23000000000000000050000SLR7010671000007040598SRI JAYA' PURA EDUCA                  2011-5289700181227000000
00007135049200127194126MABULAGE OSHADI KAVI23000000000000000050000SLR7010671000007040598SRI JAYA' PURA EDUCA                  2014-6680011181227000000
00007135174200180004349SAMARATHUNGA MUHANDI23000000000000000050000SLR7010671000007040598SRI JAYA' PURA EDUCA                  2011-5736293181227000000
00007135174200140004351KALANIE OMANTHI JAYA23000000000000000050000SLR7010671000007040598SRI JAYA' PURA EDUCA                  2011-5642132181227000000
00007135174200150004360MERIGNGNAGE DEHEMI N23000000000000000050000SLR7010671000007040598SRI JAYA' PURA EDUCA                  2011-5195292181227000000
00007135174200160004345GIGIRIWALA GAMAGE GI23000000000000000050000SLR7010671000007040598SRI JAYA' PURA EDUCA                  2011-5678420181227000000
00007135174200120004352KANKANAMGE DON MALIN23000000000000000050000SLR7010671000007040598SRI JAYA' PURA EDUCA                  2011-5249295181227000000
00007135174200190004339VITHANAGE JANEESHA U23000000000000000050000SLR7010671000007040598SRI JAYA' PURA EDUCA                  2011-5300312181227000000
00007135174200290000294AKMEEMANA VITHANAGE 23000000000000000050000SLR7010671000007040598SRI JAYA' PURA EDUCA                  2011-5222532181227000000
00007135174200100004348PANNALA HENEGEDARA Y23000000000000000050000SLR7010671000007040598SRI JAYA' PURA EDUCA                  2011-5285496181227000000
00007135174200130004342MAPITIYAGE HARSHI GI23000000000000000050000SLR7010671000007040598SRI JAYA' PURA EDUCA                  2011-5745128181227000000
00007135174200100004333PADUKKA VIDANALAGE R23000000000000000050000SLR7010671000007040598SRI JAYA' PURA EDUCA                  2011-5289610181227000000
00007135174200190004344RANASINGHA ARACHCHIG23000000000000000050000SLR7010671000007040598SRI JAYA' PURA EDUCA                  2011-5195470181227000000
00007135174200172826459PAYAGALA UDAWATHTHAG23000000000000000050000SLR7010671000007040598SRI JAYA' PURA EDUCA                  2011-5275903181227000000
00007135174200160004350NANOBI ARACHCHIGE TH23000000000000000050000SLR7010671000007040598SRI JAYA' PURA EDUCA                  2011-5123348181227000000
00007135174200180001464EASHANI UTHPALA DIAS23000000000000000050000SLR7010671000007040598SRI JAYA' PURA EDUCA                  2011-5141923181227000000
00007135174200150004355MATARAGE DON AYESHA 23000000000000000050000SLR7010671000007040598SRI JAYA' PURA EDUCA                  2011-5289823181227000000
00007135174200200011616WELIGAMA ARACHCHIGE 23000000000000000050000SLR7010671000007040598SRI JAYA' PURA EDUCA                  2010-1156845181227000000
00007135174001500126666ABEYRATHNA GUNASEKAR23000000000000000050000SLR7010671000007040598SRI JAYA' PURA EDUCA                  2010-1231103181227000000
00007135174200150003997KATRIARACHCHIGE THAR23000000000000000050000SLR7010671000007040598SRI JAYA' PURA EDUCA                  2010-1072889181227000000
00007135174200180980683DIVAKARA MOHOTTIGE C23000000000000000050000SLR7010671000007040598SRI JAYA' PURA EDUCA                  2010-1628259181227000000
00007135174200140011884JANAGE RASHINI NIMES23000000000000000050000SLR7010671000007040598SRI JAYA' PURA EDUCA                  2010-1187929181227000000
00007135174200180012047MEERIYAGALLAGE TENAL23000000000000000050000SLR7010671000007040598SRI JAYA' PURA EDUCA                  2016-5308828181227000000
00007135174200120005686JAYASINGHE ARACHCHIG23000000000000000050000SLR7010671000007040598SRI JAYA' PURA EDUCA                  2012-1229796181227000000
00007135174200190005697SURAWEERA ARACHCHIGE23000000000000000050000SLR7010671000007040598SRI JAYA' PURA EDUCA                  2012-1689290181227000000
00007135049200150036915NAULLAGE SUPUNI SAMA23000000000000000050000SLR7010671000007040598SRI JAYA' PURA EDUCA                  2014-6806520181227000000
00007135279200180008105RAIGAMAGE LETHMINI A23000000000000000050000SLR7010671000007040598SRI JAYA' PURA EDUCA                  2014-6657648181227000000
00007135103200140028446MAILANGE VIHAGI NETH23000000000000000050000SLR7010671000007040598SRI JAYA' PURA EDUCA                  2014-6743773181227000000
00007135174200130007604SANTHIYAGU GEVINDI P23000000000000000050000SLR7010671000007040598SRI JAYA' PURA EDUCA                  2013-4911091181227000000
00007135174200120004347MILLAVITIYA ARACHCHI23000000000000000050000SLR7010671000007040598SRI JAYA' PURA EDUCA                  2011-6492541181227000000
00007135174000071409405LIYANAGE USHANI KAUS23000000000000000050000SLR7010671000007040598SRI JAYA' PURA EDUCA                  2010-1188291181227000000
00007135174200160005811WEDUMPULIACHCHIGE DO23000000000000000050000SLR7010671000007040598SRI JAYA' PURA EDUCA                  2012-1237462181227000000
00007135174200180005669MUTHUTHANTHRIGE SANJ23000000000000000050000SLR7010671000007040598SRI JAYA' PURA EDUCA                  2012-1685643181227000000
00007135174200130005742SAMARAWEERA ARACHCHI23000000000000000050000SLR7010671000007040598SRI JAYA' PURA EDUCA                  2012-1334760181227000000
00007135229200120020342SAKALAWALLI ACHARIGE23000000000000000050000SLR7010671000007040598SRI JAYA' PURA EDUCA                  2014-6823742181227000000
00007135335200100005705HATHAMUNAGE LAKSARAN23000000000000000050000SLR7010671000007040598SRI JAYA' PURA EDUCA                  2012-1197142181227000000
00007135335200110004362THARUSHI CHAMATHKA W23000000000000000050000SLR7010671000007040598SRI JAYA' PURA EDUCA                  2011-5297982181227000000
00007135335200180004354LEVANGAMAGE DON MALK23000000000000000050000SLR7010671000007040598SRI JAYA' PURA EDUCA                  2011-6492380181227000000
00007135335200160004500KANKANIGE DINITHI JA23000000000000000050000SLR7010671000007040598SRI JAYA' PURA EDUCA                  2011-5173876181227000000
00007135174200170003939BEMINAHENNADIGE OSHI23000000000000000050000SLR7010671000007040598SRI JAYA' PURA EDUCA                  2010-1723669181227000000
00007135174200150004336BULATHSINHALA ARACHC23000000000000000050000SLR7010671000007040598SRI JAYA' PURA EDUCA                  2011-5230110181227000000
00007135306200150024474DISSANAYAKA MUDIYANS23000000000000000050000SLR7010671000007040598SRI JAYA' PURA EDUCA                  2011-5188776181227000000
00007135306200130023041RANATHUNGA ARACHCHIG23000000000000000050000SLR7010671000007040598SRI JAYA' PURA EDUCA                  2017-1321382181227000000
00007135306200100023028LIYANAPATHIRANALAGE 23000000000000000050000SLR7010671000007040598SRI JAYA' PURA EDUCA                  2017-1176382181227000000
00007135306200140022748MESTI ARACHCHIGE NES23000000000000000050000SLR7010671000007040598SRI JAYA' PURA EDUCA                  2016-5320658181227000000
00007135306200100022750SELLAHANNADI SENURI 23000000000000000050000SLR7010671000007040598SRI JAYA' PURA EDUCA                  2016-6351018181227000000
00007135306200140018384SARUWA BANDAGE SUBAT23000000000000000050000SLR7010671000007040598SRI JAYA' PURA EDUCA                  2015-1174843181227000000
00007135306200140016752THAVINDANA RAJAGIRIY23000000000000000050000SLR7010671000007040598SRI JAYA' PURA EDUCA                  2014-6791115181227000000
00007135306200170016755KUMARAGE THARUSHI TH23000000000000000050000SLR7010671000007040598SRI JAYA' PURA EDUCA                  2014-6813810181227000000
00007135306200160018552KALUTHANTHRIGE OMETH23000000000000000050000SLR7010671000007040598SRI JAYA' PURA EDUCA                  2014-6691340181227000000
00007135306200180022157LIYANAGE DONA HESHAN23000000000000000050000SLR7010671000007040598SRI JAYA' PURA EDUCA                  2010-1144138181227000000
00007135306200150024252KANAHALA GAMAGE SANU23000000000000000050000SLR7010671000007040598SRI JAYA' PURA EDUCA                  2011-5197813181227000000
00007135306200100024424DEWAGE PRABHASHINI S23000000000000000050000SLR7010671000007040598SRI JAYA' PURA EDUCA                  2011-5307864181227000000
00007135208200170014176EDIRISURIYA MOHOTTIG23000000000000000050000SLR7010671000007040598SRI JAYA' PURA EDUCA                  2011-5158389181227000000
00007135306001600185509DEWAMUNI SASHANDI SA23000000000000000050000SLR7010671000007040598SRI JAYA' PURA EDUCA                  2015-1292277181227000000
