00007010642000001910482VITHARANA GAMAGE MAL23000000000000000050000SLR7135049100159025428HOMAGAMA EDUCATIONAL                  2010-2452901181227000000
00007010530000001213008MANANNALAGE NALIN PA23000000000000000050000SLR7135049100159025428HOMAGAMA EDUCATIONAL                  2012-1331655181227000000
00007010530000007340460BOMBUGALAGE CHAMINDU23000000000000000050000SLR7135049100159025428HOMAGAMA EDUCATIONAL                  2012-1333500181227000000
00007010530000074478633KANDE KANKANAMALAGE 23000000000000000050000SLR7135049100159025428HOMAGAMA EDUCATIONAL                  2012-2505444181227000000
00007010530000001213350ADIRIYAN KANKANAMALA23000000000000000050000SLR7135049100159025428HOMAGAMA EDUCATIONAL                  2013-4322312181227000000
00007010538000075727449MUTHUNAYAKAGE DILAKS23000000000000000050000SLR7135049100159025428HOMAGAMA EDUCATIONAL                  2013-5215633181227000000
00007010530000075612668KURUWITA GODE GAMARA23000000000000000050000SLR7135049100159025428HOMAGAMA EDUCATIONAL                  2013-5526906181227000000
00007010530000076701352ILANDARI PEDIGE PAVA23000000000000000050000SLR7135049100159025428HOMAGAMA EDUCATIONAL                  2013-5532604181227000000
00007010530000077242821HIRUNI LAKMALI DALUW23000000000000000050000SLR7135049100159025428HOMAGAMA EDUCATIONAL                  2014-6832652181227000000
00007010530000077373174ABEYKOON MUDIYANSELA23000000000000000050000SLR7135049100159025428HOMAGAMA EDUCATIONAL                  2014-6833608181227000000
00007010530000077406080WICKRAMA ARACHCHILAG23000000000000000050000SLR7135049100159025428HOMAGAMA EDUCATIONAL                  2014-6833632181227000000
00007010530000004921590RAJAPAKSHA ARACHCHIL23000000000000000050000SLR7135049100159025428HOMAGAMA EDUCATIONAL                  2014-6833691181227000000
00007010634000006283081KODIKARA ARACHCHIGE 23000000000000000050000SLR7135049100159025428HOMAGAMA EDUCATIONAL                  2014-6834078181227000000
00007010530000008283959WEERASINGA ARACHCHIL23000000000000000050000SLR7135049100159025428HOMAGAMA EDUCATIONAL                  2014-6834159181227000000
00007010530000077441262NAWALA ARACHCHILAGE 23000000000000000050000SLR7135049100159025428HOMAGAMA EDUCATIONAL                  2014-6882374181227000000
00007010530000078629010MAHARANHILI EE WADUG23000000000000000050000SLR7135049100159025428HOMAGAMA EDUCATIONAL                  2015-1334590181227000000
00007010568000082073301MALEESHA DEWSHAN JAN23000000000000000050000SLR7135049100159025428HOMAGAMA EDUCATIONAL                  2017-1151096181227000000
00007010568000082520179PATTIYA VIDANALAGE S23000000000000000050000SLR7135049100159025428HOMAGAMA EDUCATIONAL                  2017-1161857181227000000
00007010568000082541754GAWASINGHE ARACHCHIG23000000000000000050000SLR7135049100159025428HOMAGAMA EDUCATIONAL                  2017-1161873181227000000
00007010568000082521863GOROKGAHA WATHTHAGE 23000000000000000050000SLR7135049100159025428HOMAGAMA EDUCATIONAL                  2017-1166018181227000000
00007010568000082541766KARANDANA GAMALATHGE23000000000000000050000SLR7135049100159025428HOMAGAMA EDUCATIONAL                  2017-1169777181227000000
00007010568000082538938WEDA MULLAGE SHASHIK23000000000000000050000SLR7135049100159025428HOMAGAMA EDUCATIONAL                  2017-1170252181227000000
00007010568000082487987BATAWALA KANKANAMLAG23000000000000000050000SLR7135049100159025428HOMAGAMA EDUCATIONAL                  2017-1171640181227000000
00007010568000082498136NAMMUNI ARACHCHIGE S23000000000000000050000SLR7135049100159025428HOMAGAMA EDUCATIONAL                  2017-1172867181227000000
00007010568000082640101YUWANDI IMALHARA JAY23000000000000000050000SLR7135049100159025428HOMAGAMA EDUCATIONAL                  2017-1173022181227000000
00007010568000082515560HETTIARACHCHIGE VIHA23000000000000000050000SLR7135049100159025428HOMAGAMA EDUCATIONAL                  2017-1174029181227000000
00007010568000082516511NANAYAKKARA WASAM AP23000000000000000050000SLR7135049100159025428HOMAGAMA EDUCATIONAL                  2017-1174550181227000000
00007010568000082484352KOLAMBA THANTHRIGE D23000000000000000050000SLR7135049100159025428HOMAGAMA EDUCATIONAL                  2017-1174576181227000000
00007010568000082509843PAHALA WALPOLA GAMAR23000000000000000050000SLR7135049100159025428HOMAGAMA EDUCATIONAL                  2017-1174789181227000000
00007010568000082068147MANEESHA DAMRUVAN JA23000000000000000050000SLR7135049100159025428HOMAGAMA EDUCATIONAL                  2017-1178466181227000000
00007010568000082071056 MAHEN GIMHAN HEWAGE23000000000000000050000SLR7135049100159025428HOMAGAMA EDUCATIONAL                  2017-1178539181227000000
00007010568000082643366MANANA DEWAGE PINIDU23000000000000000050000SLR7135049100159025428HOMAGAMA EDUCATIONAL                  2017-1178636181227000000
00007010568000082070409DISANAYAKE MUDIYANSE23000000000000000050000SLR7135049100159025428HOMAGAMA EDUCATIONAL                  2017-1178679181227000000
00007010568000083157207KIRIWATTUDUWAGE DINU23000000000000000050000SLR7135049100159025428HOMAGAMA EDUCATIONAL                  2017-1179497181227000000
00007010568000082060916KALUHATH MANETH PRAB23000000000000000050000SLR7135049100159025428HOMAGAMA EDUCATIONAL                  2017-1182579181227000000
00007010568000082521502PRANSISKU BADUGE BEV23000000000000000050000SLR7135049100159025428HOMAGAMA EDUCATIONAL                  2017-1185870181227000000
00007010568000082487321LOKUWADUGE SANUKA SA23000000000000000050000SLR7135049100159025428HOMAGAMA EDUCATIONAL                  2017-1186965181227000000
00007010568000082072769RANAWEERAGEI DEWMINI23000000000000000050000SLR7135049100159025428HOMAGAMA EDUCATIONAL                  2017-1187252181227000000
00007010568000082069682WEDAGE DAHAMDI METHS23000000000000000050000SLR7135049100159025428HOMAGAMA EDUCATIONAL                  2017-1187503181227000000
00007010568000082583460BATUWITA PATHIRANAGE23000000000000000050000SLR7135049100159025428HOMAGAMA EDUCATIONAL                  2017-1189700181227000000
00007010568000082520031THUMBUGALAGE THARUSH23000000000000000050000SLR7135049100159025428HOMAGAMA EDUCATIONAL                  2017-1198114181227000000
00007010568000081249132SOORIYA ARACHCHIGE S23000000000000000050000SLR7135049100159025428HOMAGAMA EDUCATIONAL                  2017-1199382181227000000
00007010773000076519776JAYAWARDHANA GAMACHC23000000000000000050000SLR7135049100159025428HOMAGAMA EDUCATIONAL                  2017-1199986181227000000
00007010568000082641603ATHUKORALAGE ANUHAS 23000000000000000050000SLR7135049100159025428HOMAGAMA EDUCATIONAL                  2017-1200046181227000000
00007010568000082070954THISUMI SATHSILUNI H23000000000000000050000SLR7135049100159025428HOMAGAMA EDUCATIONAL                  2017-1200321181227000000
00007010568000082520274KANKANAN DURAGE RUSA23000000000000000050000SLR7135049100159025428HOMAGAMA EDUCATIONAL                  2017-1201530181227000000
00007010568000082108450MORAHALAGE SEWMINA S23000000000000000050000SLR7135049100159025428HOMAGAMA EDUCATIONAL                  2017-1201794181227000000
00007010568000082070293HALPITA ACHARIGE SAS23000000000000000050000SLR7135049100159025428HOMAGAMA EDUCATIONAL                  2017-1201980181227000000
00007010568000082061904WITHANAGE YENUKA CHA23000000000000000050000SLR7135049100159025428HOMAGAMA EDUCATIONAL                  2017-1202022181227000000
00007010568000082646900AMARAKOON MOHOTTI WA23000000000000000050000SLR7135049100159025428HOMAGAMA EDUCATIONAL                  2017-1202065181227000000
00007010568000082518185JAYATHILAKE ARACHCHI23000000000000000050000SLR7135049100159025428HOMAGAMA EDUCATIONAL                  2017-1202227181227000000
00007010568000082060873LIYANAGE DIHANSA THU23000000000000000050000SLR7135049100159025428HOMAGAMA EDUCATIONAL                  2017-1202359181227000000
00007010568000082569791DISANAYAKE MUDIYANSE23000000000000000050000SLR7135049100159025428HOMAGAMA EDUCATIONAL                  2017-1202391181227000000
00007010568000082641712MUNA WEERAKANKANAMLA23000000000000000050000SLR7135049100159025428HOMAGAMA EDUCATIONAL                  2017-1202553181227000000
00007010568000082499521WIJJARUPAGEI THENURI23000000000000000050000SLR7135049100159025428HOMAGAMA EDUCATIONAL                  2017-1203673181227000000
00007010568000082512155MARAGE RAVINDU GIMHA23000000000000000050000SLR7135049100159025428HOMAGAMA EDUCATIONAL                  2017-1204157181227000000
00007010568000082463608BATAGODAGE THARUL SA23000000000000000050000SLR7135049100159025428HOMAGAMA EDUCATIONAL                  2017-1222600181227000000
00007010030000082047767ARAMBAGE ALIAS THALA23000000000000000050000SLR7135049100159025428HOMAGAMA EDUCATIONAL                  2017-1222660181227000000
00007010568000082827216MESTIYAGE DON BIHAND23000000000000000050000SLR7135049100159025428HOMAGAMA EDUCATIONAL                  2017-1222724181227000000
00007010568000082463881GANNILA HERATH MUDIY23000000000000000050000SLR7135049100159025428HOMAGAMA EDUCATIONAL                  2017-1222783181227000000
00007010568000082484496VENDAKON MUDIYANSELA23000000000000000050000SLR7135049100159025428HOMAGAMA EDUCATIONAL                  2017-1223143181227000000
00007010568000082510663PORAMBAGE KESHARA TH23000000000000000050000SLR7135049100159025428HOMAGAMA EDUCATIONAL                  2017-1226983181227000000
00007010568000082071148HORANAGE KAVEESHA NI23000000000000000050000SLR7135049100159025428HOMAGAMA EDUCATIONAL                  2017-1227254181227000000
00007010568000082500681WIJETHUNGA MUDIYANSE23000000000000000050000SLR7135049100159025428HOMAGAMA EDUCATIONAL                  2017-1233238181227000000
00007010568000082502416LIYANA ARACHCHIGE RU23000000000000000050000SLR7135049100159025428HOMAGAMA EDUCATIONAL                  2017-1233254181227000000
00007010568000082061170HENNAYAKA MUDIYANSEL23000000000000000050000SLR7135049100159025428HOMAGAMA EDUCATIONAL                  2017-1233483181227000000
00007010568000082499721DON THEEKSHANA RASHM23000000000000000050000SLR7135049100159025428HOMAGAMA EDUCATIONAL                  2017-1241770181227000000
00007010051000009782893HIMBUTU GODAGE NISHI23000000000000000050000SLR7135049100159025428HOMAGAMA EDUCATIONAL                  2017-1245546181227000000
00007010568000082520245THENUWARA ACHARIGE K23000000000000000050000SLR7135049100159025428HOMAGAMA EDUCATIONAL                  2017-1260120181227000000
00007010568000082640747HANDARA GAMAGE ISIND23000000000000000050000SLR7135049100159025428HOMAGAMA EDUCATIONAL                  2017-1283294181227000000
00007010568000082517250BRAHMANAGE MALITI TH23000000000000000050000SLR7135049100159025428HOMAGAMA EDUCATIONAL                  2017-1283626181227000000
00007010568000082060272BAMUNUARACHCHIGE VIS23000000000000000050000SLR7135049100159025428HOMAGAMA EDUCATIONAL                  2017-1286293181227000000
00007010568000082213407GORAKAPITIYAGE BINUR23000000000000000050000SLR7135049100159025428HOMAGAMA EDUCATIONAL                  2017-1286420181227000000
00007010568000082240015GONAGALA VITHANAGE B23000000000000000050000SLR7135049100159025428HOMAGAMA EDUCATIONAL                  2017-1286625181227000000
00007010568000082517304HEIYANTHUDUWAGE RASH23000000000000000050000SLR7135049100159025428HOMAGAMA EDUCATIONAL                  2017-1287630181227000000
00007010568000082061767RATHNAYAKA MUDIYANSE23000000000000000050000SLR7135049100159025428HOMAGAMA EDUCATIONAL                  2017-1287958181227000000
00007010568000082063909DALUWATHUMULLE GAMAG23000000000000000050000SLR7135049100159025428HOMAGAMA EDUCATIONAL                  2017-1288008181227000000
00007010568000082061838UTTHARA AMANDI HETTI23000000000000000050000SLR7135049100159025428HOMAGAMA EDUCATIONAL                  2017-1288105181227000000
00007010568000082516759RANASINGHA ARACHCHIL23000000000000000050000SLR7135049100159025428HOMAGAMA EDUCATIONAL                  2017-1288229181227000000
00007010568000082585789BERALELI HEWAGE DEWM23000000000000000050000SLR7135049100159025428HOMAGAMA EDUCATIONAL                  2017-1288938181227000000
00007010568000082504903WALAHANDUWA GAMAGE R23000000000000000050000SLR7135049100159025428HOMAGAMA EDUCATIONAL                  2017-1290886181227000000
00007010568000082505872SELLAPPERUMAGE YESHA23000000000000000050000SLR7135049100159025428HOMAGAMA EDUCATIONAL                  2017-1291289181227000000
00007010568000082501533PITIYAGE ALIAS JAYAT23000000000000000050000SLR7135049100159025428HOMAGAMA EDUCATIONAL                  2017-1291920181227000000
00007010568000082075918MEWNI MALITHMA KUMAR23000000000000000050000SLR7135049100159025428HOMAGAMA EDUCATIONAL                  2017-1291998181227000000
00007010568000082149648KUMARA SAMARASINGHE 23000000000000000050000SLR7135049100159025428HOMAGAMA EDUCATIONAL                  2017-1293265181227000000
00007010568000082511339VIBHUSHA PIYUMNIL WI23000000000000000050000SLR7135049100159025428HOMAGAMA EDUCATIONAL                  2017-1293664181227000000
00007010568000082502393KALEHE PATHIRANAGE H23000000000000000050000SLR7135049100159025428HOMAGAMA EDUCATIONAL                  2017-1293761181227000000
00007010568000082522356RANATUNGA GAMAGE SHA23000000000000000050000SLR7135049100159025428HOMAGAMA EDUCATIONAL                  2017-1295888181227000000
00007010568000082510349KALUPAHANAGE SANDUPA23000000000000000050000SLR7135049100159025428HOMAGAMA EDUCATIONAL                  2017-1296655181227000000
00007010643000082509819KURUPPU ACHCHIGE KAV23000000000000000050000SLR7135049100159025428HOMAGAMA EDUCATIONAL                  2017-1296981181227000000
00007010568000082082037WANASINGHE MUDIYANSE23000000000000000050000SLR7135049100159025428HOMAGAMA EDUCATIONAL                  2017-1297899181227000000
00007010568000082061334SHANUKA MIHAN EDIRIW23000000000000000050000SLR7135049100159025428HOMAGAMA EDUCATIONAL                  2017-1299069181227000000
00007010568000082501251PATHIRAGE NIMESH KAV23000000000000000050000SLR7135049100159025428HOMAGAMA EDUCATIONAL                  2017-1299174181227000000
00007010568000082517778HITIHAMILAGE PASINDU23000000000000000050000SLR7135049100159025428HOMAGAMA EDUCATIONAL                  2017-1299220181227000000
00007010568000082474258NATHADEWA KAPURALALA23000000000000000050000SLR7135049100159025428HOMAGAMA EDUCATIONAL                  2017-1299590181227000000
00007010568000082521179SINGAKKARA LIYANAGE 23000000000000000050000SLR7135049100159025428HOMAGAMA EDUCATIONAL                  2017-1299956181227000000
00007010678000070524844HASINDU HASARANGA WI23000000000000000050000SLR7135049100159025428HOMAGAMA EDUCATIONAL                  2017-1300393181227000000
00007010568000082071748SUDDHASUN WEERANARAY23000000000000000050000SLR7135049100159025428HOMAGAMA EDUCATIONAL                  2017-1300539181227000000
00007010568000082517155GAGANA SUVIPUL KATHR23000000000000000050000SLR7135049100159025428HOMAGAMA EDUCATIONAL                  2017-1300555181227000000
00007010568000082070562MANIKKU BADATHURUGE 23000000000000000050000SLR7135049100159025428HOMAGAMA EDUCATIONAL                  2017-1300628181227000000
00007010568000082511098ATHTHANAPOLA ARACHCH23000000000000000050000SLR7135049100159025428HOMAGAMA EDUCATIONAL                  2017-1300750181227000000
00007010568000082072199EDIRIMUNI DEWAYALAGE23000000000000000050000SLR7135049100159025428HOMAGAMA EDUCATIONAL                  2017-1302795181227000000
00007010568000082061551SIRISENA ARACHCHIGE 23000000000000000050000SLR7135049100159025428HOMAGAMA EDUCATIONAL                  2017-1303180181227000000
00007010568000082061643BALA LIYANAGE NISULI23000000000000000050000SLR7135049100159025428HOMAGAMA EDUCATIONAL                  2017-1303546181227000000
00007010568000082513439YASITHA RANGANA PANA23000000000000000050000SLR7135049100159025428HOMAGAMA EDUCATIONAL                  2017-1303937181227000000
00007010568000082510894PUNCHI HEWAGE PULITH23000000000000000050000SLR7135049100159025428HOMAGAMA EDUCATIONAL                  2017-1305832181227000000
00007010568000083157386MAPITIYAGE YASITH SA23000000000000000050000SLR7135049100159025428HOMAGAMA EDUCATIONAL                  2017-1306570181227000000
00007010568000082516858RUSIRU PAWAN MIRIHAN23000000000000000050000SLR7135049100159025428HOMAGAMA EDUCATIONAL                  2017-1306596181227000000
00007010568000082506348RANASINGHAGE JESHAN 23000000000000000050000SLR7135049100159025428HOMAGAMA EDUCATIONAL                  2017-1306600181227000000
00007010568000082041521ATHUKORALAGE VENURA 23000000000000000050000SLR7135049100159025428HOMAGAMA EDUCATIONAL                  2017-1306774181227000000
00007010568000082512757DON SIGERA NIMRODH J23000000000000000050000SLR7135049100159025428HOMAGAMA EDUCATIONAL                  2017-1306790181227000000
00007010568000082506485YENUKI SANDUPAMA GAM23000000000000000050000SLR7135049100159025428HOMAGAMA EDUCATIONAL                  2017-1309501181227000000
00007010568000082105895KANAELA ARACHCHIGE P23000000000000000050000SLR7135049100159025428HOMAGAMA EDUCATIONAL                  2017-1309684181227000000
00007010568000082076007RAMBUKKANA LIYANAGE 23000000000000000050000SLR7135049100159025428HOMAGAMA EDUCATIONAL                  2017-1309765181227000000
00007010568000082070065MEEMANAGE OCHIN HESH23000000000000000050000SLR7135049100159025428HOMAGAMA EDUCATIONAL                  2017-1311050181227000000
00007010568000082521344WELISARAGE AKASHA NE23000000000000000050000SLR7135049100159025428HOMAGAMA EDUCATIONAL                  2017-1311301181227000000
00007010568000082463735SANDITHI SENUTHMI JA23000000000000000050000SLR7135049100159025428HOMAGAMA EDUCATIONAL                  2017-1311328181227000000
00007010568000082639502KANKANIGE JAYOGI RUK23000000000000000050000SLR7135049100159025428HOMAGAMA EDUCATIONAL                  2017-1311336181227000000
00007010054000082112983HERATH MUDIYANSELAGE23000000000000000050000SLR7135049100159025428HOMAGAMA EDUCATIONAL                  2017-1313088181227000000
00007010568000082062060WALISARAGE ASHAN NIR23000000000000000050000SLR7135049100159025428HOMAGAMA EDUCATIONAL                  2017-1313312181227000000
00007010568000082626020GALLINDA WATHTHALAGE23000000000000000050000SLR7135049100159025428HOMAGAMA EDUCATIONAL                  2017-1313479181227000000
00007010568000082061943AMBHAGAHA WATHTHAGE 23000000000000000050000SLR7135049100159025428HOMAGAMA EDUCATIONAL                  2017-1313541181227000000
00007010568000082506852SOORIYA ARACHCHILAGE23000000000000000050000SLR7135049100159025428HOMAGAMA EDUCATIONAL                  2017-1313568181227000000
00007010568000082463720UDAKANDA KANKANAMALA23000000000000000050000SLR7135049100159025428HOMAGAMA EDUCATIONAL                  2017-1313630181227000000
00007010568000082500549OMANTHA MUDALIGE CHA23000000000000000050000SLR7135049100159025428HOMAGAMA EDUCATIONAL                  2017-1313681181227000000
00007010568000082500290UMESH DILSHAN RANAWE23000000000000000050000SLR7135049100159025428HOMAGAMA EDUCATIONAL                  2017-1315102181227000000
00007010568000082061127ALAPATHAGE MADHUSHA 23000000000000000050000SLR7135049100159025428HOMAGAMA EDUCATIONAL                  2017-1315145181227000000
00007010568000082484038RAJAPAKSHA MUDIYANSE23000000000000000050000SLR7135049100159025428HOMAGAMA EDUCATIONAL                  2017-1315196181227000000
00007010568000082538413JAYAWARDHANA KANKANA23000000000000000050000SLR7135049100159025428HOMAGAMA EDUCATIONAL                  2017-1315250181227000000
00007010568000082061986UDAGAMAGE MALINDU ME23000000000000000050000SLR7135049100159025428HOMAGAMA EDUCATIONAL                  2017-1315323181227000000
00007010568000082503982MALLIKA ARACHCHIGE G23000000000000000050000SLR7135049100159025428HOMAGAMA EDUCATIONAL                  2017-1315463181227000000
00007010568000082062038MYNADARA PEDIRISLAGE23000000000000000050000SLR7135049100159025428HOMAGAMA EDUCATIONAL                  2017-1315510181227000000
00007010568000082526815DOLUWEERAGE NISANSAL23000000000000000050000SLR7135049100159025428HOMAGAMA EDUCATIONAL                  2017-1316044181227000000
00007010568000082505620BOLLEGALAGE GANUKA I23000000000000000050000SLR7135049100159025428HOMAGAMA EDUCATIONAL                  2017-1316710181227000000
00007010568000082062195HEWA BATHEEGE YASIRU23000000000000000050000SLR7135049100159025428HOMAGAMA EDUCATIONAL                  2017-1318152181227000000
00007010568000082527418JAYASINGHE ARACHCHIG23000000000000000050000SLR7135049100159025428HOMAGAMA EDUCATIONAL                  2017-1320254181227000000
00007010568000082504755BODARA GAMAGE SACHIL23000000000000000050000SLR7135049100159025428HOMAGAMA EDUCATIONAL                  2017-1321005181227000000
00007010568000082515001DEWASURENDRA VIHANGI23000000000000000050000SLR7135049100159025428HOMAGAMA EDUCATIONAL                  2017-1321510181227000000
00007010568000082060953MEEPAWALAGE LOCHANA 23000000000000000050000SLR7135049100159025428HOMAGAMA EDUCATIONAL                  2017-1322818181227000000
00007010568000082069862ANTHO SINGNHOLAGE IS23000000000000000050000SLR7135049100159025428HOMAGAMA EDUCATIONAL                  2017-1323024181227000000
00007010568000082121290WITHARANAGE METHINA 23000000000000000050000SLR7135049100159025428HOMAGAMA EDUCATIONAL                  2017-1323105181227000000
00007010568000082677005EDIRIPAKSHA PEDIGE V23000000000000000050000SLR7135049100159025428HOMAGAMA EDUCATIONAL                  2017-1323440181227000000
00007010568000082521902DANTHASINGHE WADUGE 23000000000000000050000SLR7135049100159025428HOMAGAMA EDUCATIONAL                  2017-1323547181227000000
00007010568000082073811RANHILI PEDIGE SAWAN23000000000000000050000SLR7135049100159025428HOMAGAMA EDUCATIONAL                  2017-1323555181227000000
00007010568000082516172RATHNAMALALA BANDARA23000000000000000050000SLR7135049100159025428HOMAGAMA EDUCATIONAL                  2017-1328336181227000000
00007010568000082509710WICKRAMASINGHA ARACH23000000000000000050000SLR7135049100159025428HOMAGAMA EDUCATIONAL                  2017-1328530181227000000
00007010568000082506497RANBANDA DEWALAGE ME23000000000000000050000SLR7135049100159025428HOMAGAMA EDUCATIONAL                  2017-1329022181227000000
00007010568000082520127KALUTHARAGE EEKSHA N23000000000000000050000SLR7135049100159025428HOMAGAMA EDUCATIONAL                  2017-1329146181227000000
00007010568000082061871WATAGEDERA ARACHCHIL23000000000000000050000SLR7135049100159025428HOMAGAMA EDUCATIONAL                  2017-1330047181227000000
00007010057000082060211KALULIYANAGE LEWMINA23000000000000000050000SLR7135049100159025428HOMAGAMA EDUCATIONAL                  2017-1330314181227000000
00007010568000082060980MADURAPPERUMA AARACH23000000000000000050000SLR7135049100159025428HOMAGAMA EDUCATIONAL                  2017-1330870181227000000
00007010568000082520742MANANNALAGE NIHARA S23000000000000000050000SLR7135049100159025428HOMAGAMA EDUCATIONAL                  2017-1331361181227000000
00007010568000082061798DIGOGODA GAMPALAGE O23000000000000000050000SLR7135049100159025428HOMAGAMA EDUCATIONAL                  2017-1332953181227000000
00007135229200100009883SAMARASINGHE RANAWEE23000000000000000050000SLR7135049100159025428HOMAGAMA EDUCATIONAL                  2010-1156071181227000000
00007135229200210010404PUNCHINAKATHIGE KAVI23000000000000000050000SLR7135049100159025428HOMAGAMA EDUCATIONAL                  2010-1172239181227000000
00007135229200180009841MUHANDIRAM KARIYAPPE23000000000000000050000SLR7135049100159025428HOMAGAMA EDUCATIONAL                  2010-1174185181227000000
00007135229200190009850PUWAKPITIYA SUDUHAKU23000000000000000050000SLR7135049100159025428HOMAGAMA EDUCATIONAL                  2010-1174240181227000000
00007135229200130009886YOHAN THARUSHA DHANU23000000000000000050000SLR7135049100159025428HOMAGAMA EDUCATIONAL                  2010-1174606181227000000
00007135229200120009858DONA THANUJA DAMAYAN23000000000000000050000SLR7135049100159025428HOMAGAMA EDUCATIONAL                  2010-1174835181227000000
00007135229200160009880GANEWATHTHAGE DONA N23000000000000000050000SLR7135049100159025428HOMAGAMA EDUCATIONAL                  2010-1229656181227000000
00007135229200153855253WELIHENA GAMAGE RASI23000000000000000050000SLR7135049100159025428HOMAGAMA EDUCATIONAL                  2010-1273655181227000000
00007135229200170009870PATIKIRI ARACHCHIGE 23000000000000000050000SLR7135049100159025428HOMAGAMA EDUCATIONAL                  2010-1273671181227000000
00007135229200120009820PUSWELIMULLA GAMAGE 23000000000000000050000SLR7135049100159025428HOMAGAMA EDUCATIONAL                  2010-1289489181227000000
00007135229200170009894NAKANDALAGE DON RUKS23000000000000000050000SLR7135049100159025428HOMAGAMA EDUCATIONAL                  2010-1294679181227000000
00007135229200110009854GALLAGE DONA AMALKA 23000000000000000050000SLR7135049100159025428HOMAGAMA EDUCATIONAL                  2010-1294903181227000000
00007135229200190009888SAMARASINGHEGE NAWOD23000000000000000050000SLR7135049100159025428HOMAGAMA EDUCATIONAL                  2010-1295659181227000000
00007135229200150009885THUDUHENAGE NUVINI T23000000000000000050000SLR7135049100159025428HOMAGAMA EDUCATIONAL                  2010-1295802181227000000
00007135229200100009859EKKISSE GAMARALALAGE23000000000000000050000SLR7135049100159025428HOMAGAMA EDUCATIONAL                  2010-1296175181227000000
00007135229200140009857KADAWATHA PEDIGE THU23000000000000000050000SLR7135049100159025428HOMAGAMA EDUCATIONAL                  2010-1296213181227000000
00007135229200150009866WERALUPITIYAGE VIHAN23000000000000000050000SLR7135049100159025428HOMAGAMA EDUCATIONAL                  2010-1296523181227000000
00007135049200190014596BAMUNUARACHCHIGE THA23000000000000000050000SLR7135049100159025428HOMAGAMA EDUCATIONAL                  2010-1296558181227000000
00007135229200100009821P H NOHOTH CHANDRASE23000000000000000050000SLR7135049100159025428HOMAGAMA EDUCATIONAL                  2010-1298151181227000000
00007135229200100009840WARIYAPPERUMA APPUHA23000000000000000050000SLR7135049100159025428HOMAGAMA EDUCATIONAL                  2010-1298631181227000000
00007135229200130009867DISNA HEMACHANDRA LO23000000000000000050000SLR7135049100159025428HOMAGAMA EDUCATIONAL                  2010-1299220181227000000
00007135229200130009853PORAGE DONA NUWANDAR23000000000000000050000SLR7135049100159025428HOMAGAMA EDUCATIONAL                  2010-1301470181227000000
00007135229200160009856SODIGE DILAKSHI UDAR23000000000000000050000SLR7135049100159025428HOMAGAMA EDUCATIONAL                  2010-1301519181227000000
00007135229200140009046WEERASINGHE SANJULA 23000000000000000050000SLR7135049100159025428HOMAGAMA EDUCATIONAL                  2010-1302515181227000000
00007135229200140009838THANUWARA ARCHARIGE 23000000000000000050000SLR7135049100159025428HOMAGAMA EDUCATIONAL                  2010-1302531181227000000
00007135229200100014498RISHANI THISARA KOTH23000000000000000050000SLR7135049100159025428HOMAGAMA EDUCATIONAL                  2010-1302566181227000000
00007135229200160009837GAMAGE DONA SANDUNI 23000000000000000050000SLR7135049100159025428HOMAGAMA EDUCATIONAL                  2010-1302620181227000000
00007135229200120009839WICKRAMA ARACHCHIGE 23000000000000000050000SLR7135049100159025428HOMAGAMA EDUCATIONAL                  2010-1303708181227000000
00007135229200150010129WANIGANETHTHI PATHIR23000000000000000050000SLR7135049100159025428HOMAGAMA EDUCATIONAL                  2010-1303902181227000000
00007135229200120009882KARIYAWASAM GAMAGE S23000000000000000050000SLR7135049100159025428HOMAGAMA EDUCATIONAL                  2010-1303961181227000000
00007135229200190009336KANEWALAGE DON CHAMI23000000000000000050000SLR7135049100159025428HOMAGAMA EDUCATIONAL                  2010-1305069181227000000
00007135229200150009324PALIHADERU ARACHCHIG23000000000000000050000SLR7135049100159025428HOMAGAMA EDUCATIONAL                  2010-1305336181227000000
00007135229200153864238HEWAGAMAGE DON THARU23000000000000000050000SLR7135049100159025428HOMAGAMA EDUCATIONAL                  2010-1305727181227000000
00007135229200100009864BULATHSINHALAGE MADH23000000000000000050000SLR7135049100159025428HOMAGAMA EDUCATIONAL                  2010-1305778181227000000
00007135229200103858433DIMUTHU LAKSHAN WICK23000000000000000050000SLR7135049100159025428HOMAGAMA EDUCATIONAL                  2010-1305832181227000000
00007135229200190009529  JANITH EDIRISINGHE23000000000000000050000SLR7135049100159025428HOMAGAMA EDUCATIONAL                  2010-1305840181227000000
00007135229200110010386GAMALATH KANKANAMAGE23000000000000000050000SLR7135049100159025428HOMAGAMA EDUCATIONAL                  2010-1305930181227000000
00007135229200113864136APPUVITHARANA MUDIYA23000000000000000050000SLR7135049100159025428HOMAGAMA EDUCATIONAL                  2010-1306065181227000000
00007135229200123864206WEKAGE DONA YASITHA 23000000000000000050000SLR7135049100159025428HOMAGAMA EDUCATIONAL                  2010-1306197181227000000
00007135229200203856075EDIRISINGHE VITHANAG23000000000000000050000SLR7135049100159025428HOMAGAMA EDUCATIONAL                  2010-1306359181227000000
00007135229200140009254KASTHURI ARACHCHIGE 23000000000000000050000SLR7135049100159025428HOMAGAMA EDUCATIONAL                  2010-1309315181227000000
00007135229200120009896HEWAGE LAHIRU ASANGA23000000000000000050000SLR7135049100159025428HOMAGAMA EDUCATIONAL                  2010-1309617181227000000
00007135229200183864840BENGALAGE NILEESH SE23000000000000000050000SLR7135049100159025428HOMAGAMA EDUCATIONAL                  2010-1310917181227000000
00007135229200110009849HAPUGAHAMULA WATTE G23000000000000000050000SLR7135049100159025428HOMAGAMA EDUCATIONAL                  2010-1311190181227000000
00007135229200120009863LIYANA ARACHCHILAGE 23000000000000000050000SLR7135049100159025428HOMAGAMA EDUCATIONAL                  2010-1312120181227000000
00007135229200273852234KULATHUNGA MUDALIGE 23000000000000000050000SLR7135049100159025428HOMAGAMA EDUCATIONAL                  2010-1312154181227000000
00007135229200190009893RANAWAKAGE ISHINI CH23000000000000000050000SLR7135049100159025428HOMAGAMA EDUCATIONAL                  2010-1312278181227000000
00007135229200180009860MADAMPE MUDIYANSELAG23000000000000000050000SLR7135049100159025428HOMAGAMA EDUCATIONAL                  2010-1312561181227000000
00007135229200150009871MANTHREELAGE JANITH 23000000000000000050000SLR7135049100159025428HOMAGAMA EDUCATIONAL                  2010-1313177181227000000
00007135229200130010111BUTHPITIYA LEKAMLAGE23000000000000000050000SLR7135049100159025428HOMAGAMA EDUCATIONAL                  2010-1313665181227000000
00007135229200170011038ATIGALA KANKANAMLAGE23000000000000000050000SLR7135049100159025428HOMAGAMA EDUCATIONAL                  2010-1314750181227000000
00007135229200110009892PALLEKANDALAGE BUDDH23000000000000000050000SLR7135049100159025428HOMAGAMA EDUCATIONAL                  2010-1317261181227000000
00007135229200140009895HESHAN CHANDIMA NAND23000000000000000050000SLR7135049100159025428HOMAGAMA EDUCATIONAL                  2010-1317342181227000000
00007135229200160009861KORATHOTA DISANAYAKA23000000000000000050000SLR7135049100159025428HOMAGAMA EDUCATIONAL                  2010-1317415181227000000
00007135229200140009881LIYANAGE LAKSHAN SAV23000000000000000050000SLR7135049100159025428HOMAGAMA EDUCATIONAL                  2010-1317423181227000000
00007135229200140009862UNDIYA RALALAGE DONA23000000000000000050000SLR7135049100159025428HOMAGAMA EDUCATIONAL                  2010-1317903181227000000
00007135229200190010269ELLAWALA DEVAGE DINI23000000000000000050000SLR7135049100159025428HOMAGAMA EDUCATIONAL                  2010-1318039181227000000
00007135093200184636655KALUGALA HETTI MUDIY23000000000000000050000SLR7135049100159025428HOMAGAMA EDUCATIONAL                  2010-1389106181227000000
00007135229200170010270MUTHUTHANTHRIGE KAVI23000000000000000050000SLR7135049100159025428HOMAGAMA EDUCATIONAL                  2010-1389742181227000000
00007135229200140010115KAHAWE VIDANALAGE DO23000000000000000050000SLR7135049100159025428HOMAGAMA EDUCATIONAL                  2010-1390287181227000000
00007135229200120010116SHRI VEIKUNDA DEWANA23000000000000000050000SLR7135049100159025428HOMAGAMA EDUCATIONAL                  2010-1390325181227000000
00007135229200160009818HEIYANTHUDUWAGE SACH23000000000000000050000SLR7135049100159025428HOMAGAMA EDUCATIONAL                  2010-1395629181227000000
00007135229200180009817GANI ACHCHIGE ROSHAN23000000000000000050000SLR7135049100159025428HOMAGAMA EDUCATIONAL                  2010-1395726181227000000
00007135229200130009891SOORIYAPPERUMA WIDAN23000000000000000050000SLR7135049100159025428HOMAGAMA EDUCATIONAL                  2010-1395769181227000000
00007135229200170009827WEERAKKODIGE AVISHKA23000000000000000050000SLR7135049100159025428HOMAGAMA EDUCATIONAL                  2010-1397397181227000000
00007135093200170001998DADAYAKKARA DEWAGE G23000000000000000050000SLR7135049100159025428HOMAGAMA EDUCATIONAL                  2010-1398636181227000000
00007135229200190009869MIDIGAMAGE LOSHANI S23000000000000000050000SLR7135049100159025428HOMAGAMA EDUCATIONAL                  2010-2253259181227000000
00007135049200190019240PATHIRANNAHALAGE ISU23000000000000000050000SLR7135049100159025428HOMAGAMA EDUCATIONAL                  2011-5178762181227000000
00007135229200180012037SENANAYAKA ARACHCHIG23000000000000000050000SLR7135049100159025428HOMAGAMA EDUCATIONAL                  2011-5178894181227000000
00007135196200170011269BALADURAGE DENUWAN C23000000000000000050000SLR7135049100159025428HOMAGAMA EDUCATIONAL                  2011-5178924181227000000
00007135229200260012085HEWAWASAN PUWAKPITIY23000000000000000050000SLR7135049100159025428HOMAGAMA EDUCATIONAL                  2011-5178991181227000000
00007135229200170012047PARANDENIYA GAMAGE L23000000000000000050000SLR7135049100159025428HOMAGAMA EDUCATIONAL                  2011-5179076181227000000
00007135229200120012182ANGAMPITI PATHIRUNNA23000000000000000050000SLR7135049100159025428HOMAGAMA EDUCATIONAL                  2011-5180325181227000000
00007135229200160012284DONA THUMUDITHA UDAM23000000000000000050000SLR7135049100159025428HOMAGAMA EDUCATIONAL                  2011-5283469181227000000
00007135049200140018568DHANUKA LAKSHAN KIRI23000000000000000050000SLR7135049100159025428HOMAGAMA EDUCATIONAL                  2011-5288940181227000000
00007135229200160012104GAMAGE KAVINDU MADHU23000000000000000050000SLR7135049100159025428HOMAGAMA EDUCATIONAL                  2011-5300126181227000000
00007135229200180012080KAPUGE THISARINDU DU23000000000000000050000SLR7135049100159025428HOMAGAMA EDUCATIONAL                  2011-5300207181227000000
00007135022200165307789HEWAVITHARANA MAHESH23000000000000000050000SLR7135049100159025428HOMAGAMA EDUCATIONAL                  2011-5300320181227000000
00007135049200190190127GIMHANI KAWODYA GAMA23000000000000000050000SLR7135049100159025428HOMAGAMA EDUCATIONAL                  2011-5300762181227000000
00007135229200140012020KAPURUGE DON ANJANA 23000000000000000050000SLR7135049100159025428HOMAGAMA EDUCATIONAL                  2011-5304644181227000000
00007135229200170012146DONA GAYATHRI DUSHMA23000000000000000050000SLR7135049100159025428HOMAGAMA EDUCATIONAL                  2011-5305136181227000000
00007135229200110012074GALAGEDARAGE DILSHAN23000000000000000050000SLR7135049100159025428HOMAGAMA EDUCATIONAL                  2011-5307023181227000000
00007135049200110018555KASTHURI ARACHCHIGE 23000000000000000050000SLR7135049100159025428HOMAGAMA EDUCATIONAL                  2011-5307139181227000000
00007135229200180012160UDAGAMA WAHAMPURAGE 23000000000000000050000SLR7135049100159025428HOMAGAMA EDUCATIONAL                  2011-5307511181227000000
00007135229200190012206IMBULANAGE HIRUNI PR23000000000000000050000SLR7135049100159025428HOMAGAMA EDUCATIONAL                  2011-5307520181227000000
00007135049200130018564PIYUMI THARUSHIKA WE23000000000000000050000SLR7135049100159025428HOMAGAMA EDUCATIONAL                  2011-5307970181227000000
00007135229200150012048SAMARAPPULIGE SHANIK23000000000000000050000SLR7135049100159025428HOMAGAMA EDUCATIONAL                  2011-5309344181227000000
00007135229200130012129HEWAGE DINUWARA DEEG23000000000000000050000SLR7135049100159025428HOMAGAMA EDUCATIONAL                  2011-5309930181227000000
00007135229200220012087MADDUMA LIYANAGE SAM23000000000000000050000SLR7135049100159025428HOMAGAMA EDUCATIONAL                  2011-5311136181227000000
00007135229200140012082BINURI MINDULA JAYAS23000000000000000050000SLR7135049100159025428HOMAGAMA EDUCATIONAL                  2011-5311497181227000000
00007135229200240012067WELIKALA VITHANAGE L23000000000000000050000SLR7135049100159025428HOMAGAMA EDUCATIONAL                  2011-5312779181227000000
00007135229200160012081GAMAGE PIYUMI THARUS23000000000000000050000SLR7135049100159025428HOMAGAMA EDUCATIONAL                  2011-5312787181227000000
00007135229200110012093DILUM ANJANA KARUNAT23000000000000000050000SLR7135049100159025428HOMAGAMA EDUCATIONAL                  2011-5313236181227000000
00007135229200120012243HEWAHINGE HANSI KAUS23000000000000000050000SLR7135049100159025428HOMAGAMA EDUCATIONAL                  2011-5313392181227000000
00007135229200120012101DELPE CHITHRACHARIGE23000000000000000050000SLR7135049100159025428HOMAGAMA EDUCATIONAL                  2011-5313872181227000000
00007135229200283854464WIJESINGHE PEDIGE SA23000000000000000050000SLR7135049100159025428HOMAGAMA EDUCATIONAL                  2011-5314933181227000000
00007135229200273861506EDIRISINGHE ARACHCHI23000000000000000050000SLR7135049100159025428HOMAGAMA EDUCATIONAL                  2011-5316456181227000000
00007135229200258026254KURUKULA ARACHCHIGE 23000000000000000050000SLR7135049100159025428HOMAGAMA EDUCATIONAL                  2011-5316499181227000000
00007135229200180012117KURUKULA ARACHCHIGE 23000000000000000050000SLR7135049100159025428HOMAGAMA EDUCATIONAL                  2011-5316502181227000000
00007135229200193857274HIRIPITIYALAGE HASIN23000000000000000050000SLR7135049100159025428HOMAGAMA EDUCATIONAL                  2011-5316618181227000000
00007135229200283855147WAVITA VIDANALAGE DO23000000000000000050000SLR7135049100159025428HOMAGAMA EDUCATIONAL                  2011-5316847181227000000
00007135229200170012071DIMIGU VITHARANALAGE23000000000000000050000SLR7135049100159025428HOMAGAMA EDUCATIONAL                  2011-5316898181227000000
00007135229200113853944LIHINIKADU GAMAGE RA23000000000000000050000SLR7135049100159025428HOMAGAMA EDUCATIONAL                  2011-5317010181227000000
00007135229200150011483PANAGODA LIYANA ARAC23000000000000000050000SLR7135049100159025428HOMAGAMA EDUCATIONAL                  2011-5317053181227000000
00007135229200110012984GAMAGEDARAGE CHAMODY23000000000000000050000SLR7135049100159025428HOMAGAMA EDUCATIONAL                  2011-5317096181227000000
00007135229200100012102HASHINI MALSHA HETTI23000000000000000050000SLR7135049100159025428HOMAGAMA EDUCATIONAL                  2011-5317100181227000000
00007135229200197557817LABUGAN KANDE KATTAD23000000000000000050000SLR7135049100159025428HOMAGAMA EDUCATIONAL                  2011-5319412181227000000
00007135229200160012203MANIYANGAMAGE DONA L23000000000000000050000SLR7135049100159025428HOMAGAMA EDUCATIONAL                  2011-5319498181227000000
00007135229200100012159HISWELLA KANKANAMALA23000000000000000050000SLR7135049100159025428HOMAGAMA EDUCATIONAL                  2011-5319544181227000000
00007135229200250012118WEVITA VIDANELAGE NA23000000000000000050000SLR7135049100159025428HOMAGAMA EDUCATIONAL                  2011-5319595181227000000
00007135229200213854995LEKAM APPUHAMILAGE D23000000000000000050000SLR7135049100159025428HOMAGAMA EDUCATIONAL                  2011-5320909181227000000
00007135229200150012265KAHAWA GURUGE KAVIND23000000000000000050000SLR7135049100159025428HOMAGAMA EDUCATIONAL                  2011-5322421181227000000
00007135229200100012022THEMBUWATHTHA GAMARA23000000000000000050000SLR7135049100159025428HOMAGAMA EDUCATIONAL                  2011-5323177181227000000
00007135029200100007168BULUGAHAMULLA PATHIR23000000000000000050000SLR7135049100159025428HOMAGAMA EDUCATIONAL                  2011-5323347181227000000
00007135229200140012100HEWAGE RAVEESHA GISH23000000000000000050000SLR7135049100159025428HOMAGAMA EDUCATIONAL                  2011-5324467181227000000
00007135229200180012099PRIYANKARA RANASINGH23000000000000000050000SLR7135049100159025428HOMAGAMA EDUCATIONAL                  2011-5325196181227000000
00007135229200190012032SEPALA DAHANAYAKALAG23000000000000000050000SLR7135049100159025428HOMAGAMA EDUCATIONAL                  2011-5327903181227000000
00007135229200130012110VITHANAGE PRABHASHA 23000000000000000050000SLR7135049100159025428HOMAGAMA EDUCATIONAL                  2011-5402530181227000000
00007135229200190012089LOKU HAPUARACHCHIGE 23000000000000000050000SLR7135049100159025428HOMAGAMA EDUCATIONAL                  2011-5402662181227000000
00007135118200150016944AMARAKOON MUDIYANSEL23000000000000000050000SLR7135049100159025428HOMAGAMA EDUCATIONAL                  2011-5402786181227000000
00007135229200120012573BUTHUPITIYA LEKAMLAG23000000000000000050000SLR7135049100159025428HOMAGAMA EDUCATIONAL                  2011-5402824181227000000
00007135229200110012205RATHNABARA KURANA AC23000000000000000050000SLR7135049100159025428HOMAGAMA EDUCATIONAL                  2011-5403995181227000000
00007135093200277702468BUTHPITIYA LEKAMALAG23000000000000000050000SLR7135049100159025428HOMAGAMA EDUCATIONAL                  2011-5410100181227000000
00007135229200140012223WEERASEKARALAGE BAVA23000000000000000050000SLR7135049100159025428HOMAGAMA EDUCATIONAL                  2011-5410231181227000000
00007135191200190004350AMARASINGHE ARACHCHI23000000000000000050000SLR7135049100159025428HOMAGAMA EDUCATIONAL                  2011-5411599181227000000
00007135191120019000414WEERASINGHE ARACHCHI23000000000000000050000SLR7135049100159025428HOMAGAMA EDUCATIONAL                  2011-5411840181227000000
00007135229200100012116WELABADA KANKANAMALA23000000000000000050000SLR7135049100159025428HOMAGAMA EDUCATIONAL                  2011-5413168181227000000
00007135093200257702577WICKRAMA ACHCHIGE KR23000000000000000050000SLR7135049100159025428HOMAGAMA EDUCATIONAL                  2011-5413362181227000000
00007135093200190001389RATHNAYAKA MUDIYANSE23000000000000000050000SLR7135049100159025428HOMAGAMA EDUCATIONAL                  2011-5413621181227000000
00007135229200110012088RANASINGHEGE MADAWI 23000000000000000050000SLR7135049100159025428HOMAGAMA EDUCATIONAL                  2011-5667771181227000000
00007135229200150012114HENAKA RALALAGE DILU23000000000000000050000SLR7135049100159025428HOMAGAMA EDUCATIONAL                  2011-6783791181227000000
00007135232200160016996       APEKSHA UDANI23000000000000000050000SLR7135049100159025428HOMAGAMA EDUCATIONAL                  2011-7072236181227000000
00007135229200170014739ATTIDIYE VIDANALAGE 23000000000000000050000SLR7135049100159025428HOMAGAMA EDUCATIONAL                  2012-1188135181227000000
00007135229200170015036THIPPALAGE HIRUSHI N23000000000000000050000SLR7135049100159025428HOMAGAMA EDUCATIONAL                  2012-1188232181227000000
00007135196200140013203EGODAWATHTHA ARACHCH23000000000000000050000SLR7135049100159025428HOMAGAMA EDUCATIONAL                  2012-1188828181227000000
00007135049200160001166ARAVWALA PATHIRAGE N23000000000000000050000SLR7135049100159025428HOMAGAMA EDUCATIONAL                  2012-1289314181227000000
00007135049200150024267POLGAHAWATHTHAGE PRA23000000000000000050000SLR7135049100159025428HOMAGAMA EDUCATIONAL                  2012-1289497181227000000
00007135049200150024272DENAGAMMANA MUDIYANS23000000000000000050000SLR7135049100159025428HOMAGAMA EDUCATIONAL                  2012-1297503181227000000
00007135049200102044497BAMUNU ARACHCHIGE OS23000000000000000050000SLR7135049100159025428HOMAGAMA EDUCATIONAL                  2012-1303554181227000000
00007135049200130024268NAULLAGE AMANDA MADH23000000000000000050000SLR7135049100159025428HOMAGAMA EDUCATIONAL                  2012-1303775181227000000
00007135049200120024184H BANDARANAYAKA RALL23000000000000000050000SLR7135049100159025428HOMAGAMA EDUCATIONAL                  2012-1305867181227000000
00007135049200180024124IMBUL IHA GAMAGE DUL23000000000000000050000SLR7135049100159025428HOMAGAMA EDUCATIONAL                  2012-1305875181227000000
00007135049200150024154PATHIRAGE DON YASASI23000000000000000050000SLR7135049100159025428HOMAGAMA EDUCATIONAL                  2012-1305972181227000000
00007135049200152044145JALTHOTAGE IMESHA SA23000000000000000050000SLR7135049100159025428HOMAGAMA EDUCATIONAL                  2012-1306111181227000000
00007135229200170014386PATHIRAGE KAVINDYA N23000000000000000050000SLR7135049100159025428HOMAGAMA EDUCATIONAL                  2012-1308386181227000000
00007135049200170024266WEERAPPERUMAGE JANAN23000000000000000050000SLR7135049100159025428HOMAGAMA EDUCATIONAL                  2012-1309951181227000000
00007135229200160014749BERUGODA ARACHCHIGE 23000000000000000050000SLR7135049100159025428HOMAGAMA EDUCATIONAL                  2012-1310526181227000000
00007135049200100024180LOKU PITIYAGE DASUN 23000000000000000050000SLR7135049100159025428HOMAGAMA EDUCATIONAL                  2012-1310771181227000000
00007135229200180014753THALAKOTUNNAGE DONA 23000000000000000050000SLR7135049100159025428HOMAGAMA EDUCATIONAL                  2012-1312880181227000000
00007135049200130024230RANAMUKA DEWAGE SAMO23000000000000000050000SLR7135049100159025428HOMAGAMA EDUCATIONAL                  2012-1313797181227000000
00007135049200190024251RAJAPAKSHA PATHIRA G23000000000000000050000SLR7135049100159025428HOMAGAMA EDUCATIONAL                  2012-1313959181227000000
00007135049200110024274MAPATUNAGE NIRUKSHI 23000000000000000050000SLR7135049100159025428HOMAGAMA EDUCATIONAL                  2012-1314033181227000000
00007135229200190014385DEGAMBADAGE CHATHUNI23000000000000000050000SLR7135049100159025428HOMAGAMA EDUCATIONAL                  2012-1314211181227000000
00007135049200120024259WALPOLAGE HARENDRA P23000000000000000050000SLR7135049100159025428HOMAGAMA EDUCATIONAL                  2012-1315994181227000000
00007135049200190024185NAWARATHNA GEDARA MI23000000000000000050000SLR7135049100159025428HOMAGAMA EDUCATIONAL                  2012-1316044181227000000
00007135049200170024233JALTHOTAGE ISHAN DIL23000000000000000050000SLR7135049100159025428HOMAGAMA EDUCATIONAL                  2012-1316079181227000000
00007135049200140024121PADUKKA VIDANALAGE K23000000000000000050000SLR7135049100159025428HOMAGAMA EDUCATIONAL                  2012-1316087181227000000
00007135049200100024241MALLIKA ARACHCHIGE L23000000000000000050000SLR7135049100159025428HOMAGAMA EDUCATIONAL                  2012-1316117181227000000
00007135229200150014410RAJAPAKSHA PATHIRA G23000000000000000050000SLR7135049100159025428HOMAGAMA EDUCATIONAL                  2012-1316176181227000000
00007135049200160024163WICKRAMA ARACHCHIGE 23000000000000000050000SLR7135049100159025428HOMAGAMA EDUCATIONAL                  2012-1316230181227000000
00007135049200180024237HEWAGE HIRUNI MADHUB23000000000000000050000SLR7135049100159025428HOMAGAMA EDUCATIONAL                  2012-1316524181227000000
00007135049200192035097MALARCHCHIGE CHARUNI23000000000000000050000SLR7135049100159025428HOMAGAMA EDUCATIONAL                  2012-1316591181227000000
00007135229200100014417AMBAGAHAWATTAGE MIHI23000000000000000050000SLR7135049100159025428HOMAGAMA EDUCATIONAL                  2012-1316605181227000000
00007135049200100024646KALATUWAGE ALIAS SEN23000000000000000050000SLR7135049100159025428HOMAGAMA EDUCATIONAL                  2012-1317121181227000000
00007135049200180024204KUDABALAGE CHETHANI 23000000000000000050000SLR7135049100159025428HOMAGAMA EDUCATIONAL                  2012-1317270181227000000
00007135049200170055516ABESINGHAGE MENUWAN 23000000000000000050000SLR7135049100159025428HOMAGAMA EDUCATIONAL                  2012-1317555181227000000
00007135049200140026115BULATHSINGHALAGE AMA23000000000000000050000SLR7135049100159025428HOMAGAMA EDUCATIONAL                  2012-1317911181227000000
00007135049200130024249COLLURU APPUHAMILAGE23000000000000000050000SLR7135049100159025428HOMAGAMA EDUCATIONAL                  2012-1317954181227000000
00007135049200190024265WEERASINGHA DEWAYALA23000000000000000050000SLR7135049100159025428HOMAGAMA EDUCATIONAL                  2012-1318730181227000000
00007135049200130024188MANCHANAYAKAGE CHAMA23000000000000000050000SLR7135049100159025428HOMAGAMA EDUCATIONAL                  2012-1318845181227000000
00007135229200193856707JAMBURAGODA GAMAGE D23000000000000000050000SLR7135049100159025428HOMAGAMA EDUCATIONAL                  2012-1319167181227000000
00007135229200150017847SEEMANGE DON ARINDU 23000000000000000050000SLR7135049100159025428HOMAGAMA EDUCATIONAL                  2012-1319230181227000000
00007135049200120023009GANGODA GAMAGE PIYUM23000000000000000050000SLR7135049100159025428HOMAGAMA EDUCATIONAL                  2012-1319361181227000000
00007135049200146552836ABEYNAYAKAGE RASHINI23000000000000000050000SLR7135049100159025428HOMAGAMA EDUCATIONAL                  2012-1319370181227000000
00007135049200180024261KURUGALAGE MIHIRANI 23000000000000000050000SLR7135049100159025428HOMAGAMA EDUCATIONAL                  2012-1319400181227000000
00007135049200142044278KATHRI ACHCHI PINNAW23000000000000000050000SLR7135049100159025428HOMAGAMA EDUCATIONAL                  2012-1319523181227000000
00007135229200170014433 RAVINI LANKA GAMAGE23000000000000000050000SLR7135049100159025428HOMAGAMA EDUCATIONAL                  2012-1319558181227000000
00007135229200263855916HENNAYAKA MUDIYANSEL23000000000000000050000SLR7135049100159025428HOMAGAMA EDUCATIONAL                  2012-1320815181227000000
00007135229200136912982EGALA WIDANALAGE DON23000000000000000050000SLR7135049100159025428HOMAGAMA EDUCATIONAL                  2012-1320980181227000000
00007135229200180014437JAYASINGHE ARACHCHIG23000000000000000050000SLR7135049100159025428HOMAGAMA EDUCATIONAL                  2012-1320998181227000000
00007135229200263861535NAWELA MAHAGAMA RALA23000000000000000050000SLR7135049100159025428HOMAGAMA EDUCATIONAL                  2012-1321188181227000000
00007135229200190014413KARIYAWASAM PUWAKPIT23000000000000000050000SLR7135049100159025428HOMAGAMA EDUCATIONAL                  2012-1322001181227000000
00007135049200101990971SANKHAPALA ACHARIGE 23000000000000000050000SLR7135049100159025428HOMAGAMA EDUCATIONAL                  2012-1323016181227000000
00007135229200180002533PRANSHAKARA THANAPAT23000000000000000050000SLR7135049100159025428HOMAGAMA EDUCATIONAL                  2012-1323172181227000000
00007135229200110003357KULUPANA BADALGE NES23000000000000000050000SLR7135049100159025428HOMAGAMA EDUCATIONAL                  2012-1323210181227000000
00007135229200170006819ATHAPATHTHU DISSANAY23000000000000000050000SLR7135049100159025428HOMAGAMA EDUCATIONAL                  2012-1323229181227000000
00007135229200223854886RANHILI PEDIGE SHEHA23000000000000000050000SLR7135049100159025428HOMAGAMA EDUCATIONAL                  2012-1323326181227000000
00007135229200110014431LIHINIKADUWAGE GEETH23000000000000000050000SLR7135049100159025428HOMAGAMA EDUCATIONAL                  2012-1323520181227000000
00007135229200150014434HEERALU MALAVIGE SAC23000000000000000050000SLR7135049100159025428HOMAGAMA EDUCATIONAL                  2012-1323547181227000000
00007135229200110005323PERUMPADA PEDIGE PAS23000000000000000050000SLR7135049100159025428HOMAGAMA EDUCATIONAL                  2012-1325299181227000000
00007135229200190014432ILUKKUMBURALAGE PRAS23000000000000000050000SLR7135049100159025428HOMAGAMA EDUCATIONAL                  2012-1325922181227000000
00007135229200183857095BORALUGODAGE SANDUN 23000000000000000050000SLR7135049100159025428HOMAGAMA EDUCATIONAL                  2012-1325973181227000000
00007135229200283857269PASINDU DILSHAN MADH23000000000000000050000SLR7135049100159025428HOMAGAMA EDUCATIONAL                  2012-1326988181227000000
00007135029200130023591HEWAGE DINURI DILNAR23000000000000000050000SLR7135049100159025428HOMAGAMA EDUCATIONAL                  2012-1327364181227000000
00007135029200147565142THALAWITIYALAGE NIRO23000000000000000050000SLR7135049100159025428HOMAGAMA EDUCATIONAL                  2012-1328441181227000000
00007135229200150003690KAPUGEDARA DISANAYAK23000000000000000050000SLR7135049100159025428HOMAGAMA EDUCATIONAL                  2012-1328697181227000000
00007135229200150014429VITHANAGE CHAMINDU S23000000000000000050000SLR7135049100159025428HOMAGAMA EDUCATIONAL                  2012-1328778181227000000
00007135029200163379596NANAYAKKARAWASAM MAS23000000000000000050000SLR7135049100159025428HOMAGAMA EDUCATIONAL                  2012-1329022181227000000
00007135029200150023547JASINGE DINUSHA LAKS23000000000000000050000SLR7135049100159025428HOMAGAMA EDUCATIONAL                  2012-1329219181227000000
00007135229200110014252DEBEGAMAGE DULAKSHAN23000000000000000050000SLR7135049100159025428HOMAGAMA EDUCATIONAL                  2012-1329618181227000000
00007135029200100023578ACHINTHA OSHADA MUDU23000000000000000050000SLR7135049100159025428HOMAGAMA EDUCATIONAL                  2012-1329910181227000000
00007135029200263379303SATHARASINGHA ARACHC23000000000000000050000SLR7135049100159025428HOMAGAMA EDUCATIONAL                  2012-1329960181227000000
00007135093200154637897RUPASINGHE ARACHCHIG23000000000000000050000SLR7135049100159025428HOMAGAMA EDUCATIONAL                  2012-1330489181227000000
00007135029200150023590LIHINI KADUWAGE NUWA23000000000000000050000SLR7135049100159025428HOMAGAMA EDUCATIONAL                  2012-1331078181227000000
00007135029200130023586WANNIARACHCHIGE NILE23000000000000000050000SLR7135049100159025428HOMAGAMA EDUCATIONAL                  2012-1331833181227000000
00007135029200120024690GALABALANNALAGE IRES23000000000000000050000SLR7135049100159025428HOMAGAMA EDUCATIONAL                  2012-1333526181227000000
00007135229200170003547NAGAHAPITIYAGE PASIN23000000000000000050000SLR7135049100159025428HOMAGAMA EDUCATIONAL                  2012-1334301181227000000
00007135029200120000156APPUNAIDEGE PRABODHA23000000000000000050000SLR7135049100159025428HOMAGAMA EDUCATIONAL                  2012-1334646181227000000
00007135229200160014768ANUSHKA KAVINDI SOOR23000000000000000050000SLR7135049100159025428HOMAGAMA EDUCATIONAL                  2012-1334786181227000000
00007135029200100023559UNAWATUNA HEWAGE SAS23000000000000000050000SLR7135049100159025428HOMAGAMA EDUCATIONAL                  2012-1337017181227000000
00007135229200100015129VITHANAGE NETHMI PRA23000000000000000050000SLR7135049100159025428HOMAGAMA EDUCATIONAL                  2012-1404393181227000000
00007135093200120000680BOGODA APPUHAMILAGE 23000000000000000050000SLR7135049100159025428HOMAGAMA EDUCATIONAL                  2012-1408895181227000000
00007135093200124637498MUTHUTHANTHRIGE NIPU23000000000000000050000SLR7135049100159025428HOMAGAMA EDUCATIONAL                  2012-1409042181227000000
00007135093200170000927LOKU HAPUARACHCHILAG23000000000000000050000SLR7135049100159025428HOMAGAMA EDUCATIONAL                  2012-1409670181227000000
00007135229200120000546AKMEEMANA LIYANAGE C23000000000000000050000SLR7135049100159025428HOMAGAMA EDUCATIONAL                  2012-1410245181227000000
00007135229200140014420MAKUMBURA KANKANAMAL23000000000000000050000SLR7135049100159025428HOMAGAMA EDUCATIONAL                  2012-1410490181227000000
00007135093200164637689PINDENIYAGE NIMESHA 23000000000000000050000SLR7135049100159025428HOMAGAMA EDUCATIONAL                  2012-1410539181227000000
00007135093200140004615ATHTHANAYAKA SURI MU23000000000000000050000SLR7135049100159025428HOMAGAMA EDUCATIONAL                  2012-1411454181227000000
00007135093200190012463KEKULTHOTUWAGE DON N23000000000000000050000SLR7135049100159025428HOMAGAMA EDUCATIONAL                  2012-1412086181227000000
00007135093200124637525WARNAKULASURIYA ARAC23000000000000000050000SLR7135049100159025428HOMAGAMA EDUCATIONAL                  2012-1412159181227000000
00007135202200110000458LIYANA MUDIYANSELAGE23000000000000000050000SLR7135049100159025428HOMAGAMA EDUCATIONAL                  2012-1412280181227000000
00007135229200340014424THANIPPULI ARACHCHIL23000000000000000050000SLR7135049100159025428HOMAGAMA EDUCATIONAL                  2012-1417142181227000000
00007135229200100014422MOHOPPU THANTHRIGE I23000000000000000050000SLR7135049100159025428HOMAGAMA EDUCATIONAL                  2012-1417169181227000000
00007135191200100000361RANATHUNGA ARACHCHIG23000000000000000050000SLR7135049100159025428HOMAGAMA EDUCATIONAL                  2012-1418211181227000000
00007135191200130000345WIJESUNDARA MOHOTTAL23000000000000000050000SLR7135049100159025428HOMAGAMA EDUCATIONAL                  2012-1418289181227000000
00007135229200190014408PANDUWAWALA KANKANAM23000000000000000050000SLR7135049100159025428HOMAGAMA EDUCATIONAL                  2012-1419722181227000000
00007135229200160014419KIRIBANDARA MUHANDIR23000000000000000050000SLR7135049100159025428HOMAGAMA EDUCATIONAL                  2012-1419870181227000000
00007135029200130023548VITHANAGE SITHUMINA 23000000000000000050000SLR7135049100159025428HOMAGAMA EDUCATIONAL                  2012-2500167181227000000
00007135229200110017076WATARAKA WIDANALAGE 23000000000000000050000SLR7135049100159025428HOMAGAMA EDUCATIONAL                  2013-4174119181227000000
00007135229200150017437NAVODYA PRABASHWARI 23000000000000000050000SLR7135049100159025428HOMAGAMA EDUCATIONAL                  2013-4174143181227000000
00007135229200130017004AGAS PATHIRANNAHALAG23000000000000000050000SLR7135049100159025428HOMAGAMA EDUCATIONAL                  2013-4174232181227000000
00007135229200100017067HEWAWITHARANAGE THEJ23000000000000000050000SLR7135049100159025428HOMAGAMA EDUCATIONAL                  2013-4175123181227000000
00007135229200110017043GEEPATHI SUBHODANA W23000000000000000050000SLR7135049100159025428HOMAGAMA EDUCATIONAL                  2013-4283171181227000000
00007135229200190016983KUDA SINGAPPULIGE DI23000000000000000050000SLR7135049100159025428HOMAGAMA EDUCATIONAL                  2013-4294106181227000000
00007135229200160016989WIJETHUNGA LOKUPITUM23000000000000000050000SLR7135049100159025428HOMAGAMA EDUCATIONAL                  2013-4294165181227000000
00007135229200110017019LEKAM LIYANAGE SHANU23000000000000000050000SLR7135049100159025428HOMAGAMA EDUCATIONAL                  2013-4294173181227000000
00007135229200170017097KOLLU MURAGE NISHODH23000000000000000050000SLR7135049100159025428HOMAGAMA EDUCATIONAL                  2013-4294262181227000000
00007135229200130017075WEERAPPULIGE PASIDU 23000000000000000050000SLR7135049100159025428HOMAGAMA EDUCATIONAL                  2013-4295579181227000000
00007135229200270017073DINALI PARINDYA HIRI23000000000000000050000SLR7135049100159025428HOMAGAMA EDUCATIONAL                  2013-4297024181227000000
00007135229200170017083WIJESINGHALAGE VIHAN23000000000000000050000SLR7135049100159025428HOMAGAMA EDUCATIONAL                  2013-4297768181227000000
00007135229200190017063RATHMALGODA VIDANELA23000000000000000050000SLR7135049100159025428HOMAGAMA EDUCATIONAL                  2013-4297857181227000000
00007135229200160017012HORAGALAGE HIRUNI TH23000000000000000050000SLR7135049100159025428HOMAGAMA EDUCATIONAL                  2013-4297997181227000000
00007135229200190017435MEERIYAGALLAGE ATHIL23000000000000000050000SLR7135049100159025428HOMAGAMA EDUCATIONAL                  2013-4301080181227000000
00007135229200180017431JAYALATHGE DILEEPA L23000000000000000050000SLR7135049100159025428HOMAGAMA EDUCATIONAL                  2013-4301099181227000000
00007135229200190017001AMARATHUNGA ACHCHI M23000000000000000050000SLR7135049100159025428HOMAGAMA EDUCATIONAL                  2013-4303288181227000000
00007135229200150017017YAKUPITIYAGE EMALSHI23000000000000000050000SLR7135049100159025428HOMAGAMA EDUCATIONAL                  2013-4303326181227000000
00007135229200110017000KALANCHIGE HASHINI J23000000000000000050000SLR7135049100159025428HOMAGAMA EDUCATIONAL                  2013-4303342181227000000
00007135229200140017032GAMALAJJAGE DON JANI23000000000000000050000SLR7135049100159025428HOMAGAMA EDUCATIONAL                  2013-4303539181227000000
00007135229200170017436PERATBULI ARACHCHIGE23000000000000000050000SLR7135049100159025428HOMAGAMA EDUCATIONAL                  2013-4303717181227000000
00007135229200140017027THEWARAPPERUMA ARACH23000000000000000050000SLR7135049100159025428HOMAGAMA EDUCATIONAL                  2013-4303890181227000000
00007135229200190016997WELISARAGE PINITHI N23000000000000000050000SLR7135049100159025428HOMAGAMA EDUCATIONAL                  2013-4303970181227000000
00007135229200140017065WAHUMPURAGE RASHINI 23000000000000000050000SLR7135049100159025428HOMAGAMA EDUCATIONAL                  2013-4304292181227000000
00007135229200170016984PADUKKA VIDANELA JAN23000000000000000050000SLR7135049100159025428HOMAGAMA EDUCATIONAL                  2013-4305574181227000000
00007135229200100017072THAMMATI GEDARA LASI23000000000000000050000SLR7135049100159025428HOMAGAMA EDUCATIONAL                  2013-4305604181227000000
00007135229200180016988WITHANA THANTHIRILAG23000000000000000050000SLR7135049100159025428HOMAGAMA EDUCATIONAL                  2013-4305957181227000000
00007135229200140017046YADDEHIGE DON CHAMOD23000000000000000050000SLR7135049100159025428HOMAGAMA EDUCATIONAL                  2013-4306503181227000000
00007135229200120017009ATIGALA KANKANAMALAG23000000000000000050000SLR7135049100159025428HOMAGAMA EDUCATIONAL                  2013-4306511181227000000
00007135229200160017045CHAMUDI RANGANA GAMA23000000000000000050000SLR7135049100159025428HOMAGAMA EDUCATIONAL                  2013-4306708181227000000
00007135279200180007200HEWA AMARAPPULIGE TH23000000000000000050000SLR7135049100159025428HOMAGAMA EDUCATIONAL                  2013-4307534181227000000
00007135229200190017015NAKANDALAGE LAHIRU K23000000000000000050000SLR7135049100159025428HOMAGAMA EDUCATIONAL                  2013-4307712181227000000
00007135229200140016985VITHARAMALAGE SAMADH23000000000000000050000SLR7135049100159025428HOMAGAMA EDUCATIONAL                  2013-4308050181227000000
00007135229200290017133VITHANAGE ESHANI CHA23000000000000000050000SLR7135049100159025428HOMAGAMA EDUCATIONAL                  2013-4308212181227000000
00007135229200110017038DEWASURENDRA BANUKA 23000000000000000050000SLR7135049100159025428HOMAGAMA EDUCATIONAL                  2013-4308875181227000000
00007135229200180029047LOKU SINGAPPULIGE AM23000000000000000050000SLR7135049100159025428HOMAGAMA EDUCATIONAL                  2013-4309030181227000000
00007135229200180017049SOORIYA BANDARALAGE 23000000000000000050000SLR7135049100159025428HOMAGAMA EDUCATIONAL                  2013-4309138181227000000
00007135229200130017080UMESHA SEWWANDI SAPU23000000000000000050000SLR7135049100159025428HOMAGAMA EDUCATIONAL                  2013-4309219181227000000
00007135229200110017359CHUSHAN ARISHANA MAN23000000000000000050000SLR7135049100159025428HOMAGAMA EDUCATIONAL                  2013-4309898181227000000
00007135229200180017902BATUGEDARAGE LUMASHI23000000000000000050000SLR7135049100159025428HOMAGAMA EDUCATIONAL                  2013-4310403181227000000
00007135229200160017069 MUTHTHUSAMI DIWYANI23000000000000000050000SLR7135049100159025428HOMAGAMA EDUCATIONAL                  2013-4310730181227000000
00007135229200140015306SAMARAWEERA PEDURU A23000000000000000050000SLR7135049100159025428HOMAGAMA EDUCATIONAL                  2013-4311353181227000000
00007135229200120016991RUPASINGHE ARACHCHIG23000000000000000050000SLR7135049100159025428HOMAGAMA EDUCATIONAL                  2013-4311400181227000000
00007135229200100000175SEEMONGE DONA THARUS23000000000000000050000SLR7135049100159025428HOMAGAMA EDUCATIONAL                  2013-4311477181227000000
00007135229200160017026GANI ACHCHIGE THATHS23000000000000000050000SLR7135049100159025428HOMAGAMA EDUCATIONAL                  2013-4311868181227000000
00007135229200223858059MIRIHANAGE DON KALAN23000000000000000050000SLR7135049100159025428HOMAGAMA EDUCATIONAL                  2013-4312171181227000000
00007135229200120017434BOPAGAMAGE ANJANA MA23000000000000000050000SLR7135049100159025428HOMAGAMA EDUCATIONAL                  2013-4312392181227000000
00007135229200153858176ASHINI VIHANSA LIHIN23000000000000000050000SLR7135049100159025428HOMAGAMA EDUCATIONAL                  2013-4312406181227000000
00007135229200170017002NETHMI SUDISHKA SILV23000000000000000050000SLR7135049100159025428HOMAGAMA EDUCATIONAL                  2013-4312465181227000000
00007135229200120016986IMESHA DEVINDI KETAW23000000000000000050000SLR7135049100159025428HOMAGAMA EDUCATIONAL                  2013-4312481181227000000
00007135229200180017030KURAGODA GAMALATH AK23000000000000000050000SLR7135049100159025428HOMAGAMA EDUCATIONAL                  2013-4312805181227000000
00007135229200120016118DON JUDE SHAMILKA HE23000000000000000050000SLR7135049100159025428HOMAGAMA EDUCATIONAL                  2013-4314131181227000000
00007135229200260000978MERIGNGNAGE PAMIDU B23000000000000000050000SLR7135049100159025428HOMAGAMA EDUCATIONAL                  2013-4314140181227000000
00007135229200170017059LUPULA CHAMAKA JAYAN23000000000000000050000SLR7135049100159025428HOMAGAMA EDUCATIONAL                  2013-4314158181227000000
00007135229200163856285HEWA WASAMGE ASEN MA23000000000000000050000SLR7135049100159025428HOMAGAMA EDUCATIONAL                  2013-4314611181227000000
00007135229200110017420ROSHEL SHAMAIN VANBU23000000000000000050000SLR7135049100159025428HOMAGAMA EDUCATIONAL                  2013-4314816181227000000
00007135229200120004714ANGAPPULIGE RASHINI 23000000000000000050000SLR7135049100159025428HOMAGAMA EDUCATIONAL                  2013-4314948181227000000
00007135229200130017037RATHNAYAKA MUDIYANSE23000000000000000050000SLR7135049100159025428HOMAGAMA EDUCATIONAL                  2013-4315090181227000000
00007135229200100017053BALADARAGE SHASIKA P23000000000000000050000SLR7135049100159025428HOMAGAMA EDUCATIONAL                  2013-4316690181227000000
00007135229200180017025SANDUN SRIMAL THILAK23000000000000000050000SLR7135049100159025428HOMAGAMA EDUCATIONAL                  2013-4316959181227000000
00007135229200120010220KALATUWAWA LEKAMLAGE23000000000000000050000SLR7135049100159025428HOMAGAMA EDUCATIONAL                  2013-4317661181227000000
00007135229200107557954BADUGODAGE SANINDU P23000000000000000050000SLR7135049100159025428HOMAGAMA EDUCATIONAL                  2013-4318102181227000000
00007135229200253857119SILPADHIPATHIGE PIYU23000000000000000050000SLR7135049100159025428HOMAGAMA EDUCATIONAL                  2013-4318110181227000000
00007135229200110017062WISHAL DEVINDA KARIY23000000000000000050000SLR7135049100159025428HOMAGAMA EDUCATIONAL                  2013-4318196181227000000
00007135229200180016993MUDUNKOTUWAGE SUWANI23000000000000000050000SLR7135049100159025428HOMAGAMA EDUCATIONAL                  2013-4318382181227000000
00007135229200120015557BENGALAGE TAMASHI TH23000000000000000050000SLR7135049100159025428HOMAGAMA EDUCATIONAL                  2013-4318390181227000000
00007135229200170017035GAMLADDALAGE SANDUNI23000000000000000050000SLR7135049100159025428HOMAGAMA EDUCATIONAL                  2013-4319443181227000000
00007135229200160017074WICKRAMASINGHEGE KAW23000000000000000050000SLR7135049100159025428HOMAGAMA EDUCATIONAL                  2013-4319915181227000000
00007135229200233858073RAJAPAKSHA PATHIRAGE23000000000000000050000SLR7135049100159025428HOMAGAMA EDUCATIONAL                  2013-4322177181227000000
00007135029200110005588KULAKULASOORIYA MADU23000000000000000050000SLR7135049100159025428HOMAGAMA EDUCATIONAL                  2013-4322487181227000000
00007135229200180017011NANAYAKKARA WASAM HE23000000000000000050000SLR7135049100159025428HOMAGAMA EDUCATIONAL                  2013-4322762181227000000
00007135229200140017070GALOLU KANKANAMALAGE23000000000000000050000SLR7135049100159025428HOMAGAMA EDUCATIONAL                  2013-4322983181227000000
00007135229200126857028WIJESINGHA ARACHCHIG23000000000000000050000SLR7135049100159025428HOMAGAMA EDUCATIONAL                  2013-4323203181227000000
00007135229200190017077AKASH SANDUN HEWARAT23000000000000000050000SLR7135049100159025428HOMAGAMA EDUCATIONAL                  2013-4325656181227000000
00007135229200190017058OWITA WATHTHE GEDARA23000000000000000050000SLR7135049100159025428HOMAGAMA EDUCATIONAL                  2013-4325753181227000000
00007135229200130030289KURUGALA ARACHCHILAG23000000000000000050000SLR7135049100159025428HOMAGAMA EDUCATIONAL                  2013-4386264181227000000
00007135229200100017487SOORIYAGE SIHANA NET23000000000000000050000SLR7135049100159025428HOMAGAMA EDUCATIONAL                  2013-4401085181227000000
00007135229200150017041HASTHIKA SITH WICKRA23000000000000000050000SLR7135049100159025428HOMAGAMA EDUCATIONAL                  2013-4401093181227000000
00007135229200100017034DEHIWALA LIYANAGE AM23000000000000000050000SLR7135049100159025428HOMAGAMA EDUCATIONAL                  2013-4401280181227000000
00007135229200170017021DEBEGAMA KANKANAMALA23000000000000000050000SLR7135049100159025428HOMAGAMA EDUCATIONAL                  2013-4401468181227000000
00007135229200120017028PANTHIYA WADUGE MANU23000000000000000050000SLR7135049100159025428HOMAGAMA EDUCATIONAL                  2013-4401620181227000000
00007135229200160017007EDIRISINGHE ARACHCHI23000000000000000050000SLR7135049100159025428HOMAGAMA EDUCATIONAL                  2013-4401875181227000000
00007135229200140017013UDAGE ARACHCHI PABOD23000000000000000050000SLR7135049100159025428HOMAGAMA EDUCATIONAL                  2013-4401999181227000000
00007135229200100017029MEEWALA ARACHCHILAGE23000000000000000050000SLR7135049100159025428HOMAGAMA EDUCATIONAL                  2013-4402073181227000000
00007135229200110017057PODIMARAKKALA GURUNN23000000000000000050000SLR7135049100159025428HOMAGAMA EDUCATIONAL                  2013-4402081181227000000
00007135229200140017051SELLAPPERUMAGE SHENU23000000000000000050000SLR7135049100159025428HOMAGAMA EDUCATIONAL                  2013-4402103181227000000
00007135229200150017003WITHANAGE TILINA DIL23000000000000000050000SLR7135049100159025428HOMAGAMA EDUCATIONAL                  2013-4402502181227000000
00007135229200180017006MANAMENDRA AACHARIGE23000000000000000050000SLR7135049100159025428HOMAGAMA EDUCATIONAL                  2013-4403657181227000000
00007135229200160017031PINNALA WATHTHAGE DO23000000000000000050000SLR7135049100159025428HOMAGAMA EDUCATIONAL                  2013-4404513181227000000
00007135229200190017039MADALAGAMA APPUHAMIL23000000000000000050000SLR7135049100159025428HOMAGAMA EDUCATIONAL                  2013-4404807181227000000
00007135229200130017018KADUPAHANA ARACHCHIG23000000000000000050000SLR7135049100159025428HOMAGAMA EDUCATIONAL                  2013-4405390181227000000
00007135229200120017071UDUWARAGE SANDARU AR23000000000000000050000SLR7135049100159025428HOMAGAMA EDUCATIONAL                  2013-4409060181227000000
00007135229200240017022SAMARANAYAKAGE NAVID23000000000000000050000SLR7135049100159025428HOMAGAMA EDUCATIONAL                  2013-4409710181227000000
00007135229200120017047HEWARANASINGHA ARACH23000000000000000050000SLR7135049100159025428HOMAGAMA EDUCATIONAL                  2013-4411129181227000000
00007135229200150017036HETTI ARACHCHIGE DON23000000000000000050000SLR7135049100159025428HOMAGAMA EDUCATIONAL                  2013-4411234181227000000
00007135229200160017432EKANAYAKA RALALAGE C23000000000000000050000SLR7135049100159025428HOMAGAMA EDUCATIONAL                  2013-4411250181227000000
00007135229200190017044GAMMANA LIYANAGE CHA23000000000000000050000SLR7135049100159025428HOMAGAMA EDUCATIONAL                  2013-4411536181227000000
00007135229200140017008GODIHENA GAMAGE DILA23000000000000000050000SLR7135049100159025428HOMAGAMA EDUCATIONAL                  2013-4411544181227000000
00007135229200100017005PATHIRANAGE AVISHKA 23000000000000000050000SLR7135049100159025428HOMAGAMA EDUCATIONAL                  2013-4412117181227000000
00007135229200170017016BOGAHALANDAGE SASIKA23000000000000000050000SLR7135049100159025428HOMAGAMA EDUCATIONAL                  2013-4412150181227000000
00007135229200130017023POHONNARU WIDANAGE T23000000000000000050000SLR7135049100159025428HOMAGAMA EDUCATIONAL                  2013-4412273181227000000
00007135229200100017091MAHA PATHIRANNEHELAG23000000000000000050000SLR7135049100159025428HOMAGAMA EDUCATIONAL                  2013-4412540181227000000
00007135229200120017066PANAGODA LIYANA ARAC23000000000000000050000SLR7135049100159025428HOMAGAMA EDUCATIONAL                  2013-4413210181227000000
00007135229200120017033MALMIE MATHIESHA GUN23000000000000000050000SLR7135049100159025428HOMAGAMA EDUCATIONAL                  2013-5006244181227000000
00007135229200100017086WERAGALA MUDIYANSELA23000000000000000050000SLR7135049100159025428HOMAGAMA EDUCATIONAL                  2013-5525195181227000000
00007135229200110020168KULASINGHA ARACHCHIG23000000000000000050000SLR7135049100159025428HOMAGAMA EDUCATIONAL                  2014-6671063181227000000
00007135229200140019347PALLEGAMA DAHAMI DIW23000000000000000050000SLR7135049100159025428HOMAGAMA EDUCATIONAL                  2014-6679200181227000000
00007135229200150019380MANNA MARAKKALAGE KO23000000000000000050000SLR7135049100159025428HOMAGAMA EDUCATIONAL                  2014-6679951181227000000
00007135229200100019387GALAGEDARAGE TUVINI 23000000000000000050000SLR7135049100159025428HOMAGAMA EDUCATIONAL                  2014-6680070181227000000
00007135229200110019278MAMBULAGE LAKINDU KA23000000000000000050000SLR7135049100159025428HOMAGAMA EDUCATIONAL                  2014-6680232181227000000
00007135229200160026399DISATH GEETHAKA BOGA23000000000000000050000SLR7135049100159025428HOMAGAMA EDUCATIONAL                  2014-6680542181227000000
00007135229200140019314URESHA SEWWANDI HETT23000000000000000050000SLR7135049100159025428HOMAGAMA EDUCATIONAL                  2014-6680712181227000000
00007135229200160019346NALAWATHTHAGE GIMHAN23000000000000000050000SLR7135049100159025428HOMAGAMA EDUCATIONAL                  2014-6681808181227000000
00007135229200190019383KALUMADIRI KANKANAMG23000000000000000050000SLR7135049100159025428HOMAGAMA EDUCATIONAL                  2014-6682162181227000000
00007135229200160019394ALUTHBADUGE HASHINI 23000000000000000050000SLR7135049100159025428HOMAGAMA EDUCATIONAL                  2014-6682235181227000000
00007135229200170019384MAMBULAGE PASINDU SI23000000000000000050000SLR7135049100159025428HOMAGAMA EDUCATIONAL                  2014-6682405181227000000
00007135229200180019294GALLAGE GUWANI GIMHA23000000000000000050000SLR7135049100159025428HOMAGAMA EDUCATIONAL                  2014-6682545181227000000
00007135229200180019265MALAVI PATHIRANLAGE 23000000000000000050000SLR7135049100159025428HOMAGAMA EDUCATIONAL                  2014-6683061181227000000
00007135229200120019305KIMBULOBBE HERATH MU23000000000000000050000SLR7135049100159025428HOMAGAMA EDUCATIONAL                  2014-6683347181227000000
00007135229200190019321HEWAVITHARANAGE HASI23000000000000000050000SLR7135049100159025428HOMAGAMA EDUCATIONAL                  2014-6791441181227000000
00007135229200170019341HALWATHU ARACHCHIGE 23000000000000000050000SLR7135049100159025428HOMAGAMA EDUCATIONAL                  2014-6795315181227000000
00007135418200120019273HIRIPITIYAGE SACHITH23000000000000000050000SLR7135049100159025428HOMAGAMA EDUCATIONAL                  2014-6803253181227000000
00007135229200120019348MALAVIGE THULINA THE23000000000000000050000SLR7135049100159025428HOMAGAMA EDUCATIONAL                  2014-6804500181227000000
00007135229200110019358MALLIKA ARACHCHILAGE23000000000000000050000SLR7135049100159025428HOMAGAMA EDUCATIONAL                  2014-6805914181227000000
00007135229200160019308VELATHANTHRIGE SHENA23000000000000000050000SLR7135049100159025428HOMAGAMA EDUCATIONAL                  2014-6805957181227000000
00007135229200150019403KANDE GAMARALALAGE N23000000000000000050000SLR7135049100159025428HOMAGAMA EDUCATIONAL                  2014-6806058181227000000
00007135229200110019363WADUMBULI ARACHCHIGE23000000000000000050000SLR7135049100159025428HOMAGAMA EDUCATIONAL                  2014-6806090181227000000
00007135229200150019361BASNAYAKA RALALAGE M23000000000000000050000SLR7135049100159025428HOMAGAMA EDUCATIONAL                  2014-6806635181227000000
00007135229200190020051DISANAYAKA MUDIYANSE23000000000000000050000SLR7135049100159025428HOMAGAMA EDUCATIONAL                  2014-6808271181227000000
00007135229200180020155SARUWE KANKANAMGE SA23000000000000000050000SLR7135049100159025428HOMAGAMA EDUCATIONAL                  2014-6810489181227000000
00007135229200120019367MALITHI PRABODHA VIT23000000000000000050000SLR7135049100159025428HOMAGAMA EDUCATIONAL                  2014-6810772181227000000
00007135229200130019300SOORIYAPPERUMA ARACH23000000000000000050000SLR7135049100159025428HOMAGAMA EDUCATIONAL                  2014-6810861181227000000
00007135229200140020044SAKALASURIYA MUDIYAN23000000000000000050000SLR7135049100159025428HOMAGAMA EDUCATIONAL                  2014-6812350181227000000
00007135229200150019318PARAGODA PATHIRANAGE23000000000000000050000SLR7135049100159025428HOMAGAMA EDUCATIONAL                  2014-6812384181227000000
00007135229200170019303KARUNARATHNA GANITHA23000000000000000050000SLR7135049100159025428HOMAGAMA EDUCATIONAL                  2014-6812422181227000000
00007135229200137558131BENGALAGE PIPUNI HAN23000000000000000050000SLR7135049100159025428HOMAGAMA EDUCATIONAL                  2014-6812899181227000000
00007135229200130019319PATHIRAGE ANJANA INO23000000000000000050000SLR7135049100159025428HOMAGAMA EDUCATIONAL                  2014-6813011181227000000
00007135229200130019343PASINDU HARSHANA HEM23000000000000000050000SLR7135049100159025428HOMAGAMA EDUCATIONAL                  2014-6813569181227000000
00007135229200180019289RANAWAKA ACHCHIGE MA23000000000000000050000SLR7135049100159025428HOMAGAMA EDUCATIONAL                  2014-6813607181227000000
00007135229200110019339KURUGALA GAMAGE PUMU23000000000000000050000SLR7135049100159025428HOMAGAMA EDUCATIONAL                  2014-6813631181227000000
00007135229200130019282DANDANGODA GAMAGE SA23000000000000000050000SLR7135049100159025428HOMAGAMA EDUCATIONAL                  2014-6815472181227000000
00007135229200190019279PERIYAPPERUMA ACHCHI23000000000000000050000SLR7135049100159025428HOMAGAMA EDUCATIONAL                  2014-6815561181227000000
00007135229200110019320SUDASINHA ARACHCHIGE23000000000000000050000SLR7135049100159025428HOMAGAMA EDUCATIONAL                  2014-6815731181227000000
00007135229200160019351SIRISENA ARACHCHIGE 23000000000000000050000SLR7135049100159025428HOMAGAMA EDUCATIONAL                  2014-6816045181227000000
00007135229200180019270KARUNARATHNA MUDIYAN23000000000000000050000SLR7135049100159025428HOMAGAMA EDUCATIONAL                  2014-6816193181227000000
00007135229200110019344DAMBORA GAMAGE CHAMI23000000000000000050000SLR7135049100159025428HOMAGAMA EDUCATIONAL                  2014-6817688181227000000
00007135229200130019296MERIGNGNAGE CHATHUNI23000000000000000050000SLR7135049100159025428HOMAGAMA EDUCATIONAL                  2014-6817963181227000000
00007135229200150019342GAMALATH KANKANAMALA23000000000000000050000SLR7135049100159025428HOMAGAMA EDUCATIONAL                  2014-6818056181227000000
00007135229200120019334WITHARAMALAGE WATHSA23000000000000000050000SLR7135049100159025428HOMAGAMA EDUCATIONAL                  2014-6818080181227000000
00007135229200170019280MUDUNKOTUWAGE SANDAR23000000000000000050000SLR7135049100159025428HOMAGAMA EDUCATIONAL                  2014-6819184181227000000
00007135229200130019357WICKRAMANAYAKA KARUN23000000000000000050000SLR7135049100159025428HOMAGAMA EDUCATIONAL                  2014-6819214181227000000
00007135229200110019264JAYASINGHE ARACHCHIG23000000000000000050000SLR7135049100159025428HOMAGAMA EDUCATIONAL                  2014-6819532181227000000
00007135229200120019287MISHEL ANJALEE CLAIN23000000000000000050000SLR7135049100159025428HOMAGAMA EDUCATIONAL                  2014-6819540181227000000
00007135229200150019304MANIYAMGAMAGE PRASAD23000000000000000050000SLR7135049100159025428HOMAGAMA EDUCATIONAL                  2014-6819990181227000000
00007135229200110019301ROSHANA KUMARA GAMAG23000000000000000050000SLR7135049100159025428HOMAGAMA EDUCATIONAL                  2014-6820034181227000000
00007135229200100019354MANCHANAYAKAGE TILEE23000000000000000050000SLR7135049100159025428HOMAGAMA EDUCATIONAL                  2014-6820310181227000000
00007135229200273860998DISANAYAKEGE YASHMI 23000000000000000050000SLR7135049100159025428HOMAGAMA EDUCATIONAL                  2014-6820328181227000000
00007135229200160020104WERAGALAGE MANUDULA 23000000000000000050000SLR7135049100159025428HOMAGAMA EDUCATIONAL                  2014-6820352181227000000
00007135229200150019281RAJAPAKSE PATHIRAGE 23000000000000000050000SLR7135049100159025428HOMAGAMA EDUCATIONAL                  2014-6820409181227000000
00007135229200160020123SURAGE YUREKA SEWWAN23000000000000000050000SLR7135049100159025428HOMAGAMA EDUCATIONAL                  2014-6820549181227000000
00007135229200100019330IDDAMALGODAGE THARIN23000000000000000050000SLR7135049100159025428HOMAGAMA EDUCATIONAL                  2014-6821030181227000000
00007135229200283859485EDIRISINGHE ARACHCHI23000000000000000050000SLR7135049100159025428HOMAGAMA EDUCATIONAL                  2014-6821286181227000000
00007135229200160019290KORALAGAMA HEWAGE LO23000000000000000050000SLR7135049100159025428HOMAGAMA EDUCATIONAL                  2014-6822029181227000000
00007135229200100019269SENARATH MUDALIGE DO23000000000000000050000SLR7135049100159025428HOMAGAMA EDUCATIONAL                  2014-6822894181227000000
00007135229200100019288RATHNAYAKA MUDIYANSE23000000000000000050000SLR7135049100159025428HOMAGAMA EDUCATIONAL                  2014-6823017181227000000
00007135229200230000946DEBEGAMA KANKANAMALA23000000000000000050000SLR7135049100159025428HOMAGAMA EDUCATIONAL                  2014-6823262181227000000
00007135229200120022275WANIGASOORIYA MUDIYA23000000000000000050000SLR7135049100159025428HOMAGAMA EDUCATIONAL                  2014-6823327181227000000
00007135229200270022258MADALAGAMA APPUHAMIL23000000000000000050000SLR7135049100159025428HOMAGAMA EDUCATIONAL                  2014-6823564181227000000
00007135229200170019317GANI ACHCHIGE MITHAR23000000000000000050000SLR7135049100159025428HOMAGAMA EDUCATIONAL                  2014-6823580181227000000
00007135229200163858760LOKUBALASOORIYAGE DI23000000000000000050000SLR7135049100159025428HOMAGAMA EDUCATIONAL                  2014-6823726181227000000
00007135229200120019268WICKRAMA ARACHCHILAG23000000000000000050000SLR7135049100159025428HOMAGAMA EDUCATIONAL                  2014-6823890181227000000
00007135229200160019271RUPASINGHE ARACHCHIG23000000000000000050000SLR7135049100159025428HOMAGAMA EDUCATIONAL                  2014-6823904181227000000
00007135229200140019267KAPUKANKANAMALAGE HA23000000000000000050000SLR7135049100159025428HOMAGAMA EDUCATIONAL                  2014-6823939181227000000
00007135229200160019266GAMALATH KANKANAMAGE23000000000000000050000SLR7135049100159025428HOMAGAMA EDUCATIONAL                  2014-6825079181227000000
00007135229200160018605PANAGODA LIYANA ARAC23000000000000000050000SLR7135049100159025428HOMAGAMA EDUCATIONAL                  2014-6825206181227000000
00007135229200130019277EDIRISINGHE ARACHCHI23000000000000000050000SLR7135049100159025428HOMAGAMA EDUCATIONAL                  2014-6825257181227000000
00007135229200110020130BATHTHARAMULLA GAMAG23000000000000000050000SLR7135049100159025428HOMAGAMA EDUCATIONAL                  2014-6825508181227000000
00007135229200100019325AEGALA VIDANAGE DONA23000000000000000050000SLR7135049100159025428HOMAGAMA EDUCATIONAL                  2014-6825540181227000000
00007135229200130007627KURUPPUWATHTHAGE KAV23000000000000000050000SLR7135049100159025428HOMAGAMA EDUCATIONAL                  2014-6827861181227000000
00007135229200170019275HEWAVASAM PUWAKPITIY23000000000000000050000SLR7135049100159025428HOMAGAMA EDUCATIONAL                  2014-6829325181227000000
00007135229200150005793WEVITA VIDANALAGE LO23000000000000000050000SLR7135049100159025428HOMAGAMA EDUCATIONAL                  2014-6829350181227000000
00007135229200140019366PATHIRANAGE ESHAN PE23000000000000000050000SLR7135049100159025428HOMAGAMA EDUCATIONAL                  2014-6830820181227000000
00007135229200160019327EKANAYAKA MUDIYANSEL23000000000000000050000SLR7135049100159025428HOMAGAMA EDUCATIONAL                  2014-6830935181227000000
00007135229200120023091HEWASINGHALAGE MUTHU23000000000000000050000SLR7135049100159025428HOMAGAMA EDUCATIONAL                  2014-6831370181227000000
00007135229200100019274MANANNALAGE SILUNI A23000000000000000050000SLR7135049100159025428HOMAGAMA EDUCATIONAL                  2014-6831397181227000000
00007135229200120019292MADURAPPERUMA ARACHC23000000000000000050000SLR7135049100159025428HOMAGAMA EDUCATIONAL                  2014-6832253181227000000
00007135229200140019291SENDANAYAKE ACHCHIGE23000000000000000050000SLR7135049100159025428HOMAGAMA EDUCATIONAL                  2014-6832261181227000000
00007135229200110024779KATTANDI GAMAGE JAYA23000000000000000050000SLR7135049100159025428HOMAGAMA EDUCATIONAL                  2014-6832407181227000000
00007135229200100019293LANKA GEEGANARALLAGE23000000000000000050000SLR7135049100159025428HOMAGAMA EDUCATIONAL                  2014-6832431181227000000
00007135229200170020085SEDERA LIYANAGE DILS23000000000000000050000SLR7135049100159025428HOMAGAMA EDUCATIONAL                  2014-6832555181227000000
00007135229200180019331PADBERIYA APPUHAMILA23000000000000000050000SLR7135049100159025428HOMAGAMA EDUCATIONAL                  2014-6833012181227000000
00007135229200140020162PILANA LIYANAGE SAND23000000000000000050000SLR7135049100159025428HOMAGAMA EDUCATIONAL                  2014-6833357181227000000
00007135229200130020054LEKAM APPUHAMILAGE D23000000000000000050000SLR7135049100159025428HOMAGAMA EDUCATIONAL                  2014-6833993181227000000
00007135229200160019365HINGURALA ARACHCHIGE23000000000000000050000SLR7135049100159025428HOMAGAMA EDUCATIONAL                  2014-6834035181227000000
00007135229200170019360    CHETHANA KAVINDI23000000000000000050000SLR7135049100159025428HOMAGAMA EDUCATIONAL                  2014-6834280181227000000
00007135229200140019333YOGARATHNAM LAKEESHA23000000000000000050000SLR7135049100159025428HOMAGAMA EDUCATIONAL                  2014-6835783181227000000
00007135229200110020229NIKULASGE ADITHYA PO23000000000000000050000SLR7135049100159025428HOMAGAMA EDUCATIONAL                  2014-6835945181227000000
00007135229200140019286AMBALANGODAGE SANDIT23000000000000000050000SLR7135049100159025428HOMAGAMA EDUCATIONAL                  2014-6837158181227000000
00007135229200150019356OMANTHAGE HANSIKA DE23000000000000000050000SLR7135049100159025428HOMAGAMA EDUCATIONAL                  2014-6837255181227000000
00007135229200180019307PALLEWELA DASANAYAKA23000000000000000050000SLR7135049100159025428HOMAGAMA EDUCATIONAL                  2014-6838197181227000000
00007135229200190019302KODITHUWAKKU KANKANA23000000000000000050000SLR7135049100159025428HOMAGAMA EDUCATIONAL                  2014-6839045181227000000
00007135229200150019295UNAWATUNA HEWAGE DON23000000000000000050000SLR7135049100159025428HOMAGAMA EDUCATIONAL                  2014-6839150181227000000
00007135229200150019484GALHENAGE KAVYA POOR23000000000000000050000SLR7135049100159025428HOMAGAMA EDUCATIONAL                  2014-6901557181227000000
00007135229200180019312ALUTHGEDARA CHATHURI23000000000000000050000SLR7135049100159025428HOMAGAMA EDUCATIONAL                  2014-6905404181227000000
00007135229200170019322DOLEWATHTHA APPUHAMI23000000000000000050000SLR7135049100159025428HOMAGAMA EDUCATIONAL                  2014-6912362181227000000
00007135229200170019355RANASINGHE PETIKIRI 23000000000000000050000SLR7135049100159025428HOMAGAMA EDUCATIONAL                  2014-6912559181227000000
00007135229200180019350HEWA MARAMAGE ASHINI23000000000000000050000SLR7135049100159025428HOMAGAMA EDUCATIONAL                  2014-6913105181227000000
00007135229200190019298OKANDAPOLAGE VIDUSHI23000000000000000050000SLR7135049100159025428HOMAGAMA EDUCATIONAL                  2014-6913121181227000000
00007135229200130020172HETTIARACHCHIGE SHAL23000000000000000050000SLR7135049100159025428HOMAGAMA EDUCATIONAL                  2014-6913369181227000000
00007135229200110020050ATULUGAMA KANKANAMAL23000000000000000050000SLR7135049100159025428HOMAGAMA EDUCATIONAL                  2014-6913539181227000000
00007135229200280019316ILANGA RAJATHILAKAGE23000000000000000050000SLR7135049100159025428HOMAGAMA EDUCATIONAL                  2014-6913601181227000000
00007135229200190019284PALAWATTAGE SANJANA 23000000000000000050000SLR7135049100159025428HOMAGAMA EDUCATIONAL                  2014-6914055181227000000
00007135229200160019332SINHARA MUDALIGE SAN23000000000000000050000SLR7135049100159025428HOMAGAMA EDUCATIONAL                  2014-6914217181227000000
00007135229200190019335AMPAGALA ARACHCHIGE 23000000000000000050000SLR7135049100159025428HOMAGAMA EDUCATIONAL                  2014-6916139181227000000
00007135229200120019310GODELLA WATHTHAGE YU23000000000000000050000SLR7135049100159025428HOMAGAMA EDUCATIONAL                  2014-6916210181227000000
00007135229200180019345THUWAN SADEV NENASAR23000000000000000050000SLR7135049100159025428HOMAGAMA EDUCATIONAL                  2014-6916244181227000000
00007135418200100019306GAMARALALAGE SALANI 23000000000000000050000SLR7135049100159025428HOMAGAMA EDUCATIONAL                  2014-6918450181227000000
00007135229200180018435DANGALLA APPUHAMILAG23000000000000000050000SLR7135049100159025428HOMAGAMA EDUCATIONAL                  2014-6920349181227000000
00007135229200110020088RANASIN GAMAGE SIHIN23000000000000000050000SLR7135049100159025428HOMAGAMA EDUCATIONAL                  2014-6923062181227000000
00007135229200100019368RAJAKARUNA WASALA MU23000000000000000050000SLR7135049100159025428HOMAGAMA EDUCATIONAL                  2014-6923275181227000000
00007135229200120019329ALUTHDURAYALAGE MUTH23000000000000000050000SLR7135049100159025428HOMAGAMA EDUCATIONAL                  2014-7196997181227000000
00007135229200170019421BARANIWALA LIYANAGE 23000000000000000050000SLR7135049100159025428HOMAGAMA EDUCATIONAL                  2014-7627580181227000000
00007135229200100020055ALAPATHA MUDALIGE DA23000000000000000050000SLR7135049100159025428HOMAGAMA EDUCATIONAL                  2014-8056234181227000000
00007135229200130021567HAPPAWANA VITHANAGE 23000000000000000050000SLR7135049100159025428HOMAGAMA EDUCATIONAL                  2015-1178881181227000000
00007135229200130022294KURUPPUGE ARUNDI AMA23000000000000000050000SLR7135049100159025428HOMAGAMA EDUCATIONAL                  2015-1179209181227000000
00007135229200156547384SUMITHRA ARACHCHIGE 23000000000000000050000SLR7135049100159025428HOMAGAMA EDUCATIONAL                  2015-1180894181227000000
00007135229200180021517HETTI ARACHCHIGE THE23000000000000000050000SLR7135049100159025428HOMAGAMA EDUCATIONAL                  2015-1181220181227000000
00007135229200150021509MALEGAMAGE THARUSHI 23000000000000000050000SLR7135049100159025428HOMAGAMA EDUCATIONAL                  2015-1181440181227000000
00007135229200140021487PODI SINGNOLAGE RAVI23000000000000000050000SLR7135049100159025428HOMAGAMA EDUCATIONAL                  2015-1182056181227000000
00007135229200150021463RAJAPAKSHA PATHIRANN23000000000000000050000SLR7135049100159025428HOMAGAMA EDUCATIONAL                  2015-1182510181227000000
00007135229200110021436PALLAWATHTHA GAMAGE 23000000000000000050000SLR7135049100159025428HOMAGAMA EDUCATIONAL                  2015-1182650181227000000
00007135229200140021543WADUGE DININDU VILOC23000000000000000050000SLR7135049100159025428HOMAGAMA EDUCATIONAL                  2015-1183834181227000000
00007135229200100021564HINGURA GAMAGE DAMDI23000000000000000050000SLR7135049100159025428HOMAGAMA EDUCATIONAL                  2015-1184091181227000000
00007135229200130021572KARIYAWASAM GAMAGE D23000000000000000050000SLR7135049100159025428HOMAGAMA EDUCATIONAL                  2015-1308220181227000000
00007135229200110021554PAWARA JANADEEPA THI23000000000000000050000SLR7135049100159025428HOMAGAMA EDUCATIONAL                  2015-1309218181227000000
00007135229200160021561WIJESINGHE ARACHCHIG23000000000000000050000SLR7135049100159025428HOMAGAMA EDUCATIONAL                  2015-1309684181227000000
00007135229200150022293THENNAKOON MUDIYANSE23000000000000000050000SLR7135049100159025428HOMAGAMA EDUCATIONAL                  2015-1312146181227000000
00007135229200170021527KASTHURI ARACHCHIGE 23000000000000000050000SLR7135049100159025428HOMAGAMA EDUCATIONAL                  2015-1312227181227000000
00007135229200110021511LIYANAGE ASHIA KASMA23000000000000000050000SLR7135049100159025428HOMAGAMA EDUCATIONAL                  2015-1312260181227000000
00007135229200180021485AMARASINGHA ARACHIGE23000000000000000050000SLR7135049100159025428HOMAGAMA EDUCATIONAL                  2015-1313150181227000000
00007135229200100021559KODITHUWAKKU MADDAGE23000000000000000050000SLR7135049100159025428HOMAGAMA EDUCATIONAL                  2015-1313541181227000000
00007135229200110021498KOSWATHTHAGE KAVEESH23000000000000000050000SLR7135049100159025428HOMAGAMA EDUCATIONAL                  2015-1315722181227000000
00007135229200180021555KAHANDAWALA ARACHCHI23000000000000000050000SLR7135049100159025428HOMAGAMA EDUCATIONAL                  2015-1315811181227000000
00007135229200110021549JAYAKODIGE METHMI KA23000000000000000050000SLR7135049100159025428HOMAGAMA EDUCATIONAL                  2015-1315927181227000000
00007135229200170022287MAPATUNAGE KASUNI GU23000000000000000050000SLR7135049100159025428HOMAGAMA EDUCATIONAL                  2015-1315943181227000000
00007135229200140021581CHATHURI MADUSHANI S23000000000000000050000SLR7135049100159025428HOMAGAMA EDUCATIONAL                  2015-1316427181227000000
00007135229200120021544KULARATHNAGE VINDYA 23000000000000000050000SLR7135049100159025428HOMAGAMA EDUCATIONAL                  2015-1316737181227000000
00007135229200150022288ASARAPPULIGE VIMUKTH23000000000000000050000SLR7135049100159025428HOMAGAMA EDUCATIONAL                  2015-1316990181227000000
00007135229200130021609BOPE GAMAGE IMESH KA23000000000000000050000SLR7135049100159025428HOMAGAMA EDUCATIONAL                  2015-1317865181227000000
00007135229200100021583MEEDENIYAGE DESHAN M23000000000000000050000SLR7135049100159025428HOMAGAMA EDUCATIONAL                  2015-1318101181227000000
00007135229200120021577SODIGE PASINDU SANKA23000000000000000050000SLR7135049100159025428HOMAGAMA EDUCATIONAL                  2015-1318128181227000000
00007135229200150021552WITHARAMALAGE DEWMIN23000000000000000050000SLR7135049100159025428HOMAGAMA EDUCATIONAL                  2015-1318241181227000000
00007135229200140021500MINURA CHAMIKA HETTI23000000000000000050000SLR7135049100159025428HOMAGAMA EDUCATIONAL                  2015-1318616181227000000
00007135229200140021524MOHAMAD HAMSA SHENAS23000000000000000050000SLR7135049100159025428HOMAGAMA EDUCATIONAL                  2015-1318934181227000000
00007135229200180021490MALIGAWAGE DULAKSHA 23000000000000000050000SLR7135049100159025428HOMAGAMA EDUCATIONAL                  2015-1319060181227000000
00007135229200190021772GALAHENE GEDARA SASI23000000000000000050000SLR7135049100159025428HOMAGAMA EDUCATIONAL                  2015-1319078181227000000
00007135229200180021536WELIKUMBURALAGE DIMI23000000000000000050000SLR7135049100159025428HOMAGAMA EDUCATIONAL                  2015-1319124181227000000
00007135229200140021557HABARAKADAGE SAKUNI 23000000000000000050000SLR7135049100159025428HOMAGAMA EDUCATIONAL                  2015-1319353181227000000
00007135229200150021533KARUNA SENADHIPATHIG23000000000000000050000SLR7135049100159025428HOMAGAMA EDUCATIONAL                  2015-1319400181227000000
00007135229200120021582KATHRIACHCHI PINNAWA23000000000000000050000SLR7135049100159025428HOMAGAMA EDUCATIONAL                  2015-1320580181227000000
00007135229200190021611LIYANAGE THRUSHI THA23000000000000000050000SLR7135049100159025428HOMAGAMA EDUCATIONAL                  2015-1320840181227000000
00007135229200190022314KATHRI ACHCHI PINNAW23000000000000000050000SLR7135049100159025428HOMAGAMA EDUCATIONAL                  2015-1320866181227000000
00007135229200110021592MALMALAGE NAVODHYA N23000000000000000050000SLR7135049100159025428HOMAGAMA EDUCATIONAL                  2015-1321285181227000000
00007135229200130020412KANNANGARA HALPITAGE23000000000000000050000SLR7135049100159025428HOMAGAMA EDUCATIONAL                  2015-1322494181227000000
00007135229200160021580HEWAWASAM PUWAKPITIY23000000000000000050000SLR7135049100159025428HOMAGAMA EDUCATIONAL                  2015-1322702181227000000
00007135229200150021477BALADARAGE SANDALI D23000000000000000050000SLR7135049100159025428HOMAGAMA EDUCATIONAL                  2015-1322796181227000000
00007135229200110020328SAMARAWEERA ARACHCHI23000000000000000050000SLR7135049100159025428HOMAGAMA EDUCATIONAL                  2015-1323008181227000000
00007135229200160021556HORATHAL PEDIGE CHAN23000000000000000050000SLR7135049100159025428HOMAGAMA EDUCATIONAL                  2015-1323202181227000000
00007135229200120021520WELIGAMAGE LAKINDU R23000000000000000050000SLR7135049100159025428HOMAGAMA EDUCATIONAL                  2015-1323350181227000000
00007135229200120021501DEBEGAMA KANKANAMALA23000000000000000050000SLR7135049100159025428HOMAGAMA EDUCATIONAL                  2015-1323628181227000000
00007135229200197558181DEIYAGALA ARACHCHIGE23000000000000000050000SLR7135049100159025428HOMAGAMA EDUCATIONAL                  2015-1323636181227000000
00007135229200130007458BOPE GAMAGE DEHEMI B23000000000000000050000SLR7135049100159025428HOMAGAMA EDUCATIONAL                  2015-1323768181227000000
00007135229200120021539PATHIRANAGE THARINDU23000000000000000050000SLR7135049100159025428HOMAGAMA EDUCATIONAL                  2015-1325485181227000000
00007135229200183860960WANASUNDARA ARACHCHI23000000000000000050000SLR7135049100159025428HOMAGAMA EDUCATIONAL                  2015-1325620181227000000
00007135229200150022325DIYUNUGE KAVEEN KASH23000000000000000050000SLR7135049100159025428HOMAGAMA EDUCATIONAL                  2015-1325728181227000000
00007135229200100021502WAWITA VIDANALAGE DO23000000000000000050000SLR7135049100159025428HOMAGAMA EDUCATIONAL                  2015-1325744181227000000
00007135229200190021526HETTI ARACHCHIGE DUL23000000000000000050000SLR7135049100159025428HOMAGAMA EDUCATIONAL                  2015-1325868181227000000
00007135229200113864061WIJESINGHE PEDIGE KE23000000000000000050000SLR7135049100159025428HOMAGAMA EDUCATIONAL                  2015-1326082181227000000
00007135229200190021625YADDEHIGE SITHMI PRA23000000000000000050000SLR7135049100159025428HOMAGAMA EDUCATIONAL                  2015-1327836181227000000
00007135229200140002304NISHSHANKA BAMUNU AR23000000000000000050000SLR7135049100159025428HOMAGAMA EDUCATIONAL                  2015-1328948181227000000
00007135229200167558352ASHEN BUMIKA KOTHALA23000000000000000050000SLR7135049100159025428HOMAGAMA EDUCATIONAL                  2015-1329545181227000000
